{
  "abi": [
    {
      "inputs": [
        {
          "internalType": "string",
          "name": "_name",
          "type": "string"
        },
        {
          "internalType": "string",
          "name": "_symbol",
          "type": "string"
        },
        {
          "internalType": "uint8",
          "name": "_decimals",
          "type": "uint8"
        },
        {
          "internalType": "address",
          "name": "_trusted",
          "type": "address"
        }
      ],
      "stateMutability": "nonpayable",
      "type": "constructor"
    },
    {
      "anonymous": false,
      "inputs": [
        {
          "indexed": true,
          "internalType": "address",
          "name": "owner",
          "type": "address"
        },
        {
          "indexed": true,
          "internalType": "address",
          "name": "spender",
          "type": "address"
        },
        {
          "indexed": false,
          "internalType": "uint256",
          "name": "amount",
          "type": "uint256"
        }
      ],
      "name": "Approval",
      "type": "event"
    },
    {
      "anonymous": false,
      "inputs": [
        {
          "indexed": true,
          "internalType": "address",
          "name": "from",
          "type": "address"
        },
        {
          "indexed": true,
          "internalType": "address",
          "name": "to",
          "type": "address"
        },
        {
          "indexed": false,
          "internalType": "uint256",
          "name": "amount",
          "type": "uint256"
        }
      ],
      "name": "Transfer",
      "type": "event"
    },
    {
      "anonymous": false,
      "inputs": [
        {
          "indexed": true,
          "internalType": "address",
          "name": "user",
          "type": "address"
        },
        {
          "indexed": false,
          "internalType": "bool",
          "name": "trusted",
          "type": "bool"
        }
      ],
      "name": "UserTrustUpdated",
      "type": "event"
    },
    {
      "inputs": [],
      "name": "DOMAIN_SEPARATOR",
      "outputs": [
        {
          "internalType": "bytes32",
          "name": "",
          "type": "bytes32"
        }
      ],
      "stateMutability": "view",
      "type": "function"
    },
    {
      "inputs": [
        {
          "internalType": "address",
          "name": "",
          "type": "address"
        },
        {
          "internalType": "address",
          "name": "",
          "type": "address"
        }
      ],
      "name": "allowance",
      "outputs": [
        {
          "internalType": "uint256",
          "name": "",
          "type": "uint256"
        }
      ],
      "stateMutability": "view",
      "type": "function"
    },
    {
      "inputs": [
        {
          "internalType": "address",
          "name": "spender",
          "type": "address"
        },
        {
          "internalType": "uint256",
          "name": "amount",
          "type": "uint256"
        }
      ],
      "name": "approve",
      "outputs": [
        {
          "internalType": "bool",
          "name": "",
          "type": "bool"
        }
      ],
      "stateMutability": "nonpayable",
      "type": "function"
    },
    {
      "inputs": [
        {
          "internalType": "address",
          "name": "",
          "type": "address"
        }
      ],
      "name": "balanceOf",
      "outputs": [
        {
          "internalType": "uint256",
          "name": "",
          "type": "uint256"
        }
      ],
      "stateMutability": "view",
      "type": "function"
    },
    {
      "inputs": [
        {
          "internalType": "address",
          "name": "usr",
          "type": "address"
        },
        {
          "internalType": "uint256",
          "name": "amount",
          "type": "uint256"
        }
      ],
      "name": "burn",
      "outputs": [],
      "stateMutability": "nonpayable",
      "type": "function"
    },
    {
      "inputs": [],
      "name": "decimals",
      "outputs": [
        {
          "internalType": "uint8",
          "name": "",
          "type": "uint8"
        }
      ],
      "stateMutability": "view",
      "type": "function"
    },
    {
      "inputs": [
        {
          "internalType": "address",
          "name": "",
          "type": "address"
        }
      ],
      "name": "isTrusted",
      "outputs": [
        {
          "internalType": "bool",
          "name": "",
          "type": "bool"
        }
      ],
      "stateMutability": "view",
      "type": "function"
    },
    {
      "inputs": [
        {
          "internalType": "address",
          "name": "usr",
          "type": "address"
        },
        {
          "internalType": "uint256",
          "name": "amount",
          "type": "uint256"
        }
      ],
      "name": "mint",
      "outputs": [],
      "stateMutability": "nonpayable",
      "type": "function"
    },
    {
      "inputs": [],
      "name": "name",
      "outputs": [
        {
          "internalType": "string",
          "name": "",
          "type": "string"
        }
      ],
      "stateMutability": "view",
      "type": "function"
    },
    {
      "inputs": [
        {
          "internalType": "address",
          "name": "",
          "type": "address"
        }
      ],
      "name": "nonces",
      "outputs": [
        {
          "internalType": "uint256",
          "name": "",
          "type": "uint256"
        }
      ],
      "stateMutability": "view",
      "type": "function"
    },
    {
      "inputs": [
        {
          "internalType": "address",
          "name": "owner",
          "type": "address"
        },
        {
          "internalType": "address",
          "name": "spender",
          "type": "address"
        },
        {
          "internalType": "uint256",
          "name": "value",
          "type": "uint256"
        },
        {
          "internalType": "uint256",
          "name": "deadline",
          "type": "uint256"
        },
        {
          "internalType": "uint8",
          "name": "v",
          "type": "uint8"
        },
        {
          "internalType": "bytes32",
          "name": "r",
          "type": "bytes32"
        },
        {
          "internalType": "bytes32",
          "name": "s",
          "type": "bytes32"
        }
      ],
      "name": "permit",
      "outputs": [],
      "stateMutability": "nonpayable",
      "type": "function"
    },
    {
      "inputs": [
        {
          "internalType": "address",
          "name": "user",
          "type": "address"
        },
        {
          "internalType": "bool",
          "name": "trusted",
          "type": "bool"
        }
      ],
      "name": "setIsTrusted",
      "outputs": [],
      "stateMutability": "nonpayable",
      "type": "function"
    },
    {
      "inputs": [],
      "name": "symbol",
      "outputs": [
        {
          "internalType": "string",
          "name": "",
          "type": "string"
        }
      ],
      "stateMutability": "view",
      "type": "function"
    },
    {
      "inputs": [],
      "name": "totalSupply",
      "outputs": [
        {
          "internalType": "uint256",
          "name": "",
          "type": "uint256"
        }
      ],
      "stateMutability": "view",
      "type": "function"
    },
    {
      "inputs": [
        {
          "internalType": "address",
          "name": "to",
          "type": "address"
        },
        {
          "internalType": "uint256",
          "name": "amount",
          "type": "uint256"
        }
      ],
      "name": "transfer",
      "outputs": [
        {
          "internalType": "bool",
          "name": "",
          "type": "bool"
        }
      ],
      "stateMutability": "nonpayable",
      "type": "function"
    },
    {
      "inputs": [
        {
          "internalType": "address",
          "name": "from",
          "type": "address"
        },
        {
          "internalType": "address",
          "name": "to",
          "type": "address"
        },
        {
          "internalType": "uint256",
          "name": "amount",
          "type": "uint256"
        }
      ],
      "name": "transferFrom",
      "outputs": [
        {
          "internalType": "bool",
          "name": "",
          "type": "bool"
        }
      ],
      "stateMutability": "nonpayable",
      "type": "function"
    }
  ],
  "bytecode": {
    "object": "0x60e06040523480156200001157600080fd5b506040516200151a3803806200151a8339810160408190526200003491620002f6565b8084848482600090805190602001906200005092919062000183565b5081516200006690600190602085019062000183565b5060ff81166080524660a0526200007c620000e7565b60c0525050506001600160a01b038116600081815260066020908152604091829020805460ff1916600190811790915591519182527fe95aec380cae16330d146d5499ef7db6f3657e477104a733e771bc09e500d986910160405180910390a2505050505062000479565b60007f8b73c3c69bb8fe3d512ecc4cf759cc79239f7b179b0ffacaa9a75d522b39400f60006040516200011b9190620003d6565b6040805191829003822060208301939093528101919091527fc89efdaa54c0f20c7adf612882df0950f5a951637e0307cdcb4c672f298b8bc660608201524660808201523060a082015260c00160405160208183030381529060405280519060200120905090565b82805462000191906200039a565b90600052602060002090601f016020900481019282620001b5576000855562000200565b82601f10620001d057805160ff191683800117855562000200565b8280016001018555821562000200579182015b8281111562000200578251825591602001919060010190620001e3565b506200020e92915062000212565b5090565b5b808211156200020e576000815560010162000213565b634e487b7160e01b600052604160045260246000fd5b600082601f8301126200025157600080fd5b81516001600160401b03808211156200026e576200026e62000229565b604051601f8301601f19908116603f0116810190828211818310171562000299576200029962000229565b81604052838152602092508683858801011115620002b657600080fd5b600091505b83821015620002da5785820183015181830184015290820190620002bb565b83821115620002ec5760008385830101525b9695505050505050565b600080600080608085870312156200030d57600080fd5b84516001600160401b03808211156200032557600080fd5b62000333888389016200023f565b955060208701519150808211156200034a57600080fd5b5062000359878288016200023f565b935050604085015160ff811681146200037157600080fd5b60608601519092506001600160a01b03811681146200038f57600080fd5b939692955090935050565b600181811c90821680620003af57607f821691505b602082108103620003d057634e487b7160e01b600052602260045260246000fd5b50919050565b600080835481600182811c915080831680620003f357607f831692505b602080841082036200041357634e487b7160e01b86526022600452602486fd5b8180156200042a57600181146200043c576200046b565b60ff198616895284890196506200046b565b60008a81526020902060005b86811015620004635781548b82015290850190830162000448565b505084890196505b509498975050505050505050565b60805160a05160c051611071620004a96000396000610634015260006105ff0152600061018a01526110716000f3fe608060405234801561001057600080fd5b50600436106101005760003560e01c806370a08231116100975780639dc29fac116100665780639dc29fac14610244578063a9059cbb14610257578063d505accf1461026a578063dd62ed3e1461027d57600080fd5b806370a08231146101d95780637ecebe00146101f957806395d89b411461021957806396d648791461022157600080fd5b806323b872dd116100d357806323b872dd14610172578063313ce567146101855780633644e515146101be57806340c10f19146101c657600080fd5b806306fdde0314610105578063095ea7b3146101235780631393916a1461014657806318160ddd1461015b575b600080fd5b61010d6102a8565b60405161011a9190610cb2565b60405180910390f35b610136610131366004610d4e565b610336565b604051901515815260200161011a565b610159610154366004610d78565b6103af565b005b61016460025481565b60405190815260200161011a565b610136610180366004610db4565b6104b7565b6101ac7f000000000000000000000000000000000000000000000000000000000000000081565b60405160ff909116815260200161011a565b6101646105fb565b6101596101d4366004610d4e565b610656565b6101646101e7366004610df0565b60036020526000908152604090205481565b610164610207366004610df0565b60056020526000908152604090205481565b61010d6106dd565b61013661022f366004610df0565b60066020526000908152604090205460ff1681565b610159610252366004610d4e565b6106ea565b610136610265366004610d4e565b61076d565b610159610278366004610e12565b6107f2565b61016461028b366004610e85565b600460209081526000928352604080842090915290825290205481565b600080546102b590610eb8565b80601f01602080910402602001604051908101604052809291908181526020018280546102e190610eb8565b801561032e5780601f106103035761010080835404028352916020019161032e565b820191906000526020600020905b81548152906001019060200180831161031157829003601f168201915b505050505081565b33600081815260046020908152604080832073ffffffffffffffffffffffffffffffffffffffff8716808552925280832085905551919290917f8c5be1e5ebec7d5bd14f71427d1e84f3dd0314c0f7b2291e5b200ac8c7c3b9259061039e9086815260200190565b60405180910390a350600192915050565b3360009081526006602052604090205460ff1661042d576040517f08c379a000000000000000000000000000000000000000000000000000000000815260206004820152600960248201527f554e54525553544544000000000000000000000000000000000000000000000060448201526064015b60405180910390fd5b73ffffffffffffffffffffffffffffffffffffffff821660008181526006602090815260409182902080547fffffffffffffffffffffffffffffffffffffffffffffffffffffffffffffff001685151590811790915591519182527fe95aec380cae16330d146d5499ef7db6f3657e477104a733e771bc09e500d986910160405180910390a25050565b73ffffffffffffffffffffffffffffffffffffffff831660009081526004602090815260408083203384529091528120547fffffffffffffffffffffffffffffffffffffffffffffffffffffffffffffffff811461054b576105198382610f3a565b73ffffffffffffffffffffffffffffffffffffffff861660009081526004602090815260408083203384529091529020555b73ffffffffffffffffffffffffffffffffffffffff851660009081526003602052604081208054859290610580908490610f3a565b909155505073ffffffffffffffffffffffffffffffffffffffff808516600081815260036020526040908190208054870190555190918716907fddf252ad1be2c89b69c2b068fc378daa952ba7f163c4a11628f55a4df523b3ef906105e89087815260200190565b60405180910390a3506001949350505050565b60007f000000000000000000000000000000000000000000000000000000000000000046146106315761062c610b11565b905090565b507f000000000000000000000000000000000000000000000000000000000000000090565b3360009081526006602052604090205460ff166106cf576040517f08c379a000000000000000000000000000000000000000000000000000000000815260206004820152600960248201527f554e5452555354454400000000000000000000000000000000000000000000006044820152606401610424565b6106d98282610bab565b5050565b600180546102b590610eb8565b3360009081526006602052604090205460ff16610763576040517f08c379a000000000000000000000000000000000000000000000000000000000815260206004820152600960248201527f554e5452555354454400000000000000000000000000000000000000000000006044820152606401610424565b6106d98282610c24565b3360009081526003602052604081208054839190839061078e908490610f3a565b909155505073ffffffffffffffffffffffffffffffffffffffff8316600081815260036020526040908190208054850190555133907fddf252ad1be2c89b69c2b068fc378daa952ba7f163c4a11628f55a4df523b3ef9061039e9086815260200190565b4284101561085c576040517f08c379a000000000000000000000000000000000000000000000000000000000815260206004820152601760248201527f5045524d49545f444541444c494e455f455850495245440000000000000000006044820152606401610424565b600060016108686105fb565b73ffffffffffffffffffffffffffffffffffffffff8a811660008181526005602090815260409182902080546001810190915582517f6e71edae12b1b97f4d1f60370fef10105fa2faae0126114a169c64845d6126c98184015280840194909452938d166060840152608083018c905260a083019390935260c08083018b90528151808403909101815260e0830190915280519201919091207f190100000000000000000000000000000000000000000000000000000000000061010083015261010282019290925261012281019190915261014201604080517fffffffffffffffffffffffffffffffffffffffffffffffffffffffffffffffe08184030181528282528051602091820120600084529083018083525260ff871690820152606081018590526080810184905260a0016020604051602081039080840390855afa1580156109ba573d6000803e3d6000fd5b50506040517fffffffffffffffffffffffffffffffffffffffffffffffffffffffffffffffe0015191505073ffffffffffffffffffffffffffffffffffffffff811615801590610a3557508773ffffffffffffffffffffffffffffffffffffffff168173ffffffffffffffffffffffffffffffffffffffff16145b610a9b576040517f08c379a000000000000000000000000000000000000000000000000000000000815260206004820152600e60248201527f494e56414c49445f5349474e45520000000000000000000000000000000000006044820152606401610424565b73ffffffffffffffffffffffffffffffffffffffff90811660009081526004602090815260408083208a8516808552908352928190208990555188815291928a16917f8c5be1e5ebec7d5bd14f71427d1e84f3dd0314c0f7b2291e5b200ac8c7c3b925910160405180910390a350505050505050565b60007f8b73c3c69bb8fe3d512ecc4cf759cc79239f7b179b0ffacaa9a75d522b39400f6000604051610b439190610f51565b6040805191829003822060208301939093528101919091527fc89efdaa54c0f20c7adf612882df0950f5a951637e0307cdcb4c672f298b8bc660608201524660808201523060a082015260c00160405160208183030381529060405280519060200120905090565b8060026000828254610bbd9190611023565b909155505073ffffffffffffffffffffffffffffffffffffffff82166000818152600360209081526040808320805486019055518481527fddf252ad1be2c89b69c2b068fc378daa952ba7f163c4a11628f55a4df523b3ef91015b60405180910390a35050565b73ffffffffffffffffffffffffffffffffffffffff821660009081526003602052604081208054839290610c59908490610f3a565b909155505060028054829003905560405181815260009073ffffffffffffffffffffffffffffffffffffffff8416907fddf252ad1be2c89b69c2b068fc378daa952ba7f163c4a11628f55a4df523b3ef90602001610c18565b600060208083528351808285015260005b81811015610cdf57858101830151858201604001528201610cc3565b81811115610cf1576000604083870101525b50601f017fffffffffffffffffffffffffffffffffffffffffffffffffffffffffffffffe016929092016040019392505050565b803573ffffffffffffffffffffffffffffffffffffffff81168114610d4957600080fd5b919050565b60008060408385031215610d6157600080fd5b610d6a83610d25565b946020939093013593505050565b60008060408385031215610d8b57600080fd5b610d9483610d25565b915060208301358015158114610da957600080fd5b809150509250929050565b600080600060608486031215610dc957600080fd5b610dd284610d25565b9250610de060208501610d25565b9150604084013590509250925092565b600060208284031215610e0257600080fd5b610e0b82610d25565b9392505050565b600080600080600080600060e0888a031215610e2d57600080fd5b610e3688610d25565b9650610e4460208901610d25565b95506040880135945060608801359350608088013560ff81168114610e6857600080fd5b9699959850939692959460a0840135945060c09093013592915050565b60008060408385031215610e9857600080fd5b610ea183610d25565b9150610eaf60208401610d25565b90509250929050565b600181811c90821680610ecc57607f821691505b602082108103610f05577f4e487b7100000000000000000000000000000000000000000000000000000000600052602260045260246000fd5b50919050565b7f4e487b7100000000000000000000000000000000000000000000000000000000600052601160045260246000fd5b600082821015610f4c57610f4c610f0b565b500390565b600080835481600182811c915080831680610f6d57607f831692505b60208084108203610fa5577f4e487b710000000000000000000000000000000000000000000000000000000086526022600452602486fd5b818015610fb95760018114610fe857611015565b7fffffffffffffffffffffffffffffffffffffffffffffffffffffffffffffff00861689528489019650611015565b60008a81526020902060005b8681101561100d5781548b820152908501908301610ff4565b505084890196505b509498975050505050505050565b6000821982111561103657611036610f0b565b50019056fea26469706673582212205030a44e234b6fe9a8134200d2d7c91c5ec82c12ed9025a46ca767ab26d7db0364736f6c634300080d0033",
    "linkReferences": {}
  },
  "methodIdentifiers": {
    "DOMAIN_SEPARATOR()": "3644e515",
    "allowance(address,address)": "dd62ed3e",
    "approve(address,uint256)": "095ea7b3",
    "balanceOf(address)": "70a08231",
    "burn(address,uint256)": "9dc29fac",
    "decimals()": "313ce567",
    "isTrusted(address)": "96d64879",
    "mint(address,uint256)": "40c10f19",
    "name()": "06fdde03",
    "nonces(address)": "7ecebe00",
    "permit(address,address,uint256,uint256,uint8,bytes32,bytes32)": "d505accf",
    "setIsTrusted(address,bool)": "1393916a",
    "symbol()": "95d89b41",
    "totalSupply()": "18160ddd",
    "transfer(address,uint256)": "a9059cbb",
    "transferFrom(address,address,uint256)": "23b872dd"
  },
  "id": 17
}