{
  "abi": [
    {
      "inputs": [
        {
          "internalType": "address",
          "name": "_adapter",
          "type": "address"
        },
        {
          "internalType": "uint256",
          "name": "_maturity",
          "type": "uint256"
        },
        {
          "internalType": "string",
          "name": "_name",
          "type": "string"
        },
        {
          "internalType": "string",
          "name": "_symbol",
          "type": "string"
        },
        {
          "internalType": "uint8",
          "name": "_decimals",
          "type": "uint8"
        },
        {
          "internalType": "address",
          "name": "_divider",
          "type": "address"
        }
      ],
      "stateMutability": "nonpayable",
      "type": "constructor"
    },
    {
      "anonymous": false,
      "inputs": [
        {
          "indexed": true,
          "internalType": "address",
          "name": "owner",
          "type": "address"
        },
        {
          "indexed": true,
          "internalType": "address",
          "name": "spender",
          "type": "address"
        },
        {
          "indexed": false,
          "internalType": "uint256",
          "name": "amount",
          "type": "uint256"
        }
      ],
      "name": "Approval",
      "type": "event"
    },
    {
      "anonymous": false,
      "inputs": [
        {
          "indexed": true,
          "internalType": "address",
          "name": "from",
          "type": "address"
        },
        {
          "indexed": true,
          "internalType": "address",
          "name": "to",
          "type": "address"
        },
        {
          "indexed": false,
          "internalType": "uint256",
          "name": "amount",
          "type": "uint256"
        }
      ],
      "name": "Transfer",
      "type": "event"
    },
    {
      "anonymous": false,
      "inputs": [
        {
          "indexed": true,
          "internalType": "address",
          "name": "user",
          "type": "address"
        },
        {
          "indexed": false,
          "internalType": "bool",
          "name": "trusted",
          "type": "bool"
        }
      ],
      "name": "UserTrustUpdated",
      "type": "event"
    },
    {
      "inputs": [],
      "name": "DOMAIN_SEPARATOR",
      "outputs": [
        {
          "internalType": "bytes32",
          "name": "",
          "type": "bytes32"
        }
      ],
      "stateMutability": "view",
      "type": "function"
    },
    {
      "inputs": [],
      "name": "adapter",
      "outputs": [
        {
          "internalType": "address",
          "name": "",
          "type": "address"
        }
      ],
      "stateMutability": "view",
      "type": "function"
    },
    {
      "inputs": [
        {
          "internalType": "address",
          "name": "",
          "type": "address"
        },
        {
          "internalType": "address",
          "name": "",
          "type": "address"
        }
      ],
      "name": "allowance",
      "outputs": [
        {
          "internalType": "uint256",
          "name": "",
          "type": "uint256"
        }
      ],
      "stateMutability": "view",
      "type": "function"
    },
    {
      "inputs": [
        {
          "internalType": "address",
          "name": "spender",
          "type": "address"
        },
        {
          "internalType": "uint256",
          "name": "amount",
          "type": "uint256"
        }
      ],
      "name": "approve",
      "outputs": [
        {
          "internalType": "bool",
          "name": "",
          "type": "bool"
        }
      ],
      "stateMutability": "nonpayable",
      "type": "function"
    },
    {
      "inputs": [
        {
          "internalType": "address",
          "name": "",
          "type": "address"
        }
      ],
      "name": "balanceOf",
      "outputs": [
        {
          "internalType": "uint256",
          "name": "",
          "type": "uint256"
        }
      ],
      "stateMutability": "view",
      "type": "function"
    },
    {
      "inputs": [
        {
          "internalType": "address",
          "name": "usr",
          "type": "address"
        },
        {
          "internalType": "uint256",
          "name": "amount",
          "type": "uint256"
        }
      ],
      "name": "burn",
      "outputs": [],
      "stateMutability": "nonpayable",
      "type": "function"
    },
    {
      "inputs": [],
      "name": "collect",
      "outputs": [
        {
          "internalType": "uint256",
          "name": "_collected",
          "type": "uint256"
        }
      ],
      "stateMutability": "nonpayable",
      "type": "function"
    },
    {
      "inputs": [],
      "name": "decimals",
      "outputs": [
        {
          "internalType": "uint8",
          "name": "",
          "type": "uint8"
        }
      ],
      "stateMutability": "view",
      "type": "function"
    },
    {
      "inputs": [],
      "name": "divider",
      "outputs": [
        {
          "internalType": "address",
          "name": "",
          "type": "address"
        }
      ],
      "stateMutability": "view",
      "type": "function"
    },
    {
      "inputs": [
        {
          "internalType": "address",
          "name": "",
          "type": "address"
        }
      ],
      "name": "isTrusted",
      "outputs": [
        {
          "internalType": "bool",
          "name": "",
          "type": "bool"
        }
      ],
      "stateMutability": "view",
      "type": "function"
    },
    {
      "inputs": [],
      "name": "maturity",
      "outputs": [
        {
          "internalType": "uint256",
          "name": "",
          "type": "uint256"
        }
      ],
      "stateMutability": "view",
      "type": "function"
    },
    {
      "inputs": [
        {
          "internalType": "address",
          "name": "usr",
          "type": "address"
        },
        {
          "internalType": "uint256",
          "name": "amount",
          "type": "uint256"
        }
      ],
      "name": "mint",
      "outputs": [],
      "stateMutability": "nonpayable",
      "type": "function"
    },
    {
      "inputs": [],
      "name": "name",
      "outputs": [
        {
          "internalType": "string",
          "name": "",
          "type": "string"
        }
      ],
      "stateMutability": "view",
      "type": "function"
    },
    {
      "inputs": [
        {
          "internalType": "address",
          "name": "",
          "type": "address"
        }
      ],
      "name": "nonces",
      "outputs": [
        {
          "internalType": "uint256",
          "name": "",
          "type": "uint256"
        }
      ],
      "stateMutability": "view",
      "type": "function"
    },
    {
      "inputs": [
        {
          "internalType": "address",
          "name": "owner",
          "type": "address"
        },
        {
          "internalType": "address",
          "name": "spender",
          "type": "address"
        },
        {
          "internalType": "uint256",
          "name": "value",
          "type": "uint256"
        },
        {
          "internalType": "uint256",
          "name": "deadline",
          "type": "uint256"
        },
        {
          "internalType": "uint8",
          "name": "v",
          "type": "uint8"
        },
        {
          "internalType": "bytes32",
          "name": "r",
          "type": "bytes32"
        },
        {
          "internalType": "bytes32",
          "name": "s",
          "type": "bytes32"
        }
      ],
      "name": "permit",
      "outputs": [],
      "stateMutability": "nonpayable",
      "type": "function"
    },
    {
      "inputs": [
        {
          "internalType": "address",
          "name": "user",
          "type": "address"
        },
        {
          "internalType": "bool",
          "name": "trusted",
          "type": "bool"
        }
      ],
      "name": "setIsTrusted",
      "outputs": [],
      "stateMutability": "nonpayable",
      "type": "function"
    },
    {
      "inputs": [],
      "name": "symbol",
      "outputs": [
        {
          "internalType": "string",
          "name": "",
          "type": "string"
        }
      ],
      "stateMutability": "view",
      "type": "function"
    },
    {
      "inputs": [],
      "name": "totalSupply",
      "outputs": [
        {
          "internalType": "uint256",
          "name": "",
          "type": "uint256"
        }
      ],
      "stateMutability": "view",
      "type": "function"
    },
    {
      "inputs": [
        {
          "internalType": "address",
          "name": "to",
          "type": "address"
        },
        {
          "internalType": "uint256",
          "name": "value",
          "type": "uint256"
        }
      ],
      "name": "transfer",
      "outputs": [
        {
          "internalType": "bool",
          "name": "",
          "type": "bool"
        }
      ],
      "stateMutability": "nonpayable",
      "type": "function"
    },
    {
      "inputs": [
        {
          "internalType": "address",
          "name": "from",
          "type": "address"
        },
        {
          "internalType": "address",
          "name": "to",
          "type": "address"
        },
        {
          "internalType": "uint256",
          "name": "value",
          "type": "uint256"
        }
      ],
      "name": "transferFrom",
      "outputs": [
        {
          "internalType": "bool",
          "name": "",
          "type": "bool"
        }
      ],
      "stateMutability": "nonpayable",
      "type": "function"
    }
  ],
  "bytecode": {
    "object": "0x6101406040523480156200001257600080fd5b5060405162001a4338038062001a43833981016040819052620000359162000335565b8383838380848484826000908051906020019062000055929190620001a5565b5081516200006b906001906020850190620001a5565b5060ff81166080524660a0526200008162000109565b60c0525050506001600160a01b038116600081815260066020908152604091829020805460ff1916600190811790915591519182527fe95aec380cae16330d146d5499ef7db6f3657e477104a733e771bc09e500d986910160405180910390a25050506001600160a01b0397881660e0525050610120949094525050501661010052620004c6565b60007f8b73c3c69bb8fe3d512ecc4cf759cc79239f7b179b0ffacaa9a75d522b39400f60006040516200013d919062000423565b6040805191829003822060208301939093528101919091527fc89efdaa54c0f20c7adf612882df0950f5a951637e0307cdcb4c672f298b8bc660608201524660808201523060a082015260c00160405160208183030381529060405280519060200120905090565b828054620001b390620003e7565b90600052602060002090601f016020900481019282620001d7576000855562000222565b82601f10620001f257805160ff191683800117855562000222565b8280016001018555821562000222579182015b828111156200022257825182559160200191906001019062000205565b506200023092915062000234565b5090565b5b8082111562000230576000815560010162000235565b80516001600160a01b03811681146200026357600080fd5b919050565b634e487b7160e01b600052604160045260246000fd5b600082601f8301126200029057600080fd5b81516001600160401b0380821115620002ad57620002ad62000268565b604051601f8301601f19908116603f01168101908282118183101715620002d857620002d862000268565b81604052838152602092508683858801011115620002f557600080fd5b600091505b83821015620003195785820183015181830184015290820190620002fa565b838211156200032b5760008385830101525b9695505050505050565b60008060008060008060c087890312156200034f57600080fd5b6200035a876200024b565b6020880151604089015191975095506001600160401b03808211156200037f57600080fd5b6200038d8a838b016200027e565b95506060890151915080821115620003a457600080fd5b50620003b389828a016200027e565b935050608087015160ff81168114620003cb57600080fd5b9150620003db60a088016200024b565b90509295509295509295565b600181811c90821680620003fc57607f821691505b6020821081036200041d57634e487b7160e01b600052602260045260246000fd5b50919050565b600080835481600182811c9150808316806200044057607f831692505b602080841082036200046057634e487b7160e01b86526022600452602486fd5b8180156200047757600181146200048957620004b8565b60ff19861689528489019650620004b8565b60008a81526020902060005b86811015620004b05781548b82015290850190830162000495565b505084890196505b509498975050505050505050565b60805160a05160c05160e05161010051610120516114ee620005556000396000818161022b01528181610636015281816108ca0152610d0d0152600081816102a60152818161066b015281816109020152610d440152600081816101760152818161060e015281816108a20152610ce501526000610726015260006106f10152600061026501526114ee6000f3fe608060405234801561001057600080fd5b506004361061016c5760003560e01c806340c10f19116100cd5780639dc29fac11610081578063d505accf11610066578063d505accf1461036c578063dd62ed3e1461037f578063e5225381146103aa57600080fd5b80639dc29fac14610346578063a9059cbb1461035957600080fd5b80637ecebe00116100b25780637ecebe00146102fb57806395d89b411461031b57806396d648791461032357600080fd5b806340c10f19146102c857806370a08231146102db57600080fd5b8063204f83f911610124578063313ce56711610109578063313ce567146102605780633644e51514610299578063378efa37146102a157600080fd5b8063204f83f91461022657806323b872dd1461024d57600080fd5b8063095ea7b311610155578063095ea7b3146101d75780631393916a146101fa57806318160ddd1461020f57600080fd5b806303eadcfc1461017157806306fdde03146101c2575b600080fd5b6101987f000000000000000000000000000000000000000000000000000000000000000081565b60405173ffffffffffffffffffffffffffffffffffffffff90911681526020015b60405180910390f35b6101ca6103b2565b6040516101b9919061111d565b6101ea6101e53660046111b9565b610440565b60405190151581526020016101b9565b61020d6102083660046111e3565b6104b9565b005b61021860025481565b6040519081526020016101b9565b6102187f000000000000000000000000000000000000000000000000000000000000000081565b6101ea61025b36600461121f565b6105c1565b6102877f000000000000000000000000000000000000000000000000000000000000000081565b60405160ff90911681526020016101b9565b6102186106ed565b6101987f000000000000000000000000000000000000000000000000000000000000000081565b61020d6102d63660046111b9565b610748565b6102186102e936600461125b565b60036020526000908152604090205481565b61021861030936600461125b565b60056020526000908152604090205481565b6101ca6107cf565b6101ea61033136600461125b565b60066020526000908152604090205460ff1681565b61020d6103543660046111b9565b6107dc565b6101ea6103673660046111b9565b61085f565b61020d61037a366004611276565b610983565b61021861038d3660046112e9565b600460209081526000928352604080842090915290825290205481565b610218610ca2565b600080546103bf9061131c565b80601f01602080910402602001604051908101604052809291908181526020018280546103eb9061131c565b80156104385780601f1061040d57610100808354040283529160200191610438565b820191906000526020600020905b81548152906001019060200180831161041b57829003601f168201915b505050505081565b33600081815260046020908152604080832073ffffffffffffffffffffffffffffffffffffffff8716808552925280832085905551919290917f8c5be1e5ebec7d5bd14f71427d1e84f3dd0314c0f7b2291e5b200ac8c7c3b925906104a89086815260200190565b60405180910390a350600192915050565b3360009081526006602052604090205460ff16610537576040517f08c379a000000000000000000000000000000000000000000000000000000000815260206004820152600960248201527f554e54525553544544000000000000000000000000000000000000000000000060448201526064015b60405180910390fd5b73ffffffffffffffffffffffffffffffffffffffff821660008181526006602090815260409182902080547fffffffffffffffffffffffffffffffffffffffffffffffffffffffffffffff001685151590811790915591519182527fe95aec380cae16330d146d5499ef7db6f3657e477104a733e771bc09e500d986910160405180910390a25050565b600081156106da576040517fa131ad7400000000000000000000000000000000000000000000000000000000815273ffffffffffffffffffffffffffffffffffffffff85811660048301527f0000000000000000000000000000000000000000000000000000000000000000811660248301527f000000000000000000000000000000000000000000000000000000000000000060448301526064820184905284811660848301527f0000000000000000000000000000000000000000000000000000000000000000169063a131ad749060a4016020604051808303816000875af11580156106b4573d6000803e3d6000fd5b505050506040513d601f19601f820116820180604052508101906106d8919061136f565b505b6106e5848484610db3565b949350505050565b60007f000000000000000000000000000000000000000000000000000000000000000046146107235761071e610ef7565b905090565b507f000000000000000000000000000000000000000000000000000000000000000090565b3360009081526006602052604090205460ff166107c1576040517f08c379a000000000000000000000000000000000000000000000000000000000815260206004820152600960248201527f554e545255535445440000000000000000000000000000000000000000000000604482015260640161052e565b6107cb8282610f91565b5050565b600180546103bf9061131c565b3360009081526006602052604090205460ff16610855576040517f08c379a000000000000000000000000000000000000000000000000000000000815260206004820152600960248201527f554e545255535445440000000000000000000000000000000000000000000000604482015260640161052e565b6107cb828261100a565b6040517fa131ad7400000000000000000000000000000000000000000000000000000000815233600482015273ffffffffffffffffffffffffffffffffffffffff7f0000000000000000000000000000000000000000000000000000000000000000811660248301527f000000000000000000000000000000000000000000000000000000000000000060448301526064820183905283811660848301526000917f00000000000000000000000000000000000000000000000000000000000000009091169063a131ad749060a4016020604051808303816000875af115801561094d573d6000803e3d6000fd5b505050506040513d601f19601f82011682018060405250810190610971919061136f565b5061097c8383611098565b9392505050565b428410156109ed576040517f08c379a000000000000000000000000000000000000000000000000000000000815260206004820152601760248201527f5045524d49545f444541444c494e455f45585049524544000000000000000000604482015260640161052e565b600060016109f96106ed565b73ffffffffffffffffffffffffffffffffffffffff8a811660008181526005602090815260409182902080546001810190915582517f6e71edae12b1b97f4d1f60370fef10105fa2faae0126114a169c64845d6126c98184015280840194909452938d166060840152608083018c905260a083019390935260c08083018b90528151808403909101815260e0830190915280519201919091207f190100000000000000000000000000000000000000000000000000000000000061010083015261010282019290925261012281019190915261014201604080517fffffffffffffffffffffffffffffffffffffffffffffffffffffffffffffffe08184030181528282528051602091820120600084529083018083525260ff871690820152606081018590526080810184905260a0016020604051602081039080840390855afa158015610b4b573d6000803e3d6000fd5b50506040517fffffffffffffffffffffffffffffffffffffffffffffffffffffffffffffffe0015191505073ffffffffffffffffffffffffffffffffffffffff811615801590610bc657508773ffffffffffffffffffffffffffffffffffffffff168173ffffffffffffffffffffffffffffffffffffffff16145b610c2c576040517f08c379a000000000000000000000000000000000000000000000000000000000815260206004820152600e60248201527f494e56414c49445f5349474e4552000000000000000000000000000000000000604482015260640161052e565b73ffffffffffffffffffffffffffffffffffffffff90811660009081526004602090815260408083208a8516808552908352928190208990555188815291928a16917f8c5be1e5ebec7d5bd14f71427d1e84f3dd0314c0f7b2291e5b200ac8c7c3b925910160405180910390a350505050505050565b6040517fa131ad7400000000000000000000000000000000000000000000000000000000815233600482015273ffffffffffffffffffffffffffffffffffffffff7f0000000000000000000000000000000000000000000000000000000000000000811660248301527f0000000000000000000000000000000000000000000000000000000000000000604483015260006064830181905260848301819052917f00000000000000000000000000000000000000000000000000000000000000009091169063a131ad749060a4016020604051808303816000875af1158015610d8f573d6000803e3d6000fd5b505050506040513d601f19601f8201168201806040525081019061071e919061136f565b73ffffffffffffffffffffffffffffffffffffffff831660009081526004602090815260408083203384529091528120547fffffffffffffffffffffffffffffffffffffffffffffffffffffffffffffffff8114610e4757610e1583826113b7565b73ffffffffffffffffffffffffffffffffffffffff861660009081526004602090815260408083203384529091529020555b73ffffffffffffffffffffffffffffffffffffffff851660009081526003602052604081208054859290610e7c9084906113b7565b909155505073ffffffffffffffffffffffffffffffffffffffff808516600081815260036020526040908190208054870190555190918716907fddf252ad1be2c89b69c2b068fc378daa952ba7f163c4a11628f55a4df523b3ef90610ee49087815260200190565b60405180910390a3506001949350505050565b60007f8b73c3c69bb8fe3d512ecc4cf759cc79239f7b179b0ffacaa9a75d522b39400f6000604051610f2991906113ce565b6040805191829003822060208301939093528101919091527fc89efdaa54c0f20c7adf612882df0950f5a951637e0307cdcb4c672f298b8bc660608201524660808201523060a082015260c00160405160208183030381529060405280519060200120905090565b8060026000828254610fa391906114a0565b909155505073ffffffffffffffffffffffffffffffffffffffff82166000818152600360209081526040808320805486019055518481527fddf252ad1be2c89b69c2b068fc378daa952ba7f163c4a11628f55a4df523b3ef91015b60405180910390a35050565b73ffffffffffffffffffffffffffffffffffffffff82166000908152600360205260408120805483929061103f9084906113b7565b909155505060028054829003905560405181815260009073ffffffffffffffffffffffffffffffffffffffff8416907fddf252ad1be2c89b69c2b068fc378daa952ba7f163c4a11628f55a4df523b3ef90602001610ffe565b336000908152600360205260408120805483919083906110b99084906113b7565b909155505073ffffffffffffffffffffffffffffffffffffffff8316600081815260036020526040908190208054850190555133907fddf252ad1be2c89b69c2b068fc378daa952ba7f163c4a11628f55a4df523b3ef906104a89086815260200190565b600060208083528351808285015260005b8181101561114a5785810183015185820160400152820161112e565b8181111561115c576000604083870101525b50601f017fffffffffffffffffffffffffffffffffffffffffffffffffffffffffffffffe016929092016040019392505050565b803573ffffffffffffffffffffffffffffffffffffffff811681146111b457600080fd5b919050565b600080604083850312156111cc57600080fd5b6111d583611190565b946020939093013593505050565b600080604083850312156111f657600080fd5b6111ff83611190565b91506020830135801515811461121457600080fd5b809150509250929050565b60008060006060848603121561123457600080fd5b61123d84611190565b925061124b60208501611190565b9150604084013590509250925092565b60006020828403121561126d57600080fd5b61097c82611190565b600080600080600080600060e0888a03121561129157600080fd5b61129a88611190565b96506112a860208901611190565b95506040880135945060608801359350608088013560ff811681146112cc57600080fd5b9699959850939692959460a0840135945060c09093013592915050565b600080604083850312156112fc57600080fd5b61130583611190565b915061131360208401611190565b90509250929050565b600181811c9082168061133057607f821691505b602082108103611369577f4e487b7100000000000000000000000000000000000000000000000000000000600052602260045260246000fd5b50919050565b60006020828403121561138157600080fd5b5051919050565b7f4e487b7100000000000000000000000000000000000000000000000000000000600052601160045260246000fd5b6000828210156113c9576113c9611388565b500390565b600080835481600182811c9150808316806113ea57607f831692505b60208084108203611422577f4e487b710000000000000000000000000000000000000000000000000000000086526022600452602486fd5b818015611436576001811461146557611492565b7fffffffffffffffffffffffffffffffffffffffffffffffffffffffffffffff00861689528489019650611492565b60008a81526020902060005b8681101561148a5781548b820152908501908301611471565b505084890196505b509498975050505050505050565b600082198211156114b3576114b3611388565b50019056fea264697066735822122068ddb446e0172047cc641b21bd293495389bf36d5752715f6c1ff56a85402fe064736f6c634300080d0033",
    "linkReferences": {}
  },
  "methodIdentifiers": {
    "DOMAIN_SEPARATOR()": "3644e515",
    "adapter()": "03eadcfc",
    "allowance(address,address)": "dd62ed3e",
    "approve(address,uint256)": "095ea7b3",
    "balanceOf(address)": "70a08231",
    "burn(address,uint256)": "9dc29fac",
    "collect()": "e5225381",
    "decimals()": "313ce567",
    "divider()": "378efa37",
    "isTrusted(address)": "96d64879",
    "maturity()": "204f83f9",
    "mint(address,uint256)": "40c10f19",
    "name()": "06fdde03",
    "nonces(address)": "7ecebe00",
    "permit(address,address,uint256,uint256,uint8,bytes32,bytes32)": "d505accf",
    "setIsTrusted(address,bool)": "1393916a",
    "symbol()": "95d89b41",
    "totalSupply()": "18160ddd",
    "transfer(address,uint256)": "a9059cbb",
    "transferFrom(address,address,uint256)": "23b872dd"
  },
  "id": 75
}