{
  "abi": [
    {
      "inputs": [
        {
          "internalType": "address",
          "name": "_divider",
          "type": "address"
        },
        {
          "internalType": "address",
          "name": "_poolManager",
          "type": "address"
        },
        {
          "internalType": "address",
          "name": "_spaceFactory",
          "type": "address"
        },
        {
          "internalType": "address",
          "name": "_balancerVault",
          "type": "address"
        }
      ],
      "stateMutability": "nonpayable",
      "type": "constructor"
    },
    {
      "inputs": [],
      "name": "ExistingValue",
      "type": "error"
    },
    {
      "inputs": [],
      "name": "FactoryNotSupported",
      "type": "error"
    },
    {
      "inputs": [],
      "name": "FlashBorrowFailed",
      "type": "error"
    },
    {
      "inputs": [],
      "name": "FlashUntrustedBorrower",
      "type": "error"
    },
    {
      "inputs": [],
      "name": "FlashUntrustedLoanInitiator",
      "type": "error"
    },
    {
      "inputs": [],
      "name": "OnlyPermissionless",
      "type": "error"
    },
    {
      "inputs": [],
      "name": "SwapTooSmall",
      "type": "error"
    },
    {
      "inputs": [],
      "name": "TargetMismatch",
      "type": "error"
    },
    {
      "anonymous": false,
      "inputs": [
        {
          "indexed": true,
          "internalType": "address",
          "name": "adapter",
          "type": "address"
        }
      ],
      "name": "AdapterDeployed",
      "type": "event"
    },
    {
      "anonymous": false,
      "inputs": [
        {
          "indexed": true,
          "internalType": "address",
          "name": "adapter",
          "type": "address"
        }
      ],
      "name": "AdapterOnboarded",
      "type": "event"
    },
    {
      "anonymous": false,
      "inputs": [
        {
          "indexed": true,
          "internalType": "address",
          "name": "adapter",
          "type": "address"
        }
      ],
      "name": "AdapterVerified",
      "type": "event"
    },
    {
      "anonymous": false,
      "inputs": [
        {
          "indexed": true,
          "internalType": "address",
          "name": "factory",
          "type": "address"
        },
        {
          "indexed": true,
          "internalType": "bool",
          "name": "isOn",
          "type": "bool"
        }
      ],
      "name": "FactoryChanged",
      "type": "event"
    },
    {
      "anonymous": false,
      "inputs": [
        {
          "indexed": false,
          "internalType": "address",
          "name": "oldPoolManager",
          "type": "address"
        },
        {
          "indexed": false,
          "internalType": "address",
          "name": "newPoolManager",
          "type": "address"
        }
      ],
      "name": "PoolManagerChanged",
      "type": "event"
    },
    {
      "anonymous": false,
      "inputs": [
        {
          "indexed": true,
          "internalType": "address",
          "name": "adapter",
          "type": "address"
        },
        {
          "indexed": true,
          "internalType": "uint256",
          "name": "maturity",
          "type": "uint256"
        },
        {
          "indexed": true,
          "internalType": "address",
          "name": "sponsor",
          "type": "address"
        }
      ],
      "name": "SeriesSponsored",
      "type": "event"
    },
    {
      "anonymous": false,
      "inputs": [
        {
          "indexed": false,
          "internalType": "address",
          "name": "oldSpaceFactory",
          "type": "address"
        },
        {
          "indexed": false,
          "internalType": "address",
          "name": "newSpaceFactory",
          "type": "address"
        }
      ],
      "name": "SpaceFactoryChanged",
      "type": "event"
    },
    {
      "anonymous": false,
      "inputs": [
        {
          "indexed": true,
          "internalType": "address",
          "name": "sender",
          "type": "address"
        },
        {
          "indexed": true,
          "internalType": "bytes32",
          "name": "poolId",
          "type": "bytes32"
        },
        {
          "indexed": false,
          "internalType": "address",
          "name": "assetIn",
          "type": "address"
        },
        {
          "indexed": false,
          "internalType": "address",
          "name": "assetOut",
          "type": "address"
        },
        {
          "indexed": false,
          "internalType": "uint256",
          "name": "amountIn",
          "type": "uint256"
        },
        {
          "indexed": false,
          "internalType": "uint256",
          "name": "amountOut",
          "type": "uint256"
        },
        {
          "indexed": true,
          "internalType": "bytes4",
          "name": "sig",
          "type": "bytes4"
        }
      ],
      "name": "Swapped",
      "type": "event"
    },
    {
      "anonymous": false,
      "inputs": [
        {
          "indexed": true,
          "internalType": "address",
          "name": "user",
          "type": "address"
        },
        {
          "indexed": false,
          "internalType": "bool",
          "name": "trusted",
          "type": "bool"
        }
      ],
      "name": "UserTrustUpdated",
      "type": "event"
    },
    {
      "anonymous": false,
      "inputs": [
        {
          "indexed": true,
          "internalType": "address",
          "name": "sender",
          "type": "address"
        },
        {
          "indexed": false,
          "internalType": "address",
          "name": "adapter",
          "type": "address"
        },
        {
          "indexed": false,
          "internalType": "uint256",
          "name": "maturity",
          "type": "uint256"
        },
        {
          "indexed": false,
          "internalType": "uint256",
          "name": "targetIn",
          "type": "uint256"
        },
        {
          "indexed": false,
          "internalType": "uint256",
          "name": "targetReturned",
          "type": "uint256"
        },
        {
          "indexed": false,
          "internalType": "uint256",
          "name": "ytOut",
          "type": "uint256"
        }
      ],
      "name": "YTsPurchased",
      "type": "event"
    },
    {
      "inputs": [],
      "name": "MIN_YT_SWAP_IN",
      "outputs": [
        {
          "internalType": "uint256",
          "name": "",
          "type": "uint256"
        }
      ],
      "stateMutability": "view",
      "type": "function"
    },
    {
      "inputs": [],
      "name": "PRICE_ESTIMATE_ACCEPTABLE_ERROR",
      "outputs": [
        {
          "internalType": "uint256",
          "name": "",
          "type": "uint256"
        }
      ],
      "stateMutability": "view",
      "type": "function"
    },
    {
      "inputs": [
        {
          "internalType": "address",
          "name": "adapter",
          "type": "address"
        },
        {
          "internalType": "uint256",
          "name": "maturity",
          "type": "uint256"
        },
        {
          "internalType": "uint256",
          "name": "tBal",
          "type": "uint256"
        },
        {
          "internalType": "uint8",
          "name": "mode",
          "type": "uint8"
        },
        {
          "internalType": "uint256",
          "name": "minBptOut",
          "type": "uint256"
        }
      ],
      "name": "addLiquidityFromTarget",
      "outputs": [
        {
          "internalType": "uint256",
          "name": "tAmount",
          "type": "uint256"
        },
        {
          "internalType": "uint256",
          "name": "issued",
          "type": "uint256"
        },
        {
          "internalType": "uint256",
          "name": "lpShares",
          "type": "uint256"
        }
      ],
      "stateMutability": "nonpayable",
      "type": "function"
    },
    {
      "inputs": [
        {
          "internalType": "address",
          "name": "adapter",
          "type": "address"
        },
        {
          "internalType": "uint256",
          "name": "maturity",
          "type": "uint256"
        },
        {
          "internalType": "uint256",
          "name": "uBal",
          "type": "uint256"
        },
        {
          "internalType": "uint8",
          "name": "mode",
          "type": "uint8"
        },
        {
          "internalType": "uint256",
          "name": "minBptOut",
          "type": "uint256"
        }
      ],
      "name": "addLiquidityFromUnderlying",
      "outputs": [
        {
          "internalType": "uint256",
          "name": "tAmount",
          "type": "uint256"
        },
        {
          "internalType": "uint256",
          "name": "issued",
          "type": "uint256"
        },
        {
          "internalType": "uint256",
          "name": "lpShares",
          "type": "uint256"
        }
      ],
      "stateMutability": "nonpayable",
      "type": "function"
    },
    {
      "inputs": [],
      "name": "balancerVault",
      "outputs": [
        {
          "internalType": "contract BalancerVault",
          "name": "",
          "type": "address"
        }
      ],
      "stateMutability": "view",
      "type": "function"
    },
    {
      "inputs": [
        {
          "internalType": "address",
          "name": "f",
          "type": "address"
        },
        {
          "internalType": "address",
          "name": "target",
          "type": "address"
        },
        {
          "internalType": "bytes",
          "name": "data",
          "type": "bytes"
        }
      ],
      "name": "deployAdapter",
      "outputs": [
        {
          "internalType": "address",
          "name": "adapter",
          "type": "address"
        }
      ],
      "stateMutability": "nonpayable",
      "type": "function"
    },
    {
      "inputs": [],
      "name": "divider",
      "outputs": [
        {
          "internalType": "contract Divider",
          "name": "",
          "type": "address"
        }
      ],
      "stateMutability": "view",
      "type": "function"
    },
    {
      "inputs": [
        {
          "internalType": "address",
          "name": "",
          "type": "address"
        }
      ],
      "name": "factories",
      "outputs": [
        {
          "internalType": "bool",
          "name": "",
          "type": "bool"
        }
      ],
      "stateMutability": "view",
      "type": "function"
    },
    {
      "inputs": [
        {
          "internalType": "address",
          "name": "",
          "type": "address"
        }
      ],
      "name": "isTrusted",
      "outputs": [
        {
          "internalType": "bool",
          "name": "",
          "type": "bool"
        }
      ],
      "stateMutability": "view",
      "type": "function"
    },
    {
      "inputs": [
        {
          "internalType": "address",
          "name": "srcAdapter",
          "type": "address"
        },
        {
          "internalType": "address",
          "name": "dstAdapter",
          "type": "address"
        },
        {
          "internalType": "uint256",
          "name": "srcMaturity",
          "type": "uint256"
        },
        {
          "internalType": "uint256",
          "name": "dstMaturity",
          "type": "uint256"
        },
        {
          "internalType": "uint256",
          "name": "lpBal",
          "type": "uint256"
        },
        {
          "internalType": "uint256[]",
          "name": "minAmountsOut",
          "type": "uint256[]"
        },
        {
          "internalType": "uint256",
          "name": "minAccepted",
          "type": "uint256"
        },
        {
          "internalType": "uint8",
          "name": "mode",
          "type": "uint8"
        },
        {
          "internalType": "bool",
          "name": "intoTarget",
          "type": "bool"
        },
        {
          "internalType": "uint256",
          "name": "minBptOut",
          "type": "uint256"
        }
      ],
      "name": "migrateLiquidity",
      "outputs": [
        {
          "internalType": "uint256",
          "name": "tAmount",
          "type": "uint256"
        },
        {
          "internalType": "uint256",
          "name": "issued",
          "type": "uint256"
        },
        {
          "internalType": "uint256",
          "name": "lpShares",
          "type": "uint256"
        },
        {
          "internalType": "uint256",
          "name": "ptBal",
          "type": "uint256"
        }
      ],
      "stateMutability": "nonpayable",
      "type": "function"
    },
    {
      "inputs": [
        {
          "internalType": "address",
          "name": "initiator",
          "type": "address"
        },
        {
          "internalType": "address",
          "name": "",
          "type": "address"
        },
        {
          "internalType": "uint256",
          "name": "amountBorrrowed",
          "type": "uint256"
        },
        {
          "internalType": "uint256",
          "name": "",
          "type": "uint256"
        },
        {
          "internalType": "bytes",
          "name": "data",
          "type": "bytes"
        }
      ],
      "name": "onFlashLoan",
      "outputs": [
        {
          "internalType": "bytes32",
          "name": "",
          "type": "bytes32"
        }
      ],
      "stateMutability": "nonpayable",
      "type": "function"
    },
    {
      "inputs": [
        {
          "internalType": "address",
          "name": "adapter",
          "type": "address"
        },
        {
          "internalType": "bool",
          "name": "addAdapter",
          "type": "bool"
        }
      ],
      "name": "onboardAdapter",
      "outputs": [],
      "stateMutability": "nonpayable",
      "type": "function"
    },
    {
      "inputs": [],
      "name": "poolManager",
      "outputs": [
        {
          "internalType": "contract PoolManager",
          "name": "",
          "type": "address"
        }
      ],
      "stateMutability": "view",
      "type": "function"
    },
    {
      "inputs": [
        {
          "internalType": "address",
          "name": "adapter",
          "type": "address"
        },
        {
          "internalType": "uint256",
          "name": "maturity",
          "type": "uint256"
        },
        {
          "internalType": "uint256",
          "name": "lpBal",
          "type": "uint256"
        },
        {
          "internalType": "uint256[]",
          "name": "minAmountsOut",
          "type": "uint256[]"
        },
        {
          "internalType": "uint256",
          "name": "minAccepted",
          "type": "uint256"
        },
        {
          "internalType": "bool",
          "name": "intoTarget",
          "type": "bool"
        }
      ],
      "name": "removeLiquidity",
      "outputs": [
        {
          "internalType": "uint256",
          "name": "tBal",
          "type": "uint256"
        },
        {
          "internalType": "uint256",
          "name": "ptBal",
          "type": "uint256"
        }
      ],
      "stateMutability": "nonpayable",
      "type": "function"
    },
    {
      "inputs": [
        {
          "internalType": "address",
          "name": "adapter",
          "type": "address"
        },
        {
          "internalType": "uint256",
          "name": "maturity",
          "type": "uint256"
        },
        {
          "internalType": "uint256",
          "name": "lpBal",
          "type": "uint256"
        },
        {
          "internalType": "uint256[]",
          "name": "minAmountsOut",
          "type": "uint256[]"
        },
        {
          "internalType": "uint256",
          "name": "minAccepted",
          "type": "uint256"
        },
        {
          "internalType": "bool",
          "name": "intoTarget",
          "type": "bool"
        }
      ],
      "name": "removeLiquidityAndUnwrapTarget",
      "outputs": [
        {
          "internalType": "uint256",
          "name": "uBal",
          "type": "uint256"
        },
        {
          "internalType": "uint256",
          "name": "ptBal",
          "type": "uint256"
        }
      ],
      "stateMutability": "nonpayable",
      "type": "function"
    },
    {
      "inputs": [
        {
          "internalType": "address",
          "name": "f",
          "type": "address"
        },
        {
          "internalType": "bool",
          "name": "isOn",
          "type": "bool"
        }
      ],
      "name": "setFactory",
      "outputs": [],
      "stateMutability": "nonpayable",
      "type": "function"
    },
    {
      "inputs": [
        {
          "internalType": "address",
          "name": "user",
          "type": "address"
        },
        {
          "internalType": "bool",
          "name": "trusted",
          "type": "bool"
        }
      ],
      "name": "setIsTrusted",
      "outputs": [],
      "stateMutability": "nonpayable",
      "type": "function"
    },
    {
      "inputs": [
        {
          "internalType": "address",
          "name": "newPoolManager",
          "type": "address"
        }
      ],
      "name": "setPoolManager",
      "outputs": [],
      "stateMutability": "nonpayable",
      "type": "function"
    },
    {
      "inputs": [
        {
          "internalType": "address",
          "name": "newSpaceFactory",
          "type": "address"
        }
      ],
      "name": "setSpaceFactory",
      "outputs": [],
      "stateMutability": "nonpayable",
      "type": "function"
    },
    {
      "inputs": [],
      "name": "spaceFactory",
      "outputs": [
        {
          "internalType": "contract SpaceFactoryLike",
          "name": "",
          "type": "address"
        }
      ],
      "stateMutability": "view",
      "type": "function"
    },
    {
      "inputs": [
        {
          "internalType": "address",
          "name": "adapter",
          "type": "address"
        },
        {
          "internalType": "uint256",
          "name": "maturity",
          "type": "uint256"
        },
        {
          "internalType": "bool",
          "name": "withPool",
          "type": "bool"
        }
      ],
      "name": "sponsorSeries",
      "outputs": [
        {
          "internalType": "address",
          "name": "pt",
          "type": "address"
        },
        {
          "internalType": "address",
          "name": "yt",
          "type": "address"
        }
      ],
      "stateMutability": "nonpayable",
      "type": "function"
    },
    {
      "inputs": [
        {
          "internalType": "address",
          "name": "adapter",
          "type": "address"
        },
        {
          "internalType": "uint256",
          "name": "maturity",
          "type": "uint256"
        },
        {
          "internalType": "uint256",
          "name": "ptBal",
          "type": "uint256"
        },
        {
          "internalType": "uint256",
          "name": "minAccepted",
          "type": "uint256"
        }
      ],
      "name": "swapPTsForTarget",
      "outputs": [
        {
          "internalType": "uint256",
          "name": "tBal",
          "type": "uint256"
        }
      ],
      "stateMutability": "nonpayable",
      "type": "function"
    },
    {
      "inputs": [
        {
          "internalType": "address",
          "name": "adapter",
          "type": "address"
        },
        {
          "internalType": "uint256",
          "name": "maturity",
          "type": "uint256"
        },
        {
          "internalType": "uint256",
          "name": "ptBal",
          "type": "uint256"
        },
        {
          "internalType": "uint256",
          "name": "minAccepted",
          "type": "uint256"
        }
      ],
      "name": "swapPTsForUnderlying",
      "outputs": [
        {
          "internalType": "uint256",
          "name": "uBal",
          "type": "uint256"
        }
      ],
      "stateMutability": "nonpayable",
      "type": "function"
    },
    {
      "inputs": [
        {
          "internalType": "address",
          "name": "adapter",
          "type": "address"
        },
        {
          "internalType": "uint256",
          "name": "maturity",
          "type": "uint256"
        },
        {
          "internalType": "uint256",
          "name": "tBal",
          "type": "uint256"
        },
        {
          "internalType": "uint256",
          "name": "minAccepted",
          "type": "uint256"
        }
      ],
      "name": "swapTargetForPTs",
      "outputs": [
        {
          "internalType": "uint256",
          "name": "ptBal",
          "type": "uint256"
        }
      ],
      "stateMutability": "nonpayable",
      "type": "function"
    },
    {
      "inputs": [
        {
          "internalType": "address",
          "name": "adapter",
          "type": "address"
        },
        {
          "internalType": "uint256",
          "name": "maturity",
          "type": "uint256"
        },
        {
          "internalType": "uint256",
          "name": "targetIn",
          "type": "uint256"
        },
        {
          "internalType": "uint256",
          "name": "targetToBorrow",
          "type": "uint256"
        },
        {
          "internalType": "uint256",
          "name": "minOut",
          "type": "uint256"
        }
      ],
      "name": "swapTargetForYTs",
      "outputs": [
        {
          "internalType": "uint256",
          "name": "targetBal",
          "type": "uint256"
        },
        {
          "internalType": "uint256",
          "name": "ytBal",
          "type": "uint256"
        }
      ],
      "stateMutability": "nonpayable",
      "type": "function"
    },
    {
      "inputs": [
        {
          "internalType": "address",
          "name": "adapter",
          "type": "address"
        },
        {
          "internalType": "uint256",
          "name": "maturity",
          "type": "uint256"
        },
        {
          "internalType": "uint256",
          "name": "uBal",
          "type": "uint256"
        },
        {
          "internalType": "uint256",
          "name": "minAccepted",
          "type": "uint256"
        }
      ],
      "name": "swapUnderlyingForPTs",
      "outputs": [
        {
          "internalType": "uint256",
          "name": "ptBal",
          "type": "uint256"
        }
      ],
      "stateMutability": "nonpayable",
      "type": "function"
    },
    {
      "inputs": [
        {
          "internalType": "address",
          "name": "adapter",
          "type": "address"
        },
        {
          "internalType": "uint256",
          "name": "maturity",
          "type": "uint256"
        },
        {
          "internalType": "uint256",
          "name": "underlyingIn",
          "type": "uint256"
        },
        {
          "internalType": "uint256",
          "name": "targetToBorrow",
          "type": "uint256"
        },
        {
          "internalType": "uint256",
          "name": "minOut",
          "type": "uint256"
        }
      ],
      "name": "swapUnderlyingForYTs",
      "outputs": [
        {
          "internalType": "uint256",
          "name": "targetBal",
          "type": "uint256"
        },
        {
          "internalType": "uint256",
          "name": "ytBal",
          "type": "uint256"
        }
      ],
      "stateMutability": "nonpayable",
      "type": "function"
    },
    {
      "inputs": [
        {
          "internalType": "address",
          "name": "adapter",
          "type": "address"
        },
        {
          "internalType": "uint256",
          "name": "maturity",
          "type": "uint256"
        },
        {
          "internalType": "uint256",
          "name": "ytBal",
          "type": "uint256"
        }
      ],
      "name": "swapYTsForTarget",
      "outputs": [
        {
          "internalType": "uint256",
          "name": "tBal",
          "type": "uint256"
        }
      ],
      "stateMutability": "nonpayable",
      "type": "function"
    },
    {
      "inputs": [
        {
          "internalType": "address",
          "name": "adapter",
          "type": "address"
        },
        {
          "internalType": "uint256",
          "name": "maturity",
          "type": "uint256"
        },
        {
          "internalType": "uint256",
          "name": "ytBal",
          "type": "uint256"
        }
      ],
      "name": "swapYTsForUnderlying",
      "outputs": [
        {
          "internalType": "uint256",
          "name": "uBal",
          "type": "uint256"
        }
      ],
      "stateMutability": "nonpayable",
      "type": "function"
    },
    {
      "inputs": [
        {
          "internalType": "address",
          "name": "",
          "type": "address"
        }
      ],
      "name": "verified",
      "outputs": [
        {
          "internalType": "bool",
          "name": "",
          "type": "bool"
        }
      ],
      "stateMutability": "view",
      "type": "function"
    },
    {
      "inputs": [
        {
          "internalType": "address",
          "name": "adapter",
          "type": "address"
        },
        {
          "internalType": "bool",
          "name": "addToPool",
          "type": "bool"
        }
      ],
      "name": "verifyAdapter",
      "outputs": [],
      "stateMutability": "nonpayable",
      "type": "function"
    }
  ],
  "bytecode": {
    "object": "0x60c06040523480156200001157600080fd5b5060405162005a4938038062005a498339810160408190526200003491620000e3565b3360008181526020818152604091829020805460ff19166001908117909155915191825282917fe95aec380cae16330d146d5499ef7db6f3657e477104a733e771bc09e500d986910160405180910390a2506001600160a01b03938416608052600180549385166001600160a01b03199485161790556002805492851692909316919091179091551660a05262000140565b80516001600160a01b0381168114620000de57600080fd5b919050565b60008060008060808587031215620000fa57600080fd5b6200010585620000c6565b93506200011560208601620000c6565b92506200012560408601620000c6565b91506200013560608601620000c6565b905092959194509250565b60805160a05161581f6200022a6000396000818161026a01528181612593015281816126490152818161390b01528181613dba015281816140f6015281816141e1015281816147bd01526148a001526000818161034301528181610756015281816107c001528181610ce901528181610e4101528181610f2001528181611023015281816116af01528181611cf201528181611f3101528181612481015281816128010152818161299801528181612b0101528181612db701528181613072015281816134b90152818161365601528181613b9401528181613c880152613fde015261581f6000f3fe608060405234801561001057600080fd5b50600436106101e55760003560e01c80637ab71cb01161010f578063b16bdcfe116100a2578063dc4c90d311610071578063dc4c90d3146104d9578063f8e8801e146104ec578063fab52689146104ff578063fdb8c0461461052257600080fd5b8063b16bdcfe14610494578063bfe642ca146104a7578063ce3a9128146104ba578063da43f3d6146104c657600080fd5b80638f1f30f0116100de5780638f1f30f01461043857806396d648791461044b57806397a27fbf1461046e578063a23973961461048157600080fd5b80637ab71cb0146103ec5780637aef6715146103ff578063836ce94514610412578063857bee5f1461042557600080fd5b8063318d3c371161018757806349c569cb1161015657806349c569cb1461038b5780634a6370c3146103b3578063560c9876146103c657806371013c10146103d957600080fd5b8063318d3c371461032b578063378efa371461033e578063457dcd291461036557806347c7a2121461037857600080fd5b8063158274a5116101c3578063158274a5146102655780631fc3e733146102a457806323e30c8b146102d75780632d673b7b146102f857600080fd5b80630db065f4146101ea5780630f8b15d3146102225780631393916a14610250575b600080fd5b61020d6101f8366004614a13565b60046020526000908152604090205460ff1681565b60405190151581526020015b60405180910390f35b610235610230366004614a3f565b61052e565b60408051938452602084019290925290820152606001610219565b61026361025e366004614a9f565b6105ca565b005b61028c7f000000000000000000000000000000000000000000000000000000000000000081565b6040516001600160a01b039091168152602001610219565b6102b76102b2366004614ad8565b6106c3565b604080516001600160a01b03938416815292909116602083015201610219565b6102ea6102e5366004614b1a565b610af9565b604051908152602001610219565b61030b610306366004614cb3565b611216565b604080519485526020850193909352918301526060820152608001610219565b610263610339366004614a9f565b611368565b61028c7f000000000000000000000000000000000000000000000000000000000000000081565b6102ea610373366004614d6f565b6113ef565b6102ea610386366004614d6f565b61147e565b61039e610399366004614daa565b6114d9565b60408051928352602083019190915201610219565b61039e6103c1366004614e2a565b6115c9565b6102ea6103d4366004614e6e565b611703565b6102636103e7366004614a9f565b6117e6565b6102356103fa366004614a3f565b61192b565b61026361040d366004614a13565b611a53565b61039e610420366004614e2a565b611b4c565b60025461028c906001600160a01b031681565b6102ea610446366004614d6f565b611d2f565b61020d610459366004614a13565b60006020819052908152604090205460ff1681565b6102ea61047c366004614d6f565b611e4b565b61026361048f366004614a9f565b611f2f565b6102ea6104a2366004614e6e565b61200f565b61028c6104b5366004614ea3565b612069565b6102ea64e8d4a5100081565b6102636104d4366004614a13565b612192565b60015461028c906001600160a01b031681565b61039e6104fa366004614daa565b61228c565b61020d61050d366004614a13565b60036020526000908152604090205460ff1681565b6102ea6402540be40081565b60008060006105ac3330888b6001600160a01b031663d4b839926040518163ffffffff1660e01b8152600401602060405180830381865afa158015610577573d6000803e3d6000fd5b505050506040513d601f19601f8201168201806040525081019061059b9190614f5d565b6001600160a01b03169291906122f3565b6105b988888888886123bd565b919a90995090975095505050505050565b3360009081526020819052604090205460ff16610648576040517f08c379a000000000000000000000000000000000000000000000000000000000815260206004820152600960248201527f554e54525553544544000000000000000000000000000000000000000000000060448201526064015b60405180910390fd5b6001600160a01b0382166000818152602081815260409182902080547fffffffffffffffffffffffffffffffffffffffffffffffffffffffffffffff001685151590811790915591519182527fe95aec380cae16330d146d5499ef7db6f3657e477104a733e771bc09e500d986910160405180910390a25050565b600080600080866001600160a01b03166327b327d06040518163ffffffff1660e01b8152600401606060405180830381865afa158015610707573d6000803e3d6000fd5b505050506040513d601f19601f8201168201806040525081019061072b9190614f7a565b909350915061074790506001600160a01b0383163330846122f3565b61077b6001600160a01b0383167f0000000000000000000000000000000000000000000000000000000000000000836124bd565b6040517f3e3972ee0000000000000000000000000000000000000000000000000000000081526001600160a01b038881166004830152602482018890523360448301527f00000000000000000000000000000000000000000000000000000000000000001690633e3972ee9060640160408051808303816000875af1158015610808573d6000803e3d6000fd5b505050506040513d601f19601f8201168201806040525081019061082c9190614fbd565b6001600160a01b038916600090815260046020526040902054919550935060ff1615610a1f576001546001600160a01b03166108f8576002546040517f0ecaea730000000000000000000000000000000000000000000000000000000081526001600160a01b0389811660048301526024820189905290911690630ecaea73906044016020604051808303816000875af11580156108ce573d6000803e3d6000fd5b505050506040513d601f19601f820116820180604052508101906108f29190614f5d565b50610ab7565b6001546002546040517f0ecaea730000000000000000000000000000000000000000000000000000000081526001600160a01b038a81166004830152602482018a905292831692635e883823928b928b9290911690630ecaea73906044016020604051808303816000875af1158015610975573d6000803e3d6000fd5b505050506040513d601f19601f820116820180604052508101906109999190614f5d565b60405160e085901b7fffffffff000000000000000000000000000000000000000000000000000000001681526001600160a01b03938416600482015260248101929092529091166044820152606401600060405180830381600087803b158015610a0257600080fd5b505af1158015610a16573d6000803e3d6000fd5b50505050610ab7565b8415610ab7576002546040517f0ecaea730000000000000000000000000000000000000000000000000000000081526001600160a01b0389811660048301526024820189905290911690630ecaea73906044016020604051808303816000875af1158015610a91573d6000803e3d6000fd5b505050506040513d601f19601f82011682018060405250810190610ab59190614f5d565b505b604051339087906001600160a01b038a16907fe385633dd30b0221b25f7a6f7e18c5992b339b5686322abe8ceb999e81249cd190600090a45050935093915050565b60008080808080610b0c87890189614fec565b94509450945094509450846001600160a01b0316336001600160a01b031614610b61576040517f4cd0f00a00000000000000000000000000000000000000000000000000000000815260040160405180910390fd5b6001600160a01b038c163014610ba3576040517f14aa288800000000000000000000000000000000000000000000000000000000815260040160405180910390fd5b6002546040517f8f38a5550000000000000000000000000000000000000000000000000000000081526001600160a01b038781166004830152602482018790526000921690638f38a55590604401602060405180830381865afa158015610c0e573d6000803e3d6000fd5b505050506040513d601f19601f82011682018060405250810190610c329190614f5d565b90508115610f16576000866001600160a01b031663d4b839926040518163ffffffff1660e01b8152600401602060405180830381865afa158015610c7a573d6000803e3d6000fd5b505050506040513d601f19601f82011682018060405250810190610c9e9190614f5d565b6040517fd10eb4b90000000000000000000000000000000000000000000000000000000081526001600160a01b03898116600483015260248201899052919250600091610e3d9184917f0000000000000000000000000000000000000000000000000000000000000000169063d10eb4b990604401602060405180830381865afa158015610d30573d6000803e3d6000fd5b505050506040513d601f19601f82011682018060405250810190610d549190614f5d565b6040517f70a082310000000000000000000000000000000000000000000000000000000081523060048201526001600160a01b038616906370a0823190602401602060405180830381865afa158015610db1573d6000803e3d6000fd5b505050506040513d601f19601f82011682018060405250810190610dd59190615042565b866001600160a01b03166338fff2d06040518163ffffffff1660e01b8152600401602060405180830381865afa158015610e13573d6000803e3d6000fd5b505050506040513d601f19601f82011682018060405250810190610e379190615042565b89612582565b90507f00000000000000000000000000000000000000000000000000000000000000006001600160a01b031663ba89bebd8989898510610e7d5789610e7f565b845b6040517fffffffff0000000000000000000000000000000000000000000000000000000060e086901b1681526001600160a01b039093166004840152602483019190915260448201526064016020604051808303816000875af1158015610eea573d6000803e3d6000fd5b505050506040513d601f19601f82011682018060405250810190610f0e9190615042565b5050506111e4565b6001600160a01b037f00000000000000000000000000000000000000000000000000000000000000001663dfe5ef488787610f518f8961508a565b6040517fffffffff0000000000000000000000000000000000000000000000000000000060e086901b1681526001600160a01b039093166004840152602483019190915260448201526064016020604051808303816000875af1158015610fbc573d6000803e3d6000fd5b505050506040513d601f19601f82011682018060405250810190610fe09190615042565b506040517fd10eb4b90000000000000000000000000000000000000000000000000000000081526001600160a01b038781166004830152602482018790526000917f00000000000000000000000000000000000000000000000000000000000000009091169063d10eb4b990604401602060405180830381865afa15801561106c573d6000803e3d6000fd5b505050506040513d601f19601f820116820180604052508101906110909190614f5d565b90506111e181886001600160a01b031663d4b839926040518163ffffffff1660e01b8152600401602060405180830381865afa1580156110d4573d6000803e3d6000fd5b505050506040513d601f19601f820116820180604052508101906110f89190614f5d565b6040517f70a082310000000000000000000000000000000000000000000000000000000081523060048201526001600160a01b038516906370a0823190602401602060405180830381865afa158015611155573d6000803e3d6000fd5b505050506040513d601f19601f820116820180604052508101906111799190615042565b856001600160a01b03166338fff2d06040518163ffffffff1660e01b8152600401602060405180830381865afa1580156111b7573d6000803e3d6000fd5b505050506040513d601f19601f820116820180604052508101906111db9190615042565b88612582565b50505b507f439148f0bbc682ca079e46d6e2c2f0c1e3b820f1a291b069d8882abf8cf18dd99c9b505050505050505050505050565b6000806000808c6001600160a01b031663d4b839926040518163ffffffff1660e01b8152600401602060405180830381865afa15801561125a573d6000803e3d6000fd5b505050506040513d601f19601f8201168201806040525081019061127e9190614f5d565b6001600160a01b03168e6001600160a01b031663d4b839926040518163ffffffff1660e01b8152600401602060405180830381865afa1580156112c5573d6000803e3d6000fd5b505050506040513d601f19601f820116820180604052508101906112e99190614f5d565b6001600160a01b031614611329576040517f73f3f92700000000000000000000000000000000000000000000000000000000815260040160405180910390fd5b60006113398f8e8d8d8d8c612755565b9250905061134a8e8d838b8a6123bd565b809550819650829750505050509a509a509a509a9650505050505050565b3360009081526020819052604090205460ff166113e1576040517f08c379a000000000000000000000000000000000000000000000000000000000815260206004820152600960248201527f554e545255535445440000000000000000000000000000000000000000000000604482015260640161063f565b6113eb8282612bcc565b5050565b60006113fd85858585612d73565b90506114763382876001600160a01b031663d4b839926040518163ffffffff1660e01b8152600401602060405180830381865afa158015611442573d6000803e3d6000fd5b505050506040513d601f19601f820116820180604052508101906114669190614f5d565b6001600160a01b03169190612f6f565b949350505050565b60006114c4333085886001600160a01b031663d4b839926040518163ffffffff1660e01b8152600401602060405180830381865afa158015610577573d6000803e3d6000fd5b6114d08585858561302e565b95945050505050565b60008060006114ec898989898989612755565b6040517f51c39ea1000000000000000000000000000000000000000000000000000000008152600481018390529093509091506115bd9033906001600160a01b038c16906351c39ea1906024016020604051808303816000875af1158015611558573d6000803e3d6000fd5b505050506040513d601f19601f8201168201806040525081019061157c9190615042565b9450848b6001600160a01b0316636f307dc36040518163ffffffff1660e01b8152600401602060405180830381865afa158015611442573d6000803e3d6000fd5b50965096945050505050565b6000806116103330878a6001600160a01b031663d4b839926040518163ffffffff1660e01b8152600401602060405180830381865afa158015610577573d6000803e3d6000fd5b61161d8787878787613238565b80925081935050506116683383896001600160a01b031663d4b839926040518163ffffffff1660e01b8152600401602060405180830381865afa158015611442573d6000803e3d6000fd5b6040517f574e77950000000000000000000000000000000000000000000000000000000081526001600160a01b038881166004830152602482018890526116f991339184917f00000000000000000000000000000000000000000000000000000000000000009091169063574e7795906044015b602060405180830381865afa158015611442573d6000803e3d6000fd5b9550959350505050565b60008061171233868686613612565b6040517f51c39ea1000000000000000000000000000000000000000000000000000000008152600481018290529091506001600160a01b038616906351c39ea1906024016020604051808303816000875af1158015611775573d6000803e3d6000fd5b505050506040513d601f19601f820116820180604052508101906117999190615042565b91506117de3383876001600160a01b0316636f307dc36040518163ffffffff1660e01b8152600401602060405180830381865afa158015611442573d6000803e3d6000fd5b509392505050565b3360009081526020819052604090205460ff1661185f576040517f08c379a000000000000000000000000000000000000000000000000000000000815260206004820152600960248201527f554e545255535445440000000000000000000000000000000000000000000000604482015260640161063f565b6001600160a01b03821660009081526003602052604090205481151560ff9091161515036118b9576040517fe2be007400000000000000000000000000000000000000000000000000000000815260040160405180910390fd5b6001600160a01b03821660008181526003602052604080822080547fffffffffffffffffffffffffffffffffffffffffffffffffffffffffffffff001685151590811790915590519092917fe63b400aabb14e166c6cf1b963fc9332222bc4dfe22a7fa4a487411d6cb83b3191a35050565b600080600080886001600160a01b0316636f307dc36040518163ffffffff1660e01b8152600401602060405180830381865afa15801561196f573d6000803e3d6000fd5b505050506040513d601f19601f820116820180604052508101906119939190614f5d565b90506119aa6001600160a01b03821633308a6122f3565b6040517f4aae9fed000000000000000000000000000000000000000000000000000000008152600481018890526000906001600160a01b038b1690634aae9fed906024016020604051808303816000875af1158015611a0d573d6000803e3d6000fd5b505050506040513d601f19601f82011682018060405250810190611a319190615042565b9050611a408a8a838a8a6123bd565b919c909b50909950975050505050505050565b3360009081526020819052604090205460ff16611acc576040517f08c379a000000000000000000000000000000000000000000000000000000000815260206004820152600960248201527f554e545255535445440000000000000000000000000000000000000000000000604482015260640161063f565b600154604080516001600160a01b03928316815291831660208301527edeff9fe78b1f38e51f917f8ea2a7e4028c825ff9aa26757f819a9f20362849910160405180910390a1600180547fffffffffffffffffffffffff0000000000000000000000000000000000000000166001600160a01b0392909216919091179055565b6000806000876001600160a01b0316636f307dc36040518163ffffffff1660e01b8152600401602060405180830381865afa158015611b8f573d6000803e3d6000fd5b505050506040513d601f19601f82011682018060405250810190611bb39190614f5d565b9050611bca6001600160a01b0382163330896122f3565b6040517f4aae9fed000000000000000000000000000000000000000000000000000000008152600481018790526000906001600160a01b038a1690634aae9fed906024016020604051808303816000875af1158015611c2d573d6000803e3d6000fd5b505050506040513d601f19601f82011682018060405250810190611c519190615042565b9050611c608989838989613238565b8094508195505050611cab33858b6001600160a01b031663d4b839926040518163ffffffff1660e01b8152600401602060405180830381865afa158015611442573d6000803e3d6000fd5b6040517f574e77950000000000000000000000000000000000000000000000000000000081526001600160a01b038a81166004830152602482018a9052611d2391339186917f00000000000000000000000000000000000000000000000000000000000000009091169063574e7795906044016116dc565b50509550959350505050565b600080856001600160a01b0316636f307dc36040518163ffffffff1660e01b8152600401602060405180830381865afa158015611d70573d6000803e3d6000fd5b505050506040513d601f19601f82011682018060405250810190611d949190614f5d565b9050611dab6001600160a01b0382163330876122f3565b6040517f4aae9fed000000000000000000000000000000000000000000000000000000008152600481018590526000906001600160a01b03881690634aae9fed906024016020604051808303816000875af1158015611e0e573d6000803e3d6000fd5b505050506040513d601f19601f82011682018060405250810190611e329190615042565b9050611e408787838761302e565b979650505050505050565b600080611e5a86868686612d73565b6040517f51c39ea1000000000000000000000000000000000000000000000000000000008152600481018290529091506001600160a01b038716906351c39ea1906024016020604051808303816000875af1158015611ebd573d6000803e3d6000fd5b505050506040513d601f19601f82011682018060405250810190611ee19190615042565b9150611f263383886001600160a01b0316636f307dc36040518163ffffffff1660e01b8152600401602060405180830381865afa158015611442573d6000803e3d6000fd5b50949350505050565b7f00000000000000000000000000000000000000000000000000000000000000006001600160a01b031663a1256f9f6040518163ffffffff1660e01b8152600401602060405180830381865afa158015611f8d573d6000803e3d6000fd5b505050506040513d601f19601f82011682018060405250810190611fb191906150a2565b158015611fce57503360009081526020819052604090205460ff16155b15612005576040517f8719352c00000000000000000000000000000000000000000000000000000000815260040160405180910390fd5b6113eb8282613b1f565b600061201d33858585613612565b90506120623382866001600160a01b031663d4b839926040518163ffffffff1660e01b8152600401602060405180830381865afa158015611442573d6000803e3d6000fd5b9392505050565b6001600160a01b03831660009081526003602052604081205460ff166120bb576040517fe459d6aa00000000000000000000000000000000000000000000000000000000815260040160405180910390fd5b6040517f3cad2dcd0000000000000000000000000000000000000000000000000000000081526001600160a01b03851690633cad2dcd90612102908690869060040161510c565b6020604051808303816000875af1158015612121573d6000803e3d6000fd5b505050506040513d601f19601f820116820180604052508101906121459190614f5d565b6040519091506001600160a01b038216907f5c4dabb7dca79d442edd65b39b410aef25f4eea4a498150e7e442d5ca508f6d590600090a2612187816001612bcc565b612062816001613b1f565b3360009081526020819052604090205460ff1661220b576040517f08c379a000000000000000000000000000000000000000000000000000000000815260206004820152600960248201527f554e545255535445440000000000000000000000000000000000000000000000604482015260640161063f565b600254604080516001600160a01b03928316815291831660208301527f561ac07fd1f491d12bc2774d0ae20a65b9f4b67297f14592626f265defc9c2c6910160405180910390a1600280547fffffffffffffffffffffffff0000000000000000000000000000000000000000166001600160a01b0392909216919091179055565b60008061229d888888888888612755565b80925081935050506122e833838a6001600160a01b031663d4b839926040518163ffffffff1660e01b8152600401602060405180830381865afa158015611442573d6000803e3d6000fd5b965096945050505050565b60006040517f23b872dd000000000000000000000000000000000000000000000000000000006000528460045283602452826044526020600060646000808a5af13d15601f3d11600160005114161716915060006060528060405250806123b6576040517f08c379a000000000000000000000000000000000000000000000000000000000815260206004820152601460248201527f5452414e534645525f46524f4d5f4641494c4544000000000000000000000000604482015260640161063f565b5050505050565b60008060006123ce88888887613d1e565b909250905081156124b2578460ff1660000361243a576123f030898985613612565b925061243533848a6001600160a01b031663d4b839926040518163ffffffff1660e01b8152600401602060405180830381865afa158015611442573d6000803e3d6000fd5b6124b2565b6040517f574e77950000000000000000000000000000000000000000000000000000000081526001600160a01b038981166004830152602482018990526124b291339185917f00000000000000000000000000000000000000000000000000000000000000009091169063574e7795906044016116dc565b955095509592505050565b60006040517f095ea7b3000000000000000000000000000000000000000000000000000000006000528360045282602452602060006044600080895af13d15601f3d116001600051141617169150600060605280604052508061257c576040517f08c379a000000000000000000000000000000000000000000000000000000000815260206004820152600e60248201527f415050524f56455f4641494c4544000000000000000000000000000000000000604482015260640161063f565b50505050565b60006125b86001600160a01b0387167f0000000000000000000000000000000000000000000000000000000000000000866124bd565b6040805160c081018252848152600060208083018290526001600160a01b03808b168486015289811660608086019190915260808086018b90528651808501885285815260a087015286519081018752308082529381018590528087019390935282019290925292517f52bbbe290000000000000000000000000000000000000000000000000000000081529192917f0000000000000000000000000000000000000000000000000000000000000000909116906352bbbe29906126889085908590899060001990600401615198565b6020604051808303816000875af11580156126a7573d6000803e3d6000fd5b505050506040513d601f19601f820116820180604052508101906126cb9190615042565b604080516001600160a01b038b811682528a166020820152908101889052606081018290529093507fffffffff000000000000000000000000000000000000000000000000000000006000351690869033907f771a8215d0541283507c0ebd99d6a6406b7254dc8feccdaa6c160c305d68d7489060800160405180910390a4505095945050505050565b6000806000886001600160a01b031663d4b839926040518163ffffffff1660e01b8152600401602060405180830381865afa158015612798573d6000803e3d6000fd5b505050506040513d601f19601f820116820180604052508101906127bc9190614f5d565b6040517fd10eb4b90000000000000000000000000000000000000000000000000000000081526001600160a01b038b81166004830152602482018b90529192506000917f0000000000000000000000000000000000000000000000000000000000000000169063d10eb4b990604401602060405180830381865afa158015612848573d6000803e3d6000fd5b505050506040513d601f19601f8201168201806040525081019061286c9190614f5d565b6002546040517f8f38a5550000000000000000000000000000000000000000000000000000000081526001600160a01b038d81166004830152602482018d905292935060009290911690638f38a55590604401602060405180830381865afa1580156128dc573d6000803e3d6000fd5b505050506040513d601f19601f820116820180604052508101906129009190614f5d565b90506000816001600160a01b03166338fff2d06040518163ffffffff1660e01b8152600401602060405180830381865afa158015612942573d6000803e3d6000fd5b505050506040513d601f19601f820116820180604052508101906129669190615042565b905061297d6001600160a01b03831633308d6122f3565b600061298c8285878d8f6140ef565b809250819850505060007f00000000000000000000000000000000000000000000000000000000000000006001600160a01b03166395197d308f8f6040518363ffffffff1660e01b81526004016129f89291906001600160a01b03929092168252602082015260400190565b602060405180830381865afa158015612a15573d6000803e3d6000fd5b505050506040513d601f19601f82011682018060405250810190612a399190615042565b1115612b7f57612aae8d6001600160a01b0316636fd5ae156040518163ffffffff1660e01b8152600401602060405180830381865afa158015612a80573d6000803e3d6000fd5b505050506040513d601f19601f82011682018060405250810190612aa49190615042565b6010908116141590565b15612abb57809550612ba2565b6040517f2b83cccd0000000000000000000000000000000000000000000000000000000081526001600160a01b038e81166004830152602482018e9052604482018390527f00000000000000000000000000000000000000000000000000000000000000001690632b83cccd906064016020604051808303816000875af1158015612b4a573d6000803e3d6000fd5b505050506040513d601f19601f82011682018060405250810190612b6e9190615042565b612b78908861508a565b9650612ba2565b600081118015612b8c5750875b15612b9e57612b6e848683858d612582565b8095505b8515612bbc57612bbc6001600160a01b0385163388612f6f565b5050505050965096945050505050565b6001600160a01b038216600090815260046020526040902080547fffffffffffffffffffffffffffffffffffffffffffffffffffffffffffffff00166001179055808015612c2457506001546001600160a01b031615155b15612d3b57600160009054906101000a90046001600160a01b03166001600160a01b0316631ec64fef836001600160a01b031663d4b839926040518163ffffffff1660e01b8152600401602060405180830381865afa158015612c8b573d6000803e3d6000fd5b505050506040513d601f19601f82011682018060405250810190612caf9190614f5d565b6040517fffffffff0000000000000000000000000000000000000000000000000000000060e084901b1681526001600160a01b03918216600482015290851660248201526044016020604051808303816000875af1158015612d15573d6000803e3d6000fd5b505050506040513d601f19601f82011682018060405250810190612d399190614f5d565b505b6040516001600160a01b038316907ff9f4ea4fb47406a3baf9adc8bd38b1c82e5a5fee5de9b3c5af3218400fb530c090600090a25050565b6040517fd10eb4b90000000000000000000000000000000000000000000000000000000081526001600160a01b0385811660048301526024820185905260009182917f0000000000000000000000000000000000000000000000000000000000000000169063d10eb4b990604401602060405180830381865afa158015612dfe573d6000803e3d6000fd5b505050506040513d601f19601f82011682018060405250810190612e229190614f5d565b9050612e396001600160a01b0382163330876122f3565b6002546040517f8f38a5550000000000000000000000000000000000000000000000000000000081526001600160a01b038881166004830152602482018890526000921690638f38a55590604401602060405180830381865afa158015612ea4573d6000803e3d6000fd5b505050506040513d601f19601f82011682018060405250810190612ec89190614f5d565b9050611e4082886001600160a01b031663d4b839926040518163ffffffff1660e01b8152600401602060405180830381865afa158015612f0c573d6000803e3d6000fd5b505050506040513d601f19601f82011682018060405250810190612f309190614f5d565b87846001600160a01b03166338fff2d06040518163ffffffff1660e01b8152600401602060405180830381865afa1580156111b7573d6000803e3d6000fd5b60006040517fa9059cbb000000000000000000000000000000000000000000000000000000006000528360045282602452602060006044600080895af13d15601f3d116001600051141617169150600060605280604052508061257c576040517f08c379a000000000000000000000000000000000000000000000000000000000815260206004820152600f60248201527f5452414e534645525f4641494c45440000000000000000000000000000000000604482015260640161063f565b6040517fd10eb4b90000000000000000000000000000000000000000000000000000000081526001600160a01b0385811660048301526024820185905260009182917f0000000000000000000000000000000000000000000000000000000000000000169063d10eb4b990604401602060405180830381865afa1580156130b9573d6000803e3d6000fd5b505050506040513d601f19601f820116820180604052508101906130dd9190614f5d565b6002546040517f8f38a5550000000000000000000000000000000000000000000000000000000081526001600160a01b0389811660048301526024820189905292935060009290911690638f38a55590604401602060405180830381865afa15801561314d573d6000803e3d6000fd5b505050506040513d601f19601f820116820180604052508101906131719190614f5d565b9050613218876001600160a01b031663d4b839926040518163ffffffff1660e01b8152600401602060405180830381865afa1580156131b4573d6000803e3d6000fd5b505050506040513d601f19601f820116820180604052508101906131d89190614f5d565b8387846001600160a01b03166338fff2d06040518163ffffffff1660e01b8152600401602060405180830381865afa1580156111b7573d6000803e3d6000fd5b925061322e6001600160a01b0383163385612f6f565b5050949350505050565b604080516001600160a01b03871660208201529081018590526060810184905260808101829052600060a08201819052908190819060c00160405160208183030381529060405290506000886001600160a01b0316635cffe9de308b6001600160a01b031663d4b839926040518163ffffffff1660e01b8152600401602060405180830381865afa1580156132d1573d6000803e3d6000fd5b505050506040513d601f19601f820116820180604052508101906132f59190614f5d565b89866040518563ffffffff1660e01b81526004016133169493929190615255565b6020604051808303816000875af1158015613335573d6000803e3d6000fd5b505050506040513d601f19601f8201168201806040525081019061335991906150a2565b905080613392576040517f87cce7b800000000000000000000000000000000000000000000000000000000815260040160405180910390fd5b886001600160a01b031663d4b839926040518163ffffffff1660e01b8152600401602060405180830381865afa1580156133d0573d6000803e3d6000fd5b505050506040513d601f19601f820116820180604052508101906133f49190614f5d565b6040517f70a082310000000000000000000000000000000000000000000000000000000081523060048201526001600160a01b0391909116906370a0823190602401602060405180830381865afa158015613453573d6000803e3d6000fd5b505050506040513d601f19601f820116820180604052508101906134779190615042565b6040517f574e77950000000000000000000000000000000000000000000000000000000081526001600160a01b038b81166004830152602482018b90529195507f00000000000000000000000000000000000000000000000000000000000000009091169063574e779590604401602060405180830381865afa158015613502573d6000803e3d6000fd5b505050506040513d601f19601f820116820180604052508101906135269190614f5d565b6040517f70a082310000000000000000000000000000000000000000000000000000000081523060048201526001600160a01b0391909116906370a0823190602401602060405180830381865afa158015613585573d6000803e3d6000fd5b505050506040513d601f19601f820116820180604052508101906135a99190615042565b604080516001600160a01b038c168152602081018b9052908101899052606081018690526080810182905290935033907f25841a32c1c1cef7b2d2bcea90bd94fcafbcd2459595475b86087699c16dc4959060a00160405180910390a250509550959350505050565b6040517f574e77950000000000000000000000000000000000000000000000000000000081526001600160a01b0384811660048301526024820184905260009182917f0000000000000000000000000000000000000000000000000000000000000000169063574e779590604401602060405180830381865afa15801561369d573d6000803e3d6000fd5b505050506040513d601f19601f820116820180604052508101906136c19190614f5d565b905064e8d4a51000816001600160a01b031663313ce5676040518163ffffffff1660e01b8152600401602060405180830381865afa158015613707573d6000803e3d6000fd5b505050506040513d601f19601f8201168201806040525081019061372b9190615287565b6137369060126152a4565b61374190600a6153ab565b61374b90856153ba565b11613782576040517f81406f4600000000000000000000000000000000000000000000000000000000815260040160405180910390fd5b6002546040517f8f38a5550000000000000000000000000000000000000000000000000000000081526001600160a01b038781166004830152602482018790526000921690638f38a55590604401602060405180830381865afa1580156137ed573d6000803e3d6000fd5b505050506040513d601f19601f820116820180604052508101906138119190614f5d565b90506001600160a01b0387163014613838576138386001600160a01b0383163330876122f3565b6000816001600160a01b03166338fff2d06040518163ffffffff1660e01b8152600401602060405180830381865afa158015613878573d6000803e3d6000fd5b505050506040513d601f19601f8201168201806040525081019061389c9190615042565b9050600080836001600160a01b0316635863056d6040518163ffffffff1660e01b81526004016040805180830381865afa1580156138de573d6000803e3d6000fd5b505050506040513d601f19601f8201168201806040525081019061390291906153d9565b915091506000807f00000000000000000000000000000000000000000000000000000000000000006001600160a01b031663f94d4668866040518263ffffffff1660e01b815260040161395791815260200190565b600060405180830381865afa158015613974573d6000803e3d6000fd5b505050506040513d6000823e601f3d908101601f1916820160405261399c9190810190615458565b50915091506000866001600160a01b0316639d2c110c6040518061012001604052806001808111156139d0576139d061512e565b81526020018688815181106139e7576139e7615526565b60200260200101516001600160a01b03168152602001868981518110613a0f57613a0f615526565b60200260200101516001600160a01b031681526020018d81526020018981526020016000815260200160006001600160a01b0316815260200160006001600160a01b0316815260200160405180602001604052806000815250815250848781518110613a7d57613a7d615526565b6020026020010151858981518110613a9757613a97615526565b60200260200101516040518463ffffffff1660e01b8152600401613abd93929190615555565b6020604051808303816000875af1158015613adc573d6000803e3d6000fd5b505050506040513d601f19601f82011682018060405250810190613b009190615042565b9050613b0e8c8c8c84614377565b9d9c50505050505050505050505050565b6000826001600160a01b031663d4b839926040518163ffffffff1660e01b8152600401602060405180830381865afa158015613b5f573d6000803e3d6000fd5b505050506040513d601f19601f82011682018060405250810190613b839190614f5d565b9050613bbb6001600160a01b0382167f00000000000000000000000000000000000000000000000000000000000000006000196124bd565b613bd16001600160a01b038216846000196124bd565b613c4a83600019856001600160a01b0316636f307dc36040518163ffffffff1660e01b8152600401602060405180830381865afa158015613c16573d6000803e3d6000fd5b505050506040513d601f19601f82011682018060405250810190613c3a9190614f5d565b6001600160a01b031691906124bd565b8115613ce5576040517f60d54d410000000000000000000000000000000000000000000000000000000081526001600160a01b0384811660048301527f000000000000000000000000000000000000000000000000000000000000000016906360d54d4190602401600060405180830381600087803b158015613ccc57600080fd5b505af1158015613ce0573d6000803e3d6000fd5b505050505b6040516001600160a01b038416907fae4a2338a83fc8bfaca3a6cbb54494b5c00e9d8a65dc9cf39135b00da497798290600090a2505050565b6002546040517f8f38a5550000000000000000000000000000000000000000000000000000000081526001600160a01b038681166004830152602482018690526000928392839290911690638f38a55590604401602060405180830381865afa158015613d8f573d6000803e3d6000fd5b505050506040513d601f19601f82011682018060405250810190613db39190614f5d565b90506000807f00000000000000000000000000000000000000000000000000000000000000006001600160a01b031663f94d4668846001600160a01b03166338fff2d06040518163ffffffff1660e01b8152600401602060405180830381865afa158015613e25573d6000803e3d6000fd5b505050506040513d601f19601f82011682018060405250810190613e499190615042565b6040518263ffffffff1660e01b8152600401613e6791815260200190565b600060405180830381865afa158015613e84573d6000803e3d6000fd5b505050506040513d6000823e601f3d908101601f19168201604052613eac9190810190615458565b5091509150600080846001600160a01b0316635863056d6040518163ffffffff1660e01b81526004016040805180830381865afa158015613ef1573d6000803e3d6000fd5b505050506040513d601f19601f82011682018060405250810190613f1591906153d9565b915091506000838381518110613f2d57613f2d615526565b6020026020010151600014159050600081613f49576000613f87565b613f878d868681518110613f5f57613f5f615526565b6020026020010151878681518110613f7957613f79615526565b60200260200101518e614626565b905060008111613f9857600061404b565b6040517fdfe5ef480000000000000000000000000000000000000000000000000000000081526001600160a01b038e81166004830152602482018e9052604482018390527f0000000000000000000000000000000000000000000000000000000000000000169063dfe5ef48906064016020604051808303816000875af1158015614027573d6000803e3d6000fd5b505050506040513d601f19601f8201168201806040525081019061404b9190615042565b604080516002808252606082018352929b50600092909160208301908036833701905050905061407b828d61561c565b81858151811061408d5761408d615526565b602002602001018181525050898186815181106140ac576140ac615526565b6020026020010181815250506140dc8860405180606001604052808a81526020018481526020018e81525061473e565b9850505050505050505094509492505050565b60008060007f00000000000000000000000000000000000000000000000000000000000000006001600160a01b031663f94d4668896040518263ffffffff1660e01b815260040161414291815260200190565b600060405180830381865afa15801561415f573d6000803e3d6000fd5b505050506040513d6000823e601f3d908101601f191682016040526141879190810190615458565b5050905060006141948290565b905060006040518060800160405280838152602001888152602001876040516020016141c291815260200190565b60405160208183030381529060405281526020016000151581525090507f00000000000000000000000000000000000000000000000000000000000000006001600160a01b0316638bdb39138b3030856040518563ffffffff1660e01b815260040161423194939291906156fd565b600060405180830381600087803b15801561424b57600080fd5b505af115801561425f573d6000803e3d6000fd5b50506040517f70a082310000000000000000000000000000000000000000000000000000000081523060048201526001600160a01b038b1692506370a082319150602401602060405180830381865afa1580156142c0573d6000803e3d6000fd5b505050506040513d601f19601f820116820180604052508101906142e49190615042565b6040517f70a082310000000000000000000000000000000000000000000000000000000081523060048201529095506001600160a01b038a16906370a0823190602401602060405180830381865afa158015614344573d6000803e3d6000fd5b505050506040513d601f19601f820116820180604052508101906143689190615042565b93505050509550959350505050565b600080856001600160a01b031663d4b839926040518163ffffffff1660e01b8152600401602060405180830381865afa1580156143b8573d6000803e3d6000fd5b505050506040513d601f19601f820116820180604052508101906143dc9190614f5d565b90506000816001600160a01b031663313ce5676040518163ffffffff1660e01b8152600401602060405180830381865afa15801561441e573d6000803e3d6000fd5b505050506040513d601f19601f820116820180604052508101906144429190615287565b60ff16905060006009821061447b5761445c82601261561c565b61446790600a61572f565b614476906402540be40061573b565b61447e565b60015b9050600088888861448f858261561c565b604080516001600160a01b03909516602086015284019290925260608301526080820152600160a082015260c00160408051601f19818403018152908290527f5cffe9de00000000000000000000000000000000000000000000000000000000825291506000906001600160a01b038b1690635cffe9de9061451b90309089908c908890600401615255565b6020604051808303816000875af115801561453a573d6000803e3d6000fd5b505050506040513d601f19601f8201168201806040525081019061455e91906150a2565b905080614597576040517f87cce7b800000000000000000000000000000000000000000000000000000000815260040160405180910390fd5b6040517f70a082310000000000000000000000000000000000000000000000000000000081523060048201526001600160a01b038616906370a0823190602401602060405180830381865afa1580156145f4573d6000803e3d6000fd5b505050506040513d601f19601f820116820180604052508101906146189190615042565b9a9950505050505050505050565b60006114d061473785614726866147208a6001600160a01b031663b8c15a9f6040518163ffffffff1660e01b8152600401602060405180830381865afa158015614674573d6000803e3d6000fd5b505050506040513d601f19601f820116820180604052508101906146989190615776565b6146bc906fffffffffffffffffffffffffffffffff16670de0b6b3a764000061561c565b8b6001600160a01b031663f51e181a6040518163ffffffff1660e01b81526004016020604051808303816000875af11580156146fc573d6000803e3d6000fd5b505050506040513d601f19601f820116820180604052508101906147209190615042565b906149ad565b614730919061508a565b86906149cb565b83906149ad565b600080836001600160a01b03166338fff2d06040518163ffffffff1660e01b8152600401602060405180830381865afa15801561477f573d6000803e3d6000fd5b505050506040513d601f19601f820116820180604052508101906147a39190615042565b835190915060005b84515160ff82161015614848576148367f000000000000000000000000000000000000000000000000000000000000000086602001518360ff16815181106147f5576147f5615526565b602002602001015187600001518460ff168151811061481657614816615526565b60200260200101516001600160a01b03166124bd9092919063ffffffff16565b80614840816157a8565b9150506147ab565b506000604051806080016040528083815260200186602001518152602001866020015187604001516040516020016148819291906157c7565b60405160208183030381529060405281526020016000151581525090507f00000000000000000000000000000000000000000000000000000000000000006001600160a01b031663b95cac28843033856040518563ffffffff1660e01b81526004016148f094939291906156fd565b600060405180830381600087803b15801561490a57600080fd5b505af115801561491e573d6000803e3d6000fd5b50506040517f70a082310000000000000000000000000000000000000000000000000000000081523360048201526001600160a01b03891692506370a082319150602401602060405180830381865afa15801561497f573d6000803e3d6000fd5b505050506040513d601f19601f820116820180604052508101906149a39190615042565b9695505050505050565b60006149c28383670de0b6b3a76400006149dc565b90505b92915050565b60006149c283670de0b6b3a7640000845b8282028115158415858304851417166149f457600080fd5b0492915050565b6001600160a01b0381168114614a1057600080fd5b50565b600060208284031215614a2557600080fd5b8135612062816149fb565b60ff81168114614a1057600080fd5b600080600080600060a08688031215614a5757600080fd5b8535614a62816149fb565b945060208601359350604086013592506060860135614a8081614a30565b949793965091946080013592915050565b8015158114614a1057600080fd5b60008060408385031215614ab257600080fd5b8235614abd816149fb565b91506020830135614acd81614a91565b809150509250929050565b600080600060608486031215614aed57600080fd5b8335614af8816149fb565b9250602084013591506040840135614b0f81614a91565b809150509250925092565b60008060008060008060a08789031215614b3357600080fd5b8635614b3e816149fb565b95506020870135614b4e816149fb565b94506040870135935060608701359250608087013567ffffffffffffffff80821115614b7957600080fd5b818901915089601f830112614b8d57600080fd5b813581811115614b9c57600080fd5b8a6020828501011115614bae57600080fd5b6020830194508093505050509295509295509295565b7f4e487b7100000000000000000000000000000000000000000000000000000000600052604160045260246000fd5b604051601f8201601f1916810167ffffffffffffffff81118282101715614c1c57614c1c614bc4565b604052919050565b600067ffffffffffffffff821115614c3e57614c3e614bc4565b5060051b60200190565b600082601f830112614c5957600080fd5b81356020614c6e614c6983614c24565b614bf3565b82815260059290921b84018101918181019086841115614c8d57600080fd5b8286015b84811015614ca85780358352918301918301614c91565b509695505050505050565b6000806000806000806000806000806101408b8d031215614cd357600080fd5b8a35614cde816149fb565b995060208b0135614cee816149fb565b985060408b0135975060608b0135965060808b0135955060a08b013567ffffffffffffffff811115614d1f57600080fd5b614d2b8d828e01614c48565b95505060c08b0135935060e08b0135614d4381614a30565b92506101008b0135614d5481614a91565b809250506101208b013590509295989b9194979a5092959850565b60008060008060808587031215614d8557600080fd5b8435614d90816149fb565b966020860135965060408601359560600135945092505050565b60008060008060008060c08789031215614dc357600080fd5b8635614dce816149fb565b95506020870135945060408701359350606087013567ffffffffffffffff811115614df857600080fd5b614e0489828a01614c48565b9350506080870135915060a0870135614e1c81614a91565b809150509295509295509295565b600080600080600060a08688031215614e4257600080fd5b8535614e4d816149fb565b97602087013597506040870135966060810135965060800135945092505050565b600080600060608486031215614e8357600080fd5b8335614e8e816149fb565b95602085013595506040909401359392505050565b600080600060608486031215614eb857600080fd5b8335614ec3816149fb565b9250602084810135614ed4816149fb565b9250604085013567ffffffffffffffff80821115614ef157600080fd5b818701915087601f830112614f0557600080fd5b813581811115614f1757614f17614bc4565b614f2984601f19601f84011601614bf3565b91508082528884828501011115614f3f57600080fd5b80848401858401376000848284010152508093505050509250925092565b600060208284031215614f6f57600080fd5b8151612062816149fb565b600080600060608486031215614f8f57600080fd5b8351614f9a816149fb565b6020850151909350614fab816149fb565b80925050604084015190509250925092565b60008060408385031215614fd057600080fd5b8251614fdb816149fb565b6020840151909250614acd816149fb565b600080600080600060a0868803121561500457600080fd5b853561500f816149fb565b9450602086013593506040860135925060608601359150608086013561503481614a91565b809150509295509295909350565b60006020828403121561505457600080fd5b5051919050565b7f4e487b7100000000000000000000000000000000000000000000000000000000600052601160045260246000fd5b6000821982111561509d5761509d61505b565b500190565b6000602082840312156150b457600080fd5b815161206281614a91565b6000815180845260005b818110156150e5576020818501810151868301820152016150c9565b818111156150f7576000602083870101525b50601f01601f19169290920160200192915050565b6001600160a01b038316815260406020820152600061147660408301846150bf565b7f4e487b7100000000000000000000000000000000000000000000000000000000600052602160045260246000fd5b60028110615194577f4e487b7100000000000000000000000000000000000000000000000000000000600052602160045260246000fd5b9052565b60e08152845160e0820152600060208601516151b861010084018261515d565b5060408601516001600160a01b03908116610120840152606087015116610140830152608086015161016083015260a086015160c06101808401526152016101a08401826150bf565b91505061524360208301866001600160a01b03808251168352602082015115156020840152806040830151166040840152506060810151151560608301525050565b60a082019390935260c0015292915050565b60006001600160a01b038087168352808616602084015250836040830152608060608301526149a360808301846150bf565b60006020828403121561529957600080fd5b815161206281614a30565b600060ff821660ff8416808210156152be576152be61505b565b90039392505050565b600181815b808511156153025781600019048211156152e8576152e861505b565b808516156152f557918102915b93841c93908002906152cc565b509250929050565b600082615319575060016149c5565b81615326575060006149c5565b816001811461533c576002811461534657615362565b60019150506149c5565b60ff8411156153575761535761505b565b50506001821b6149c5565b5060208310610133831016604e8410600b8410161715615385575081810a6149c5565b61538f83836152c7565b80600019048211156153a3576153a361505b565b029392505050565b60006149c260ff84168361530a565b60008160001904831182151516156153d4576153d461505b565b500290565b600080604083850312156153ec57600080fd5b505080516020909101519092909150565b600082601f83011261540e57600080fd5b8151602061541e614c6983614c24565b82815260059290921b8401810191818101908684111561543d57600080fd5b8286015b84811015614ca85780518352918301918301615441565b60008060006060848603121561546d57600080fd5b835167ffffffffffffffff8082111561548557600080fd5b818601915086601f83011261549957600080fd5b815160206154a9614c6983614c24565b82815260059290921b8401810191818101908a8411156154c857600080fd5b948201945b838610156154ef5785516154e0816149fb565b825294820194908201906154cd565b9189015191975090935050508082111561550857600080fd5b50615515868287016153fd565b925050604084015190509250925092565b7f4e487b7100000000000000000000000000000000000000000000000000000000600052603260045260246000fd5b6060815261556760608201855161515d565b6000602085015161558360808401826001600160a01b03169052565b5060408501516001600160a01b03811660a084015250606085015160c0830152608085015160e083015260a0850151610100818185015260c087015191506101206155d8818601846001600160a01b03169052565b60e08801516001600160a01b03166101408601529087015161016085019190915290506156096101808401826150bf565b6020840195909552505060400152919050565b60008282101561562e5761562e61505b565b500390565b600081518084526020808501945080840160005b8381101561566357815187529582019590820190600101615647565b509495945050505050565b8051608080845281519084018190526000916020919082019060a0860190845b818110156156b35783516001600160a01b03168352928401929184019160010161568e565b5050828501519150858103838701526156cc8183615633565b92505050604083015184820360408601526156e782826150bf565b91505060608301516117de606086018215159052565b84815260006001600160a01b038086166020840152808516604084015250608060608301526149a3608083018461566e565b60006149c2838361530a565b600082615771577f4e487b7100000000000000000000000000000000000000000000000000000000600052601260045260246000fd5b500490565b60006020828403121561578857600080fd5b81516fffffffffffffffffffffffffffffffff8116811461206257600080fd5b600060ff821660ff81036157be576157be61505b565b60010192915050565b6040815260006157da6040830185615633565b9050826020830152939250505056fea264697066735822122013d0e8911ba724b708bc0ad609ae49bed8fca73f95685402074e2bea3393461264736f6c634300080d0033",
    "linkReferences": {}
  },
  "methodIdentifiers": {
    "MIN_YT_SWAP_IN()": "ce3a9128",
    "PRICE_ESTIMATE_ACCEPTABLE_ERROR()": "fdb8c046",
    "addLiquidityFromTarget(address,uint256,uint256,uint8,uint256)": "0f8b15d3",
    "addLiquidityFromUnderlying(address,uint256,uint256,uint8,uint256)": "7ab71cb0",
    "balancerVault()": "158274a5",
    "deployAdapter(address,address,bytes)": "bfe642ca",
    "divider()": "378efa37",
    "factories(address)": "fab52689",
    "isTrusted(address)": "96d64879",
    "migrateLiquidity(address,address,uint256,uint256,uint256,uint256[],uint256,uint8,bool,uint256)": "2d673b7b",
    "onFlashLoan(address,address,uint256,uint256,bytes)": "23e30c8b",
    "onboardAdapter(address,bool)": "a2397396",
    "poolManager()": "dc4c90d3",
    "removeLiquidity(address,uint256,uint256,uint256[],uint256,bool)": "f8e8801e",
    "removeLiquidityAndUnwrapTarget(address,uint256,uint256,uint256[],uint256,bool)": "49c569cb",
    "setFactory(address,bool)": "71013c10",
    "setIsTrusted(address,bool)": "1393916a",
    "setPoolManager(address)": "7aef6715",
    "setSpaceFactory(address)": "da43f3d6",
    "spaceFactory()": "857bee5f",
    "sponsorSeries(address,uint256,bool)": "1fc3e733",
    "swapPTsForTarget(address,uint256,uint256,uint256)": "457dcd29",
    "swapPTsForUnderlying(address,uint256,uint256,uint256)": "97a27fbf",
    "swapTargetForPTs(address,uint256,uint256,uint256)": "47c7a212",
    "swapTargetForYTs(address,uint256,uint256,uint256,uint256)": "4a6370c3",
    "swapUnderlyingForPTs(address,uint256,uint256,uint256)": "8f1f30f0",
    "swapUnderlyingForYTs(address,uint256,uint256,uint256,uint256)": "836ce945",
    "swapYTsForTarget(address,uint256,uint256)": "b16bdcfe",
    "swapYTsForUnderlying(address,uint256,uint256)": "560c9876",
    "verified(address)": "0db065f4",
    "verifyAdapter(address,bool)": "318d3c37"
  },
  "id": 31
}