{
  "abi": [
    {
      "inputs": [],
      "stateMutability": "nonpayable",
      "type": "constructor"
    },
    {
      "inputs": [],
      "name": "OracleNotReady",
      "type": "error"
    },
    {
      "inputs": [],
      "name": "PoolNotSet",
      "type": "error"
    },
    {
      "anonymous": false,
      "inputs": [
        {
          "indexed": true,
          "internalType": "address",
          "name": "user",
          "type": "address"
        },
        {
          "indexed": false,
          "internalType": "bool",
          "name": "trusted",
          "type": "bool"
        }
      ],
      "name": "UserTrustUpdated",
      "type": "event"
    },
    {
      "inputs": [],
      "name": "floorRate",
      "outputs": [
        {
          "internalType": "uint256",
          "name": "",
          "type": "uint256"
        }
      ],
      "stateMutability": "view",
      "type": "function"
    },
    {
      "inputs": [
        {
          "internalType": "contract CToken",
          "name": "cToken",
          "type": "address"
        }
      ],
      "name": "getUnderlyingPrice",
      "outputs": [
        {
          "internalType": "uint256",
          "name": "",
          "type": "uint256"
        }
      ],
      "stateMutability": "view",
      "type": "function"
    },
    {
      "inputs": [],
      "name": "isPriceOracle",
      "outputs": [
        {
          "internalType": "bool",
          "name": "",
          "type": "bool"
        }
      ],
      "stateMutability": "view",
      "type": "function"
    },
    {
      "inputs": [
        {
          "internalType": "address",
          "name": "",
          "type": "address"
        }
      ],
      "name": "isTrusted",
      "outputs": [
        {
          "internalType": "bool",
          "name": "",
          "type": "bool"
        }
      ],
      "stateMutability": "view",
      "type": "function"
    },
    {
      "inputs": [
        {
          "internalType": "address",
          "name": "",
          "type": "address"
        }
      ],
      "name": "pools",
      "outputs": [
        {
          "internalType": "address",
          "name": "",
          "type": "address"
        }
      ],
      "stateMutability": "view",
      "type": "function"
    },
    {
      "inputs": [
        {
          "internalType": "address",
          "name": "pt",
          "type": "address"
        }
      ],
      "name": "price",
      "outputs": [
        {
          "internalType": "uint256",
          "name": "",
          "type": "uint256"
        }
      ],
      "stateMutability": "view",
      "type": "function"
    },
    {
      "inputs": [
        {
          "internalType": "uint256",
          "name": "_floorRate",
          "type": "uint256"
        }
      ],
      "name": "setFloorRate",
      "outputs": [],
      "stateMutability": "nonpayable",
      "type": "function"
    },
    {
      "inputs": [
        {
          "internalType": "address",
          "name": "user",
          "type": "address"
        },
        {
          "internalType": "bool",
          "name": "trusted",
          "type": "bool"
        }
      ],
      "name": "setIsTrusted",
      "outputs": [],
      "stateMutability": "nonpayable",
      "type": "function"
    },
    {
      "inputs": [
        {
          "internalType": "address",
          "name": "pt",
          "type": "address"
        },
        {
          "internalType": "address",
          "name": "pool",
          "type": "address"
        }
      ],
      "name": "setPrincipal",
      "outputs": [],
      "stateMutability": "nonpayable",
      "type": "function"
    },
    {
      "inputs": [
        {
          "internalType": "uint256",
          "name": "_twapPeriod",
          "type": "uint256"
        }
      ],
      "name": "setTwapPeriod",
      "outputs": [],
      "stateMutability": "nonpayable",
      "type": "function"
    },
    {
      "inputs": [],
      "name": "twapPeriod",
      "outputs": [
        {
          "internalType": "uint256",
          "name": "",
          "type": "uint256"
        }
      ],
      "stateMutability": "view",
      "type": "function"
    }
  ],
  "bytecode": {
    "object": "0x608060405234801561001057600080fd5b503360008181526020818152604091829020805460ff19166001908117909155915191825282917fe95aec380cae16330d146d5499ef7db6f3657e477104a733e771bc09e500d986910160405180910390a2506729a2241af62c0000600255614d58600355610e1d806100846000396000f3fe608060405234801561001057600080fd5b50600436106100c95760003560e01c806396d6487911610081578063b371e4ce1161005b578063b371e4ce146101d8578063f6207326146101e1578063fc57d4df146101ea57600080fd5b806396d6487914610139578063a4063dbc1461015c578063aea91078146101b757600080fd5b8063501f34ce116100b2578063501f34ce146100f65780635e657adf1461010957806366331bba1461011c57600080fd5b80631393916a146100ce5780632b7f9ab5146100e3575b600080fd5b6100e16100dc366004610abf565b6101fd565b005b6100e16100f1366004610afd565b610303565b6100e1610104366004610b2b565b6103cf565b6100e1610117366004610b2b565b61044d565b610124600181565b60405190151581526020015b60405180910390f35b610124610147366004610b44565b60006020819052908152604090205460ff1681565b61019261016a366004610b44565b60016020526000908152604090205473ffffffffffffffffffffffffffffffffffffffff1681565b60405173ffffffffffffffffffffffffffffffffffffffff9091168152602001610130565b6101ca6101c5366004610b44565b6104cb565b604051908152602001610130565b6101ca60025481565b6101ca60035481565b6101ca6101f8366004610b44565b6104dc565b3360009081526020819052604090205460ff1661027b576040517f08c379a000000000000000000000000000000000000000000000000000000000815260206004820152600960248201527f554e54525553544544000000000000000000000000000000000000000000000060448201526064015b60405180910390fd5b73ffffffffffffffffffffffffffffffffffffffff82166000818152602081815260409182902080547fffffffffffffffffffffffffffffffffffffffffffffffffffffffffffffff001685151590811790915591519182527fe95aec380cae16330d146d5499ef7db6f3657e477104a733e771bc09e500d986910160405180910390a25050565b3360009081526020819052604090205460ff1661037c576040517f08c379a000000000000000000000000000000000000000000000000000000000815260206004820152600960248201527f554e5452555354454400000000000000000000000000000000000000000000006044820152606401610272565b73ffffffffffffffffffffffffffffffffffffffff918216600090815260016020526040902080547fffffffffffffffffffffffff00000000000000000000000000000000000000001691909216179055565b3360009081526020819052604090205460ff16610448576040517f08c379a000000000000000000000000000000000000000000000000000000000815260206004820152600960248201527f554e5452555354454400000000000000000000000000000000000000000000006044820152606401610272565b600255565b3360009081526020819052604090205460ff166104c6576040517f08c379a000000000000000000000000000000000000000000000000000000000815260206004820152600960248201527f554e5452555354454400000000000000000000000000000000000000000000006044820152606401610272565b600355565b60006104d682610550565b92915050565b60006104d68273ffffffffffffffffffffffffffffffffffffffff16636f307dc36040518163ffffffff1660e01b8152600401602060405180830381865afa15801561052c573d6000803e3d6000fd5b505050506040513d601f19601f820116820180604052508101906105509190610b61565b73ffffffffffffffffffffffffffffffffffffffff808216600090815260016020526040812054909116806105b1576040517f3c67586300000000000000000000000000000000000000000000000000000000815260040160405180910390fd5b60008173ffffffffffffffffffffffffffffffffffffffff166360d1507c60018473ffffffffffffffffffffffffffffffffffffffff1663b48b5b406040518163ffffffff1660e01b8152600401602060405180830381865afa15801561061c573d6000803e3d6000fd5b505050506040513d601f19601f820116820180604052508101906106409190610b7e565b61064a9190610b97565b6040518263ffffffff1660e01b815260040161066891815260200190565b60e060405180830381865afa158015610685573d6000803e3d6000fd5b505050506040513d601f19601f820116820180604052508101906106a99190610bd5565b9650505050505050806000036106eb576040517f6e155fc600000000000000000000000000000000000000000000000000000000815260040160405180910390fd5b604080516001808252818301909252600091816020015b6107276040805160608101909152806000815260200160008152602001600081525090565b81526020019060019003908161070257905050604080516060810190915290915080600181526020016003548152602001610e108152508160008151811061077157610771610c58565b602002602001018190525060008373ffffffffffffffffffffffffffffffffffffffff16631dccd830836040518263ffffffff1660e01b81526004016107b79190610c87565b600060405180830381865afa1580156107d4573d6000803e3d6000fd5b505050506040513d6000823e601f3d9081017fffffffffffffffffffffffffffffffffffffffffffffffffffffffffffffffe016820160405261081a9190810190610d17565b905060008160008151811061083157610831610c58565b6020026020010151905060025481111561084a57506002545b60008573ffffffffffffffffffffffffffffffffffffffff166303eadcfc6040518163ffffffff1660e01b8152600401602060405180830381865afa158015610897573d6000803e3d6000fd5b505050506040513d601f19601f820116820180604052508101906108bb9190610b61565b73ffffffffffffffffffffffffffffffffffffffff1663d4b839926040518163ffffffff1660e01b8152600401602060405180830381865afa158015610905573d6000803e3d6000fd5b505050506040513d601f19601f820116820180604052508101906109299190610b61565b6040517faea9107800000000000000000000000000000000000000000000000000000000815273ffffffffffffffffffffffffffffffffffffffff82166004820152909150610a5390339063aea9107890602401602060405180830381865afa15801561099a573d6000803e3d6000fd5b505050506040513d601f19601f820116820180604052508101906109be9190610b7e565b6040517ff3f586e50000000000000000000000000000000000000000000000000000000081526004810185905273ffffffffffffffffffffffffffffffffffffffff89169063f3f586e590602401602060405180830381865afa158015610a29573d6000803e3d6000fd5b505050506040513d601f19601f82011682018060405250810190610a4d9190610b7e565b90610a5f565b98975050505050505050565b6000610a748383670de0b6b3a7640000610a7b565b9392505050565b828202811515841585830485141716610a9357600080fd5b0492915050565b73ffffffffffffffffffffffffffffffffffffffff81168114610abc57600080fd5b50565b60008060408385031215610ad257600080fd5b8235610add81610a9a565b915060208301358015158114610af257600080fd5b809150509250929050565b60008060408385031215610b1057600080fd5b8235610b1b81610a9a565b91506020830135610af281610a9a565b600060208284031215610b3d57600080fd5b5035919050565b600060208284031215610b5657600080fd5b8135610a7481610a9a565b600060208284031215610b7357600080fd5b8151610a7481610a9a565b600060208284031215610b9057600080fd5b5051919050565b600082821015610bd0577f4e487b7100000000000000000000000000000000000000000000000000000000600052601160045260246000fd5b500390565b600080600080600080600060e0888a031215610bf057600080fd5b5050855160208701516040880151606089015160808a015160a08b015160c0909b0151949c939b50919990985090965094509092509050565b7f4e487b7100000000000000000000000000000000000000000000000000000000600052604160045260246000fd5b7f4e487b7100000000000000000000000000000000000000000000000000000000600052603260045260246000fd5b60208082528251828201819052600091906040908185019086840185805b83811015610d09578251805160038110610ce6577f4e487b710000000000000000000000000000000000000000000000000000000084526021600452602484fd5b865280880151888701528601518686015260609094019391860191600101610ca5565b509298975050505050505050565b60006020808385031215610d2a57600080fd5b825167ffffffffffffffff80821115610d4257600080fd5b818501915085601f830112610d5657600080fd5b815181811115610d6857610d68610c29565b8060051b6040517fffffffffffffffffffffffffffffffffffffffffffffffffffffffffffffffe0603f83011681018181108582111715610dab57610dab610c29565b604052918252848201925083810185019188831115610dc957600080fd5b938501935b82851015610a5357845184529385019392850192610dce56fea2646970667358221220536c2c88f6e08bd7d8ec645a4ff6982349de25cdc53d56ced6238d9a06c5641164736f6c634300080d0033",
    "linkReferences": {}
  },
  "methodIdentifiers": {
    "floorRate()": "b371e4ce",
    "getUnderlyingPrice(address)": "fc57d4df",
    "isPriceOracle()": "66331bba",
    "isTrusted(address)": "96d64879",
    "pools(address)": "a4063dbc",
    "price(address)": "aea91078",
    "setFloorRate(uint256)": "501f34ce",
    "setIsTrusted(address,bool)": "1393916a",
    "setPrincipal(address,address)": "2b7f9ab5",
    "setTwapPeriod(uint256)": "5e657adf",
    "twapPeriod()": "f6207326"
  },
  "id": 24
}