{
  "abi": [
    {
      "inputs": [
        {
          "internalType": "address",
          "name": "_cup",
          "type": "address"
        },
        {
          "internalType": "address",
          "name": "_tokenHandler",
          "type": "address"
        }
      ],
      "stateMutability": "nonpayable",
      "type": "constructor"
    },
    {
      "inputs": [],
      "name": "AlreadySettled",
      "type": "error"
    },
    {
      "inputs": [],
      "name": "CollectNotSettled",
      "type": "error"
    },
    {
      "inputs": [],
      "name": "CombineRestricted",
      "type": "error"
    },
    {
      "inputs": [],
      "name": "DuplicateSeries",
      "type": "error"
    },
    {
      "inputs": [],
      "name": "ExistingValue",
      "type": "error"
    },
    {
      "inputs": [],
      "name": "GuardCapReached",
      "type": "error"
    },
    {
      "inputs": [],
      "name": "InvalidAdapter",
      "type": "error"
    },
    {
      "inputs": [],
      "name": "InvalidMaturity",
      "type": "error"
    },
    {
      "inputs": [],
      "name": "IssuanceFeeCapExceeded",
      "type": "error"
    },
    {
      "inputs": [],
      "name": "IssuanceRestricted",
      "type": "error"
    },
    {
      "inputs": [],
      "name": "IssueOnSettle",
      "type": "error"
    },
    {
      "inputs": [],
      "name": "NotSettled",
      "type": "error"
    },
    {
      "inputs": [],
      "name": "OnlyPeriphery",
      "type": "error"
    },
    {
      "inputs": [],
      "name": "OnlyPermissionless",
      "type": "error"
    },
    {
      "inputs": [],
      "name": "OnlyYT",
      "type": "error"
    },
    {
      "inputs": [],
      "name": "OutOfWindowBoundaries",
      "type": "error"
    },
    {
      "inputs": [],
      "name": "RedeemRestricted",
      "type": "error"
    },
    {
      "inputs": [],
      "name": "SeriesDoesNotExist",
      "type": "error"
    },
    {
      "anonymous": false,
      "inputs": [
        {
          "indexed": true,
          "internalType": "address",
          "name": "adapter",
          "type": "address"
        },
        {
          "indexed": true,
          "internalType": "uint256",
          "name": "id",
          "type": "uint256"
        },
        {
          "indexed": true,
          "internalType": "bool",
          "name": "isOn",
          "type": "bool"
        }
      ],
      "name": "AdapterChanged",
      "type": "event"
    },
    {
      "anonymous": false,
      "inputs": [
        {
          "indexed": true,
          "internalType": "address",
          "name": "adapter",
          "type": "address"
        },
        {
          "indexed": true,
          "internalType": "uint256",
          "name": "maturity",
          "type": "uint256"
        },
        {
          "indexed": false,
          "internalType": "uint256",
          "name": "mscale",
          "type": "uint256"
        },
        {
          "indexed": false,
          "internalType": "address[]",
          "name": "_usrs",
          "type": "address[]"
        },
        {
          "indexed": false,
          "internalType": "uint256[]",
          "name": "_lscales",
          "type": "uint256[]"
        }
      ],
      "name": "Backfilled",
      "type": "event"
    },
    {
      "anonymous": false,
      "inputs": [
        {
          "indexed": true,
          "internalType": "address",
          "name": "adapter",
          "type": "address"
        },
        {
          "indexed": true,
          "internalType": "uint256",
          "name": "maturity",
          "type": "uint256"
        },
        {
          "indexed": false,
          "internalType": "uint256",
          "name": "collected",
          "type": "uint256"
        }
      ],
      "name": "Collected",
      "type": "event"
    },
    {
      "anonymous": false,
      "inputs": [
        {
          "indexed": true,
          "internalType": "address",
          "name": "adapter",
          "type": "address"
        },
        {
          "indexed": true,
          "internalType": "uint256",
          "name": "maturity",
          "type": "uint256"
        },
        {
          "indexed": false,
          "internalType": "uint256",
          "name": "balance",
          "type": "uint256"
        },
        {
          "indexed": true,
          "internalType": "address",
          "name": "sender",
          "type": "address"
        }
      ],
      "name": "Combined",
      "type": "event"
    },
    {
      "anonymous": false,
      "inputs": [
        {
          "indexed": true,
          "internalType": "address",
          "name": "adapter",
          "type": "address"
        },
        {
          "indexed": false,
          "internalType": "uint256",
          "name": "cap",
          "type": "uint256"
        }
      ],
      "name": "GuardChanged",
      "type": "event"
    },
    {
      "anonymous": false,
      "inputs": [
        {
          "indexed": true,
          "internalType": "bool",
          "name": "guarded",
          "type": "bool"
        }
      ],
      "name": "GuardedChanged",
      "type": "event"
    },
    {
      "anonymous": false,
      "inputs": [
        {
          "indexed": true,
          "internalType": "address",
          "name": "adapter",
          "type": "address"
        },
        {
          "indexed": true,
          "internalType": "uint256",
          "name": "maturity",
          "type": "uint256"
        },
        {
          "indexed": false,
          "internalType": "uint256",
          "name": "balance",
          "type": "uint256"
        },
        {
          "indexed": true,
          "internalType": "address",
          "name": "sender",
          "type": "address"
        }
      ],
      "name": "Issued",
      "type": "event"
    },
    {
      "anonymous": false,
      "inputs": [
        {
          "indexed": true,
          "internalType": "address",
          "name": "adapter",
          "type": "address"
        },
        {
          "indexed": true,
          "internalType": "uint256",
          "name": "maturity",
          "type": "uint256"
        },
        {
          "indexed": false,
          "internalType": "uint256",
          "name": "redeemed",
          "type": "uint256"
        }
      ],
      "name": "PTRedeemed",
      "type": "event"
    },
    {
      "anonymous": false,
      "inputs": [
        {
          "indexed": false,
          "internalType": "address",
          "name": "account",
          "type": "address"
        }
      ],
      "name": "Paused",
      "type": "event"
    },
    {
      "anonymous": false,
      "inputs": [
        {
          "indexed": true,
          "internalType": "address",
          "name": "periphery",
          "type": "address"
        }
      ],
      "name": "PeripheryChanged",
      "type": "event"
    },
    {
      "anonymous": false,
      "inputs": [
        {
          "indexed": true,
          "internalType": "bool",
          "name": "permissionless",
          "type": "bool"
        }
      ],
      "name": "PermissionlessChanged",
      "type": "event"
    },
    {
      "anonymous": false,
      "inputs": [
        {
          "indexed": false,
          "internalType": "address",
          "name": "adapter",
          "type": "address"
        },
        {
          "indexed": true,
          "internalType": "uint256",
          "name": "maturity",
          "type": "uint256"
        },
        {
          "indexed": false,
          "internalType": "address",
          "name": "pt",
          "type": "address"
        },
        {
          "indexed": false,
          "internalType": "address",
          "name": "yt",
          "type": "address"
        },
        {
          "indexed": true,
          "internalType": "address",
          "name": "sponsor",
          "type": "address"
        },
        {
          "indexed": true,
          "internalType": "address",
          "name": "target",
          "type": "address"
        }
      ],
      "name": "SeriesInitialized",
      "type": "event"
    },
    {
      "anonymous": false,
      "inputs": [
        {
          "indexed": true,
          "internalType": "address",
          "name": "adapter",
          "type": "address"
        },
        {
          "indexed": true,
          "internalType": "uint256",
          "name": "maturity",
          "type": "uint256"
        },
        {
          "indexed": true,
          "internalType": "address",
          "name": "settler",
          "type": "address"
        }
      ],
      "name": "SeriesSettled",
      "type": "event"
    },
    {
      "anonymous": false,
      "inputs": [
        {
          "indexed": false,
          "internalType": "address",
          "name": "account",
          "type": "address"
        }
      ],
      "name": "Unpaused",
      "type": "event"
    },
    {
      "anonymous": false,
      "inputs": [
        {
          "indexed": true,
          "internalType": "address",
          "name": "user",
          "type": "address"
        },
        {
          "indexed": false,
          "internalType": "bool",
          "name": "trusted",
          "type": "bool"
        }
      ],
      "name": "UserTrustUpdated",
      "type": "event"
    },
    {
      "anonymous": false,
      "inputs": [
        {
          "indexed": true,
          "internalType": "address",
          "name": "adapter",
          "type": "address"
        },
        {
          "indexed": true,
          "internalType": "uint256",
          "name": "maturity",
          "type": "uint256"
        },
        {
          "indexed": false,
          "internalType": "uint256",
          "name": "redeemed",
          "type": "uint256"
        }
      ],
      "name": "YTRedeemed",
      "type": "event"
    },
    {
      "inputs": [],
      "name": "ISSUANCE_FEE_CAP",
      "outputs": [
        {
          "internalType": "uint256",
          "name": "",
          "type": "uint256"
        }
      ],
      "stateMutability": "view",
      "type": "function"
    },
    {
      "inputs": [],
      "name": "SETTLEMENT_WINDOW",
      "outputs": [
        {
          "internalType": "uint256",
          "name": "",
          "type": "uint256"
        }
      ],
      "stateMutability": "view",
      "type": "function"
    },
    {
      "inputs": [],
      "name": "SPONSOR_WINDOW",
      "outputs": [
        {
          "internalType": "uint256",
          "name": "",
          "type": "uint256"
        }
      ],
      "stateMutability": "view",
      "type": "function"
    },
    {
      "inputs": [
        {
          "internalType": "uint256",
          "name": "",
          "type": "uint256"
        }
      ],
      "name": "adapterAddresses",
      "outputs": [
        {
          "internalType": "address",
          "name": "",
          "type": "address"
        }
      ],
      "stateMutability": "view",
      "type": "function"
    },
    {
      "inputs": [],
      "name": "adapterCounter",
      "outputs": [
        {
          "internalType": "uint248",
          "name": "",
          "type": "uint248"
        }
      ],
      "stateMutability": "view",
      "type": "function"
    },
    {
      "inputs": [
        {
          "internalType": "address",
          "name": "",
          "type": "address"
        }
      ],
      "name": "adapterMeta",
      "outputs": [
        {
          "internalType": "uint248",
          "name": "id",
          "type": "uint248"
        },
        {
          "internalType": "bool",
          "name": "enabled",
          "type": "bool"
        },
        {
          "internalType": "uint256",
          "name": "guard",
          "type": "uint256"
        },
        {
          "internalType": "uint248",
          "name": "level",
          "type": "uint248"
        }
      ],
      "stateMutability": "view",
      "type": "function"
    },
    {
      "inputs": [
        {
          "internalType": "address",
          "name": "adapter",
          "type": "address"
        }
      ],
      "name": "addAdapter",
      "outputs": [],
      "stateMutability": "nonpayable",
      "type": "function"
    },
    {
      "inputs": [
        {
          "internalType": "address",
          "name": "adapter",
          "type": "address"
        },
        {
          "internalType": "uint256",
          "name": "maturity",
          "type": "uint256"
        },
        {
          "internalType": "uint256",
          "name": "mscale",
          "type": "uint256"
        },
        {
          "internalType": "address[]",
          "name": "_usrs",
          "type": "address[]"
        },
        {
          "internalType": "uint256[]",
          "name": "_lscales",
          "type": "uint256[]"
        }
      ],
      "name": "backfillScale",
      "outputs": [],
      "stateMutability": "nonpayable",
      "type": "function"
    },
    {
      "inputs": [
        {
          "internalType": "address",
          "name": "usr",
          "type": "address"
        },
        {
          "internalType": "address",
          "name": "adapter",
          "type": "address"
        },
        {
          "internalType": "uint256",
          "name": "maturity",
          "type": "uint256"
        },
        {
          "internalType": "uint256",
          "name": "uBalTransfer",
          "type": "uint256"
        },
        {
          "internalType": "address",
          "name": "to",
          "type": "address"
        }
      ],
      "name": "collect",
      "outputs": [
        {
          "internalType": "uint256",
          "name": "collected",
          "type": "uint256"
        }
      ],
      "stateMutability": "nonpayable",
      "type": "function"
    },
    {
      "inputs": [
        {
          "internalType": "address",
          "name": "adapter",
          "type": "address"
        },
        {
          "internalType": "uint256",
          "name": "maturity",
          "type": "uint256"
        },
        {
          "internalType": "uint256",
          "name": "uBal",
          "type": "uint256"
        }
      ],
      "name": "combine",
      "outputs": [
        {
          "internalType": "uint256",
          "name": "tBal",
          "type": "uint256"
        }
      ],
      "stateMutability": "nonpayable",
      "type": "function"
    },
    {
      "inputs": [],
      "name": "cup",
      "outputs": [
        {
          "internalType": "address",
          "name": "",
          "type": "address"
        }
      ],
      "stateMutability": "view",
      "type": "function"
    },
    {
      "inputs": [],
      "name": "guarded",
      "outputs": [
        {
          "internalType": "bool",
          "name": "",
          "type": "bool"
        }
      ],
      "stateMutability": "view",
      "type": "function"
    },
    {
      "inputs": [
        {
          "internalType": "address",
          "name": "adapter",
          "type": "address"
        },
        {
          "internalType": "uint256",
          "name": "maturity",
          "type": "uint256"
        },
        {
          "internalType": "address",
          "name": "sponsor",
          "type": "address"
        }
      ],
      "name": "initSeries",
      "outputs": [
        {
          "internalType": "address",
          "name": "pt",
          "type": "address"
        },
        {
          "internalType": "address",
          "name": "yt",
          "type": "address"
        }
      ],
      "stateMutability": "nonpayable",
      "type": "function"
    },
    {
      "inputs": [
        {
          "internalType": "address",
          "name": "",
          "type": "address"
        }
      ],
      "name": "isTrusted",
      "outputs": [
        {
          "internalType": "bool",
          "name": "",
          "type": "bool"
        }
      ],
      "stateMutability": "view",
      "type": "function"
    },
    {
      "inputs": [
        {
          "internalType": "address",
          "name": "adapter",
          "type": "address"
        },
        {
          "internalType": "uint256",
          "name": "maturity",
          "type": "uint256"
        },
        {
          "internalType": "uint256",
          "name": "tBal",
          "type": "uint256"
        }
      ],
      "name": "issue",
      "outputs": [
        {
          "internalType": "uint256",
          "name": "uBal",
          "type": "uint256"
        }
      ],
      "stateMutability": "nonpayable",
      "type": "function"
    },
    {
      "inputs": [
        {
          "internalType": "address",
          "name": "",
          "type": "address"
        },
        {
          "internalType": "uint256",
          "name": "",
          "type": "uint256"
        },
        {
          "internalType": "address",
          "name": "",
          "type": "address"
        }
      ],
      "name": "lscales",
      "outputs": [
        {
          "internalType": "uint256",
          "name": "",
          "type": "uint256"
        }
      ],
      "stateMutability": "view",
      "type": "function"
    },
    {
      "inputs": [
        {
          "internalType": "address",
          "name": "adapter",
          "type": "address"
        },
        {
          "internalType": "uint256",
          "name": "maturity",
          "type": "uint256"
        }
      ],
      "name": "mscale",
      "outputs": [
        {
          "internalType": "uint256",
          "name": "",
          "type": "uint256"
        }
      ],
      "stateMutability": "view",
      "type": "function"
    },
    {
      "inputs": [],
      "name": "paused",
      "outputs": [
        {
          "internalType": "bool",
          "name": "",
          "type": "bool"
        }
      ],
      "stateMutability": "view",
      "type": "function"
    },
    {
      "inputs": [],
      "name": "periphery",
      "outputs": [
        {
          "internalType": "address",
          "name": "",
          "type": "address"
        }
      ],
      "stateMutability": "view",
      "type": "function"
    },
    {
      "inputs": [],
      "name": "permissionless",
      "outputs": [
        {
          "internalType": "bool",
          "name": "",
          "type": "bool"
        }
      ],
      "stateMutability": "view",
      "type": "function"
    },
    {
      "inputs": [
        {
          "internalType": "address",
          "name": "adapter",
          "type": "address"
        },
        {
          "internalType": "uint256",
          "name": "maturity",
          "type": "uint256"
        }
      ],
      "name": "pt",
      "outputs": [
        {
          "internalType": "address",
          "name": "",
          "type": "address"
        }
      ],
      "stateMutability": "view",
      "type": "function"
    },
    {
      "inputs": [
        {
          "internalType": "address",
          "name": "adapter",
          "type": "address"
        },
        {
          "internalType": "uint256",
          "name": "maturity",
          "type": "uint256"
        },
        {
          "internalType": "uint256",
          "name": "uBal",
          "type": "uint256"
        }
      ],
      "name": "redeem",
      "outputs": [
        {
          "internalType": "uint256",
          "name": "tBal",
          "type": "uint256"
        }
      ],
      "stateMutability": "nonpayable",
      "type": "function"
    },
    {
      "inputs": [
        {
          "internalType": "address",
          "name": "",
          "type": "address"
        },
        {
          "internalType": "uint256",
          "name": "",
          "type": "uint256"
        }
      ],
      "name": "series",
      "outputs": [
        {
          "internalType": "address",
          "name": "pt",
          "type": "address"
        },
        {
          "internalType": "uint48",
          "name": "issuance",
          "type": "uint48"
        },
        {
          "internalType": "address",
          "name": "yt",
          "type": "address"
        },
        {
          "internalType": "uint96",
          "name": "tilt",
          "type": "uint96"
        },
        {
          "internalType": "address",
          "name": "sponsor",
          "type": "address"
        },
        {
          "internalType": "uint256",
          "name": "reward",
          "type": "uint256"
        },
        {
          "internalType": "uint256",
          "name": "iscale",
          "type": "uint256"
        },
        {
          "internalType": "uint256",
          "name": "mscale",
          "type": "uint256"
        },
        {
          "internalType": "uint256",
          "name": "maxscale",
          "type": "uint256"
        }
      ],
      "stateMutability": "view",
      "type": "function"
    },
    {
      "inputs": [
        {
          "internalType": "address",
          "name": "adapter",
          "type": "address"
        },
        {
          "internalType": "bool",
          "name": "isOn",
          "type": "bool"
        }
      ],
      "name": "setAdapter",
      "outputs": [],
      "stateMutability": "nonpayable",
      "type": "function"
    },
    {
      "inputs": [
        {
          "internalType": "address",
          "name": "adapter",
          "type": "address"
        },
        {
          "internalType": "uint256",
          "name": "cap",
          "type": "uint256"
        }
      ],
      "name": "setGuard",
      "outputs": [],
      "stateMutability": "nonpayable",
      "type": "function"
    },
    {
      "inputs": [
        {
          "internalType": "bool",
          "name": "_guarded",
          "type": "bool"
        }
      ],
      "name": "setGuarded",
      "outputs": [],
      "stateMutability": "nonpayable",
      "type": "function"
    },
    {
      "inputs": [
        {
          "internalType": "address",
          "name": "user",
          "type": "address"
        },
        {
          "internalType": "bool",
          "name": "trusted",
          "type": "bool"
        }
      ],
      "name": "setIsTrusted",
      "outputs": [],
      "stateMutability": "nonpayable",
      "type": "function"
    },
    {
      "inputs": [
        {
          "internalType": "bool",
          "name": "_paused",
          "type": "bool"
        }
      ],
      "name": "setPaused",
      "outputs": [],
      "stateMutability": "nonpayable",
      "type": "function"
    },
    {
      "inputs": [
        {
          "internalType": "address",
          "name": "_periphery",
          "type": "address"
        }
      ],
      "name": "setPeriphery",
      "outputs": [],
      "stateMutability": "nonpayable",
      "type": "function"
    },
    {
      "inputs": [
        {
          "internalType": "bool",
          "name": "_permissionless",
          "type": "bool"
        }
      ],
      "name": "setPermissionless",
      "outputs": [],
      "stateMutability": "nonpayable",
      "type": "function"
    },
    {
      "inputs": [
        {
          "internalType": "address",
          "name": "adapter",
          "type": "address"
        },
        {
          "internalType": "uint256",
          "name": "maturity",
          "type": "uint256"
        }
      ],
      "name": "settleSeries",
      "outputs": [],
      "stateMutability": "nonpayable",
      "type": "function"
    },
    {
      "inputs": [],
      "name": "tokenHandler",
      "outputs": [
        {
          "internalType": "address",
          "name": "",
          "type": "address"
        }
      ],
      "stateMutability": "view",
      "type": "function"
    },
    {
      "inputs": [
        {
          "internalType": "address",
          "name": "adapter",
          "type": "address"
        },
        {
          "internalType": "uint256",
          "name": "maturity",
          "type": "uint256"
        }
      ],
      "name": "yt",
      "outputs": [
        {
          "internalType": "address",
          "name": "",
          "type": "address"
        }
      ],
      "stateMutability": "view",
      "type": "function"
    }
  ],
  "bytecode": {
    "object": "0x60c0604052600180556002805460ff60b01b1916600160b01b1790553480156200002857600080fd5b5060405162004ede38038062004ede8339810160408190526200004b91620000dc565b3360008181526020818152604091829020805460ff19166001908117909155915191825282917fe95aec380cae16330d146d5499ef7db6f3657e477104a733e771bc09e500d986910160405180910390a2506002805460ff191690556001600160a01b039182166080521660a05262000114565b80516001600160a01b0381168114620000d757600080fd5b919050565b60008060408385031215620000f057600080fd5b620000fb83620000bf565b91506200010b60208401620000bf565b90509250929050565b60805160a051614d8f6200014f6000396000818161041e01526110640152600081816104b4015281816125a401526125cc0152614d8f6000f3fe608060405234801561001057600080fd5b506004361061020b5760003560e01c806372f7a0301161012a578063a4141638116100bd578063c9eb4f981161008c578063d10eb4b911610071578063d10eb4b914610723578063dfe5ef4814610759578063f2d63d0e1461076c57600080fd5b8063c9eb4f98146106fd578063d10c16a91461071057600080fd5b8063a414163814610669578063aeb229341461067c578063ba89bebd1461068f578063c5a067e3146106a257600080fd5b806395197d30116100f957806395197d30146105d457806396d648791461060d578063a1256f9f14610630578063a131ad741461065657600080fd5b806372f7a0301461055957806375708a591461058057806377aace1a146105935780637c917038146105ab57600080fd5b8063332f6465116101a2578063574e779511610171578063574e7795146105095780635c975abb1461051c5780635fa0cc0a1461053357806360d54d411461054657600080fd5b8063332f64651461049c5780633ad10beb146104af5780633deb6cae146103da5780633e3972ee146104d657600080fd5b806316c38b3c116101de57806316c38b3c146104065780631b3d6e87146104195780632b83cccd146104585780632f9cd8541461046b57600080fd5b80630891d30a146102105780630cbe8db1146103195780630fe0554d146103da5780631393916a146103f1575b600080fd5b6102a561021e36600461458a565b6006602081815260009384526040808520909152918352912080546001820154600283015460038401546004850154600586015495909601546001600160a01b0380861697740100000000000000000000000000000000000000009687900465ffffffffffff1697828716979096046bffffffffffffffffffffffff169591909416939189565b604080516001600160a01b039a8b16815265ffffffffffff90991660208a0152968916968801969096526bffffffffffffffffffffffff909416606087015295909116608085015260a084015260c083019390935260e0820192909252610100810191909152610120015b60405180910390f35b6103936103273660046145b6565b6005602052600090815260409020805460018201546002909201547effffffffffffffffffffffffffffffffffffffffffffffffffffffffffffff808316937f010000000000000000000000000000000000000000000000000000000000000090930460ff1692911684565b604080517effffffffffffffffffffffffffffffffffffffffffffffffffffffffffffff958616815293151560208501528301919091529091166060820152608001610310565b6103e3612a3081565b604051908152602001610310565b6104046103ff3660046145e8565b61077a565b005b61040461041436600461461d565b61085a565b6104407f000000000000000000000000000000000000000000000000000000000000000081565b6040516001600160a01b039091168152602001610310565b6103e3610466366004614638565b6108d1565b6103e361047936600461466d565b600760209081526000938452604080852082529284528284209052825290205481565b6104046104aa3660046145e8565b610d53565b6104407f000000000000000000000000000000000000000000000000000000000000000081565b6104e96104e436600461466d565b610dc0565b604080516001600160a01b03938416815292909116602083015201610310565b61044061051736600461458a565b6113ca565b60025460ff165b6040519015158152602001610310565b61040461054136600461458a565b6113fa565b6104046105543660046145b6565b6114a9565b60025461052390760100000000000000000000000000000000000000000000900460ff1681565b61040461058e36600461461d565b6115ea565b6002546104409061010090046001600160a01b031681565b6104406105b93660046146af565b6004602052600090815260409020546001600160a01b031681565b6103e36105e236600461458a565b6001600160a01b03919091166000908152600660209081526040808320938352929052206005015490565b61052361061b3660046145b6565b60006020819052908152604090205460ff1681565b600254610523907501000000000000000000000000000000000000000000900460ff1681565b6103e36106643660046146c8565b6116bf565b61040461067736600461458a565b61183b565b61040461068a3660046145b6565b611bd0565b6103e361069d366004614638565b611c98565b6003546106cd907effffffffffffffffffffffffffffffffffffffffffffffffffffffffffffff1681565b6040517effffffffffffffffffffffffffffffffffffffffffffffffffffffffffffff9091168152602001610310565b61040461070b36600461461d565b612167565b61040461071e366004614773565b61223d565b61044061073136600461458a565b6001600160a01b03918216600090815260066020908152604080832093835292905220541690565b6103e3610767366004614638565b6126c3565b6103e366b1a2bc2ec5000081565b3360009081526020819052604090205460ff166107de5760405162461bcd60e51b815260206004820152600960248201527f554e54525553544544000000000000000000000000000000000000000000000060448201526064015b60405180910390fd5b6001600160a01b0382166000818152602081815260409182902080547fffffffffffffffffffffffffffffffffffffffffffffffffffffffffffffff001685151590811790915591519182527fe95aec380cae16330d146d5499ef7db6f3657e477104a733e771bc09e500d98691015b60405180910390a25050565b3360009081526020819052604090205460ff166108b95760405162461bcd60e51b815260206004820152600960248201527f554e54525553544544000000000000000000000000000000000000000000000060448201526064016107d5565b806108c9576108c6612f2c565b50565b6108c6612f9c565b60006001546001146109255760405162461bcd60e51b815260206004820152600a60248201527f5245454e5452414e43590000000000000000000000000000000000000000000060448201526064016107d5565b6002600155610932612ff7565b6001600160a01b038416600090815260066020908152604080832086845290915290206005015461098f576040517fba329a9b00000000000000000000000000000000000000000000000000000000815260040160405180910390fd5b6001600160a01b0384166000908152600560205260409020600201547effffffffffffffffffffffffffffffffffffffffffffffffffffffffffffff166109da816010908116141590565b80156109ef5750336001600160a01b03861614155b15610a26576040517f9ad6d35d00000000000000000000000000000000000000000000000000000000815260040160405180910390fd5b6001600160a01b038581166000908152600660209081526040808320888452909152908190205490517f9dc29fac00000000000000000000000000000000000000000000000000000000815233600482015260248101869052911690639dc29fac90604401600060405180830381600087803b158015610aa557600080fd5b505af1158015610ab9573d6000803e3d6000fd5b505050506001600160a01b0385166000908152600660209081526040808320878452909152812060010154610b1c907401000000000000000000000000000000000000000090046bffffffffffffffffffffffff16670de0b6b3a7640000614838565b6001600160a01b03871660009081526006602081815260408084208a8552909152909120908101546005909101549192508291610b589161304c565b10610b9f576001600160a01b0386166000908152600660209081526040808320888452909152902060050154610b8e828661484f565b610b9891906148bb565b9250610bd3565b6001600160a01b03861660009081526006602081815260408084208985529091529091200154610bd090859061304c565b92505b602080831603610c89576001600160a01b03861660008181526006602081815260408084208a855290915291829020600581015491015491517f14282f580000000000000000000000000000000000000000000000000000000081526004810188905260248101919091526044810191909152606481018590526314282f5890608401600060405180830381600087803b158015610c7057600080fd5b505af1158015610c84573d6000803e3d6000fd5b505050505b610d02863385896001600160a01b031663d4b839926040518163ffffffff1660e01b8152600401602060405180830381865afa158015610ccd573d6000803e3d6000fd5b505050506040513d601f19601f82011682018060405250810190610cf191906148cf565b6001600160a01b0316929190613068565b84866001600160a01b03167f2d0320e3c19b591925fca7a3012a905faf26dead7f53eb9c4c72744f04bde98085604051610d3e91815260200190565b60405180910390a35050600180559392505050565b3360009081526020819052604090205460ff16610db25760405162461bcd60e51b815260206004820152600960248201527f554e54525553544544000000000000000000000000000000000000000000000060448201526064016107d5565b610dbc8282613118565b5050565b600080600154600114610e155760405162461bcd60e51b815260206004820152600a60248201527f5245454e5452414e43590000000000000000000000000000000000000000000060448201526064016107d5565b6002600155610e22612ff7565b60025461010090046001600160a01b03163314610e6b576040517ffb02114900000000000000000000000000000000000000000000000000000000815260040160405180910390fd5b6001600160a01b0385166000908152600560205260409020547f0100000000000000000000000000000000000000000000000000000000000000900460ff16610ee0576040517ffbf66df100000000000000000000000000000000000000000000000000000000815260040160405180910390fd5b6001600160a01b0380861660009081526006602090815260408083208884529091529020541615610f3d576040517fd309d88400000000000000000000000000000000000000000000000000000000815260040160405180910390fd5b610f478585613418565b610f7d576040517fc7a682c800000000000000000000000000000000000000000000000000000000815260040160405180910390fd5b6000806000876001600160a01b03166327b327d06040518163ffffffff1660e01b8152600401606060405180830381865afa158015610fc0573d6000803e3d6000fd5b505050506040513d601f19601f82011682018060405250810190610fe491906148ec565b6001600160a01b038b8116600081815260056020526040908190205490517fafd3adb000000000000000000000000000000000000000000000000000000000815260048101929092527effffffffffffffffffffffffffffffffffffffffffffffffffffffffffffff166024820152604481018c905293965091945092507f0000000000000000000000000000000000000000000000000000000000000000169063afd3adb09060640160408051808303816000875af11580156110ac573d6000803e3d6000fd5b505050506040513d601f19601f820116820180604052508101906110d0919061492f565b80955081965050506000886001600160a01b031663f51e181a6040518163ffffffff1660e01b81526004016020604051808303816000875af115801561111a573d6000803e3d6000fd5b505050506040513d601f19601f8201168201806040525081019061113e9190614969565b905085600660008b6001600160a01b03166001600160a01b0316815260200190815260200160002060008a815260200190815260200160002060000160006101000a8154816001600160a01b0302191690836001600160a01b0316021790555042600660008b6001600160a01b03166001600160a01b0316815260200190815260200160002060008a815260200190815260200160002060000160146101000a81548165ffffffffffff021916908365ffffffffffff16021790555084600660008b6001600160a01b03166001600160a01b0316815260200190815260200160002060008a815260200190815260200160002060010160006101000a8154816001600160a01b0302191690836001600160a01b03160217905550886001600160a01b031663c39a3b296040518163ffffffff1660e01b8152600401602060405180830381865afa158015611296573d6000803e3d6000fd5b505050506040513d601f19601f820116820180604052508101906112ba9190614969565b6001600160a01b038a811660009081526006602081815260408084208e85529091529091206001810180548416740100000000000000000000000000000000000000006bffffffffffffffffffffffff9690961695909502949094179093556002830180547fffffffffffffffffffffffff0000000000000000000000000000000000000000168b84161790556004830184905591909101829055611363908416338b85613068565b604080516001600160a01b038b811682528881166020830152878116828401529151868316928a16918b917f1f35e8bec0a1a6f4c72b2ae05a4b8fdc78d03eab2dc742fab6ae238201c8189b9181900360600190a450506001805550919590945092505050565b6001600160a01b038083166000908152600660209081526040808320858452909152902060010154165b92915050565b3360009081526020819052604090205460ff166114595760405162461bcd60e51b815260206004820152600960248201527f554e54525553544544000000000000000000000000000000000000000000000060448201526064016107d5565b6001600160a01b03821660008181526005602052604090819020600101839055517ff16a3457e9b9a5c31fda410fd95ed37234eafeb546daeb8a99f8895f94bf8fee9061084e9084815260200190565b6114b1612ff7565b6002547501000000000000000000000000000000000000000000900460ff161580156114ed575060025461010090046001600160a01b03163314155b15611524576040517f8719352c00000000000000000000000000000000000000000000000000000000815260040160405180910390fd5b6001600160a01b0381166000908152600560205260409020547effffffffffffffffffffffffffffffffffffffffffffffffffffffffffffff16158015906115a857506001600160a01b0381166000908152600560205260409020547f0100000000000000000000000000000000000000000000000000000000000000900460ff16155b156115df576040517ffbf66df100000000000000000000000000000000000000000000000000000000815260040160405180910390fd5b6108c6816001613118565b3360009081526020819052604090205460ff166116495760405162461bcd60e51b815260206004820152600960248201527f554e54525553544544000000000000000000000000000000000000000000000060448201526064016107d5565b600280547fffffffffffffffffffff00ffffffffffffffffffffffffffffffffffffffffff167501000000000000000000000000000000000000000000831515908102919091179091556040517f44a4c963afeb7bcec3494bbd13068371938a27639a9a9a7bac56c11777fd410990600090a250565b60006001546001146117135760405162461bcd60e51b815260206004820152600a60248201527f5245454e5452414e43590000000000000000000000000000000000000000000060448201526064016107d5565b600260019081556001600160a01b0380871660009081526006602090815260408083208984529091529020909101548691869116331461177f576040517fb114ba9800000000000000000000000000000000000000000000000000000000815260040160405180910390fd5b611787612ff7565b6040517f70a082310000000000000000000000000000000000000000000000000000000081526001600160a01b038916600482015260009033906370a0823190602401602060405180830381865afa1580156117e7573d6000803e3d6000fd5b505050506040513d601f19601f8201168201806040525081019061180b9190614969565b905061182a8989898460008b116118225785611824565b8a5b8a6135aa565b600180559998505050505050505050565b60015460011461188d5760405162461bcd60e51b815260206004820152600a60248201527f5245454e5452414e43590000000000000000000000000000000000000000000060448201526064016107d5565b600260015561189a612ff7565b6001600160a01b0382166000908152600560205260409020547f0100000000000000000000000000000000000000000000000000000000000000900460ff1661190f576040517ffbf66df100000000000000000000000000000000000000000000000000000000815260040160405180910390fd5b6001600160a01b0380831660009081526006602090815260408083208584529091529020541661196b576040517f1760174300000000000000000000000000000000000000000000000000000000815260040160405180910390fd5b6001600160a01b0382166000908152600660209081526040808320848452909152902060050154156119c9576040517f560ff90000000000000000000000000000000000000000000000000000000000815260040160405180910390fd5b6119d38282613e99565b611a09576040517f852de68200000000000000000000000000000000000000000000000000000000815260040160405180910390fd5b6000826001600160a01b031663f51e181a6040518163ffffffff1660e01b81526004016020604051808303816000875af1158015611a4b573d6000803e3d6000fd5b505050506040513d601f19601f82011682018060405250810190611a6f9190614969565b6001600160a01b0384166000908152600660208181526040808420878552909152909120600581018390550154909150811115611acf576001600160a01b0383166000908152600660208181526040808420868552909152909120018190555b6000806000856001600160a01b03166327b327d06040518163ffffffff1660e01b8152600401606060405180830381865afa158015611b12573d6000803e3d6000fd5b505050506040513d601f19601f82011682018060405250810190611b3691906148ec565b6001600160a01b03808a1660009081526006602090815260408083208c84529091529020600301549396509194509250611b77919085169088903390613068565b611b8c6001600160a01b038316873384613068565b604051339086906001600160a01b038916907fd1426f892f3cce4b1085d051aa4be26da2192d8db075f55bc75f185d38ea624b90600090a450506001805550505050565b3360009081526020819052604090205460ff16611c2f5760405162461bcd60e51b815260206004820152600960248201527f554e54525553544544000000000000000000000000000000000000000000000060448201526064016107d5565b600280547fffffffffffffffffffffff0000000000000000000000000000000000000000ff166101006001600160a01b038416908102919091179091556040517f1deeec14e500a86432231bf144d0a12a439494bd11662a44a7e49d868451e74b90600090a250565b6000600154600114611cec5760405162461bcd60e51b815260206004820152600a60248201527f5245454e5452414e43590000000000000000000000000000000000000000000060448201526064016107d5565b6002600155611cf9612ff7565b6001600160a01b0384166000908152600560205260409020547f0100000000000000000000000000000000000000000000000000000000000000900460ff16611d6e576040517ffbf66df100000000000000000000000000000000000000000000000000000000815260040160405180910390fd5b6001600160a01b03808516600090815260066020908152604080832087845290915290205416611dca576040517f1760174300000000000000000000000000000000000000000000000000000000815260040160405180910390fd5b6001600160a01b0384166000908152600560205260409020600201547effffffffffffffffffffffffffffffffffffffffffffffffffffffffffffff16611e15816004908116141590565b8015611e2a5750336001600160a01b03861614155b15611e61576040517f66bed65200000000000000000000000000000000000000000000000000000000815260040160405180910390fd5b6001600160a01b038581166000908152600660209081526040808320888452909152908190205490517f9dc29fac00000000000000000000000000000000000000000000000000000000815233600482015260248101869052911690639dc29fac90604401600060405180830381600087803b158015611ee057600080fd5b505af1158015611ef4573d6000803e3d6000fd5b505050506000611f09338787878860006135aa565b6001600160a01b03871660009081526006602090815260408083208984529091529020600501549091508015158061203b576001600160a01b0388811660009081526006602090815260408083208b8452909152908190206001015490517f9dc29fac00000000000000000000000000000000000000000000000000000000815233600482015260248101899052911690639dc29fac90604401600060405180830381600087803b158015611fbd57600080fd5b505af1158015611fd1573d6000803e3d6000fd5b50505050600880851603612010576001600160a01b03881660009081526007602090815260408083208a84528252808320338452909152902054612038565b6001600160a01b03881660009081526006602090815260408083208a84529091529020600401545b91505b612045868361304c565b945061208b8833878b6001600160a01b031663d4b839926040518163ffffffff1660e01b8152600401602060405180830381865afa158015610ccd573d6000803e3d6000fd5b80612111576040517fb484972a00000000000000000000000000000000000000000000000000000000815233600482015260248101869052600060448201526001600160a01b0389169063b484972a90606401600060405180830381600087803b1580156120f857600080fd5b505af115801561210c573d6000803e3d6000fd5b505050505b60405194830180865294339088906001600160a01b038b16907fc93ef223012fd8a42ae087bcd98f3ea6c91a3596f56fb683451dda1abc5b695c9060200160405180910390a45050600180555090949350505050565b3360009081526020819052604090205460ff166121c65760405162461bcd60e51b815260206004820152600960248201527f554e54525553544544000000000000000000000000000000000000000000000060448201526064016107d5565b600280547fffffffffffffffffff00ffffffffffffffffffffffffffffffffffffffffffff16760100000000000000000000000000000000000000000000831515908102919091179091556040517fdbcdd9941cbf70eec96e3ddaf2d230966f8224f1b7ec8af263cb8ca4803dfe6f90600090a250565b3360009081526020819052604090205460ff1661229c5760405162461bcd60e51b815260206004820152600960248201527f554e54525553544544000000000000000000000000000000000000000000000060448201526064016107d5565b6001600160a01b0380881660009081526006602090815260408083208a8452909152902054166122f8576040517f1760174300000000000000000000000000000000000000000000000000000000815260040160405180910390fd5b6000612a306123078189614982565b6123119190614982565b905080421161234c576040517f852de68200000000000000000000000000000000000000000000000000000000815260040160405180910390fd5b60005b848110156123e9578383828181106123695761236961499a565b6001600160a01b038c1660009081526007602090815260408083208e84528252822092029390930135929091508888858181106123a8576123a861499a565b90506020020160208101906123bd91906145b6565b6001600160a01b03168152602081019190915260400160002055806123e1816149c9565b91505061234f565b50851561266f576001600160a01b0388811660009081526006602081815260408084208c855280835281852082516101208101845281548089168252740100000000000000000000000000000000000000009081900465ffffffffffff16828701526001830154808a16958301959095529093046bffffffffffffffffffffffff16606084015260028101549096166080830152600386015460a0830152600486015460c083015260058601805460e084015295909301546101008201908152938c905291905291889055518711156124e5576001600160a01b03891660009081526006602081815260408084208c8552909152909120018790555b60008060008b6001600160a01b03166327b327d06040518163ffffffff1660e01b8152600401606060405180830381865afa158015612528573d6000803e3d6000fd5b505050506040513d601f19601f8201168201806040525081019061254c91906148ec565b6001600160a01b038f166000908152600560205260408120549396509194509250907f0100000000000000000000000000000000000000000000000000000000000000900460ff166125a25784608001516125c4565b7f00000000000000000000000000000000000000000000000000000000000000005b905061260a8d7f00000000000000000000000000000000000000000000000000000000000000008760a00151876001600160a01b0316613068909392919063ffffffff16565b6000600660008f6001600160a01b03166001600160a01b0316815260200190815260200160002060008e8152602001908152602001600020600301819055506126698d8284866001600160a01b0316613068909392919063ffffffff16565b50505050505b86886001600160a01b03167f9f7c9b961af682670e128c89a9a1d940800d7c3d7693ab5608f21dd2c04d740f88888888886040516126b1959493929190614a01565b60405180910390a35050505050505050565b60006001546001146127175760405162461bcd60e51b815260206004820152600a60248201527f5245454e5452414e43590000000000000000000000000000000000000000000060448201526064016107d5565b6002600155612724612ff7565b6001600160a01b0384166000908152600560205260409020547f0100000000000000000000000000000000000000000000000000000000000000900460ff16612799576040517ffbf66df100000000000000000000000000000000000000000000000000000000815260040160405180910390fd5b6001600160a01b038085166000908152600660209081526040808320878452909152902054166127f5576040517f1760174300000000000000000000000000000000000000000000000000000000815260040160405180910390fd5b6001600160a01b038416600090815260066020908152604080832086845290915290206005015415612853576040517f0de7115500000000000000000000000000000000000000000000000000000000815260040160405180910390fd5b6001600160a01b0384166000908152600560205260409020600201547effffffffffffffffffffffffffffffffffffffffffffffffffffffffffffff1661289e816002908116141590565b80156128b35750336001600160a01b03861614155b156128ea576040517f8159f88400000000000000000000000000000000000000000000000000000000815260040160405180910390fd5b6000856001600160a01b031663d4b839926040518163ffffffff1660e01b8152600401602060405180830381865afa15801561292a573d6000803e3d6000fd5b505050506040513d601f19601f8201168201806040525081019061294e91906148cf565b90506000866001600160a01b031663b8c15a9f6040518163ffffffff1660e01b8152600401602060405180830381865afa158015612990573d6000803e3d6000fd5b505050506040513d601f19601f820116820180604052508101906129b49190614aa5565b6fffffffffffffffffffffffffffffffff16905066b1a2bc2ec50000811115612a09576040517f2e68f33400000000000000000000000000000000000000000000000000000000815260040160405180910390fd5b6000612a158683613f27565b6001600160a01b03891660009081526006602090815260408083208b84529091528120600301805483019055909150612a4e8288614838565b600254909150760100000000000000000000000000000000000000000000900460ff168015612b1857506001600160a01b03898116600081815260056020526040908190206001015490517f70a082310000000000000000000000000000000000000000000000000000000081526004810192909252918991908716906370a0823190602401602060405180830381865afa158015612af1573d6000803e3d6000fd5b505050506040513d601f19601f82011682018060405250810190612b159190614969565b01115b15612b4f576040517f6493914000000000000000000000000000000000000000000000000000000000815260040160405180910390fd5b6040517fb484972a00000000000000000000000000000000000000000000000000000000815233600482015260248101829052600160448201526001600160a01b038a169063b484972a90606401600060405180830381600087803b158015612bb757600080fd5b505af1158015612bcb573d6000803e3d6000fd5b50600092505050600880871603612c4557896001600160a01b031663f51e181a6040518163ffffffff1660e01b81526004016020604051808303816000875af1158015612c1c573d6000803e3d6000fd5b505050506040513d601f19601f82011682018060405250810190612c409190614969565b612c6d565b6001600160a01b038a1660009081526006602090815260408083208c84529091529020600401545b9050612c798282613f27565b6001600160a01b038b1660009081526007602090815260408083208d8452825280832033845290915290205490975015612d64576001600160a01b038a811660009081526006602090815260408083208d8452909152908190206001015490517f70a08231000000000000000000000000000000000000000000000000000000008152336004820152612d5f928d928d929116906370a0823190602401602060405180830381865afa158015612d33573d6000803e3d6000fd5b505050506040513d601f19601f82011682018060405250810190612d579190614969565b8a3386613f3c565b612d66565b805b6001600160a01b038b811660008181526007602090815260408083208f845282528083203380855290835281842096909655928252600681528282208e835290528190205490517f40c10f190000000000000000000000000000000000000000000000000000000081526004810193909352602483018a905216906340c10f1990604401600060405180830381600087803b158015612e0457600080fd5b505af1158015612e18573d6000803e3d6000fd5b505050506001600160a01b038a811660009081526006602090815260408083208d8452909152908190206001015490517f40c10f19000000000000000000000000000000000000000000000000000000008152336004820152602481018a90529116906340c10f1990604401600060405180830381600087803b158015612e9e57600080fd5b505af1158015612eb2573d6000803e3d6000fd5b50612ecc925050506001600160a01b038616338c8b613068565b336001600160a01b0316898b6001600160a01b03167ff75041e6352580ba937fde3a7ff5ff99bd178f75ac104184f85e3abbaaa44fef8a604051612f1291815260200190565b60405180910390a450506001805550929695505050505050565b612f34613fa9565b600280547fffffffffffffffffffffffffffffffffffffffffffffffffffffffffffffff001690557f5db9ee0a495bf2e6ff9c91a7834c1ba4fdd244a5e8aa4e537bd38aeae4b073aa335b6040516001600160a01b03909116815260200160405180910390a1565b612fa4612ff7565b600280547fffffffffffffffffffffffffffffffffffffffffffffffffffffffffffffff001660011790557f62e78cea01bee320cd4e420270b5ea74000d11b0c9f74754ebdbfc544b05a258612f7f3390565b60025460ff161561304a5760405162461bcd60e51b815260206004820152601060248201527f5061757361626c653a207061757365640000000000000000000000000000000060448201526064016107d5565b565b600061306183670de0b6b3a764000084613ffb565b9392505050565b60006040517f23b872dd000000000000000000000000000000000000000000000000000000006000528460045283602452826044526020600060646000808a5af13d15601f3d11600160005114161716915060006060528060405250806131115760405162461bcd60e51b815260206004820152601460248201527f5452414e534645525f46524f4d5f4641494c454400000000000000000000000060448201526064016107d5565b5050505050565b6001600160a01b038216600090815260056020908152604091829020825160808101845281547effffffffffffffffffffffffffffffffffffffffffffffffffffffffffffff80821683527f010000000000000000000000000000000000000000000000000000000000000090910460ff161515938201849052600183015494820194909452600290910154909216606083015282151590036131e7576040517fe2be007400000000000000000000000000000000000000000000000000000000815260040160405180910390fd5b811580156020830152829061321c575080517effffffffffffffffffffffffffffffffffffffffffffffffffffffffffffff16155b156132ce5760038054600090613252907effffffffffffffffffffffffffffffffffffffffffffffffffffffffffffff16614ad7565b82547effffffffffffffffffffffffffffffffffffffffffffffffffffffffffffff9182166101009390930a8381029202191617909155808252600090815260046020526040902080546001600160a01b0385167fffffffffffffffffffffffff00000000000000000000000000000000000000009091161790555b826001600160a01b0316636fd5ae156040518163ffffffff1660e01b8152600401602060405180830381865afa15801561330c573d6000803e3d6000fd5b505050506040513d601f19601f820116820180604052508101906133309190614969565b7effffffffffffffffffffffffffffffffffffffffffffffffffffffffffffff908116606083019081526001600160a01b038516600081815260056020908152604080832087519288015115157f0100000000000000000000000000000000000000000000000000000000000000029287169283178155818801516001820155945160029095018054959096167fff000000000000000000000000000000000000000000000000000000000000009590951694909417909455915185151593927f0a8660585b632de44cbf81e54e8c01c5bbd8737072677676865a86948c57975991a4505050565b6000806000846001600160a01b03166364c56e3c6040518163ffffffff1660e01b81526004016040805180830381865afa15801561345a573d6000803e3d6000fd5b505050506040513d601f19601f8201168201806040525081019061347e9190614b15565b909250905061348d8242614982565b8410806134a2575061349f8142614982565b84115b156134b2576000925050506113f4565b6000806000806134c18861401a565b955095509550955050508260001415806134da57508115155b806134e457508015155b156134f857600096505050505050506113f4565b6000896001600160a01b031663295a52126040518163ffffffff1660e01b8152600401602060405180830381865afa158015613538573d6000803e3d6000fd5b505050506040513d601f19601f8201168201806040525081019061355c9190614969565b90508060000361357857846001149750505050505050506113f4565b8060010361359a576135898961408e565b6001149750505050505050506113f4565b5060009998505050505050505050565b6001600160a01b038086166000908152600660209081526040808320888452909152812054909116613608576040517f1760174300000000000000000000000000000000000000000000000000000000815260040160405180910390fd5b6001600160a01b0386166000908152600560205260409020547f0100000000000000000000000000000000000000000000000000000000000000900460ff1615801561367857506001600160a01b0386166000908152600660209081526040808320888452909152902060050154155b156136af576040517ffbf66df100000000000000000000000000000000000000000000000000000000815260040160405180910390fd5b6001600160a01b0386811660008181526006602081815260408084208b8552825280842081516101208101835281548089168252740100000000000000000000000000000000000000009081900465ffffffffffff16828601526001830154808a1683860152046bffffffffffffffffffffffff16606082015260028083015489166080830152600383015460a0830152600483015460c083015260058084015460e08401529290950154610100820152868652600784528286208d87528452828620978f1686529683528185205495855290915290912001547effffffffffffffffffffffffffffffffffffffffffffffffffffffffffffff81169060089081161461381c576001600160a01b03891660009081526006602090815260408083208b845290915290206005015415613810576001600160a01b03891660009081526006602090815260408083208b8452909152902060040154915061381c565b60009350505050613e8f565b6001600160a01b03891660009081526006602090815260408083208b845290915290206005015415613859576138548a8a8a8a6140c2565b6139b6565b613865612a3089614982565b42111561389e576040517f1c221a6900000000000000000000000000000000000000000000000000000000815260040160405180910390fd5b6000896001600160a01b031663f51e181a6040518163ffffffff1660e01b81526004016020604051808303816000875af11580156138e0573d6000803e3d6000fd5b505050506040513d601f19601f820116820180604052508101906139049190614969565b90508361010001518111156139505761010084018190526001600160a01b03808b1660009081526007602090815260408083208d84528252808320938f168352929052208190556139b4565b836101000151600760008c6001600160a01b03166001600160a01b0316815260200190815260200160002060008b815260200190815260200160002060008d6001600160a01b03166001600160a01b03168152602001908152602001600020819055505b505b60006139d0846101000151896143be90919063ffffffff16565b905060006139de898561304c565b90508181116139ee5760006139f2565b8181035b9550613a388b8d888e6001600160a01b031663d4b839926040518163ffffffff1660e01b8152600401602060405180830381865afa158015610ccd573d6000803e3d6000fd5b6040517fb484972a0000000000000000000000000000000000000000000000000000000081526001600160a01b038d8116600483015260248201889052600060448301528c169063b484972a90606401600060405180830381600087803b158015613aa257600080fd5b505af1158015613ab6573d6000803e3d6000fd5b505050506001600160a01b03871615613cf95760408086015190517f70a082310000000000000000000000000000000000000000000000000000000081526001600160a01b03898116600483015260009216906370a0823190602401602060405180830381865afa158015613b2f573d6000803e3d6000fd5b505050506040513d601f19601f82011682018060405250810190613b539190614969565b905060008111613b6857856101000151613b7b565b613b7b8c8c838c8c8b6101000151613f3c565b600760008e6001600160a01b03166001600160a01b0316815260200190815260200160002060008d815260200190815260200160002060008a6001600160a01b03166001600160a01b03168152602001908152602001600020819055506000613bf28761010001518b61304c90919063ffffffff16565b90508c6001600160a01b031663b484972a8f8360006040518463ffffffff1660e01b8152600401613c43939291906001600160a01b0393909316835260208301919091521515604082015260600190565b600060405180830381600087803b158015613c5d57600080fd5b505af1158015613c71573d6000803e3d6000fd5b505050508c6001600160a01b031663b484972a8a8360016040518463ffffffff1660e01b8152600401613cc4939291906001600160a01b0393909316835260208301919091521515604082015260600190565b600060405180830381600087803b158015613cde57600080fd5b505af1158015613cf2573d6000803e3d6000fd5b5050505050505b84600660008d6001600160a01b03166001600160a01b0316815260200190815260200160002060008c815260200190815260200160002060008201518160000160006101000a8154816001600160a01b0302191690836001600160a01b0316021790555060208201518160000160146101000a81548165ffffffffffff021916908365ffffffffffff16021790555060408201518160010160006101000a8154816001600160a01b0302191690836001600160a01b0316021790555060608201518160010160146101000a8154816bffffffffffffffffffffffff02191690836bffffffffffffffffffffffff16021790555060808201518160020160006101000a8154816001600160a01b0302191690836001600160a01b0316021790555060a0820151816003015560c0820151816004015560e082015181600501556101008201518160060155905050898b6001600160a01b03167f8f0c3d4726e2d22ccf850efced91f2d0c1bea40229449223d795a6cff327623688604051613e8191815260200190565b60405180910390a350505050505b9695505050505050565b600080612a30613ea98185614982565b613eb39190614982565b6001600160a01b038086166000908152600660209081526040808320888452909152902060020154919250163303613f085742613ef2612a3085614838565b11158015613f005750428110155b9150506113f4565b42613f15612a3085614982565b108015613f00575042111590506113f4565b60006130618383670de0b6b3a7640000613ffb565b6000613f9e613f4b858461304c565b6001600160a01b03808a1660009081526007602090815260408083208c8452825280832093891683529290522054613f8490889061304c565b613f8e9190614982565b613f988688614982565b9061304c565b979650505050505050565b60025460ff1661304a5760405162461bcd60e51b815260206004820152601460248201527f5061757361626c653a206e6f742070617573656400000000000000000000000060448201526064016107d5565b82820281151584158583048514171661401357600080fd5b0492915050565b6000808080808061403661403162015180896148bb565b6143d3565b91975095509350600061404c6201518089614b39565b905061405a610e10826148bb565b9350614068610e1082614b39565b9050614075603c826148bb565b9250614082603c82614b39565b91505091939550919395565b60008061409e62015180846148bb565b905060076140ad826003614982565b6140b79190614b39565b613061906001614982565b6001600160a01b038381166000908152600660209081526040808320868452909152908190206001015490517f9dc29fac000000000000000000000000000000000000000000000000000000008152868316600482015260248101849052911690639dc29fac90604401600060405180830381600087803b15801561414657600080fd5b505af115801561415a573d6000803e3d6000fd5b505050506001600160a01b038316600090815260066020908152604080832085845290915281206001015481906141bf907401000000000000000000000000000000000000000090046bffffffffffffffffffffffff16670de0b6b3a7640000614838565b6001600160a01b03861660009081526006602081815260408084208985529091529091209081015460059091015491925082916141fb9161304c565b106142bc576001600160a01b0385166000908152600660209081526040808320878452909152902060050154614231828561484f565b61423b91906148bb565b6001600160a01b0386166000908152600660208181526040808420898552909152909120015461426c90859061304c565b6142769190614838565b91506142bc858784886001600160a01b031663d4b839926040518163ffffffff1660e01b8152600401602060405180830381865afa158015610ccd573d6000803e3d6000fd5b6001600160a01b0385166000818152600660208181526040808420898552909152909120015463b484972a9088906142f59087906143be565b6040517fffffffff0000000000000000000000000000000000000000000000000000000060e085901b1681526001600160a01b039092166004830152602482015260006044820152606401600060405180830381600087803b15801561435a57600080fd5b505af115801561436e573d6000803e3d6000fd5b5050505083856001600160a01b03167f8faabbddb6c4302d219d23d550839874e08536d5b8d2522f3ffa1e2ca054896e846040516143ae91815260200190565b60405180910390a3505050505050565b600061306183670de0b6b3a764000084614547565b60008080838162253d8c6143ea8362010bd9614b4d565b6143f49190614b4d565b9050600062023ab1614407836004614bc1565b6144119190614c7d565b905060046144228262023ab1614bc1565b61442d906003614b4d565b6144379190614c7d565b6144419083614ce5565b9150600062164b09614454846001614b4d565b61446090610fa0614bc1565b61446a9190614c7d565b9050600461447a826105b5614bc1565b6144849190614c7d565b61448e9084614ce5565b61449990601f614b4d565b9250600061098f6144ab856050614bc1565b6144b59190614c7d565b9050600060506144c78361098f614bc1565b6144d19190614c7d565b6144db9086614ce5565b90506144e8600b83614c7d565b94506144f585600c614bc1565b614500836002614b4d565b61450a9190614ce5565b91508483614519603187614ce5565b614524906064614bc1565b61452e9190614b4d565b6145389190614b4d565b9a919950975095505050505050565b82820281151584158583048514171661455f57600080fd5b6001826001830304018115150290509392505050565b6001600160a01b03811681146108c657600080fd5b6000806040838503121561459d57600080fd5b82356145a881614575565b946020939093013593505050565b6000602082840312156145c857600080fd5b813561306181614575565b803580151581146145e357600080fd5b919050565b600080604083850312156145fb57600080fd5b823561460681614575565b9150614614602084016145d3565b90509250929050565b60006020828403121561462f57600080fd5b613061826145d3565b60008060006060848603121561464d57600080fd5b833561465881614575565b95602085013595506040909401359392505050565b60008060006060848603121561468257600080fd5b833561468d81614575565b92506020840135915060408401356146a481614575565b809150509250925092565b6000602082840312156146c157600080fd5b5035919050565b600080600080600060a086880312156146e057600080fd5b85356146eb81614575565b945060208601356146fb81614575565b93506040860135925060608601359150608086013561471981614575565b809150509295509295909350565b60008083601f84011261473957600080fd5b50813567ffffffffffffffff81111561475157600080fd5b6020830191508360208260051b850101111561476c57600080fd5b9250929050565b600080600080600080600060a0888a03121561478e57600080fd5b873561479981614575565b96506020880135955060408801359450606088013567ffffffffffffffff808211156147c457600080fd5b6147d08b838c01614727565b909650945060808a01359150808211156147e957600080fd5b506147f68a828b01614727565b989b979a50959850939692959293505050565b7f4e487b7100000000000000000000000000000000000000000000000000000000600052601160045260246000fd5b60008282101561484a5761484a614809565b500390565b6000817fffffffffffffffffffffffffffffffffffffffffffffffffffffffffffffffff048311821515161561488757614887614809565b500290565b7f4e487b7100000000000000000000000000000000000000000000000000000000600052601260045260246000fd5b6000826148ca576148ca61488c565b500490565b6000602082840312156148e157600080fd5b815161306181614575565b60008060006060848603121561490157600080fd5b835161490c81614575565b602085015190935061491d81614575565b80925050604084015190509250925092565b6000806040838503121561494257600080fd5b825161494d81614575565b602084015190925061495e81614575565b809150509250929050565b60006020828403121561497b57600080fd5b5051919050565b6000821982111561499557614995614809565b500190565b7f4e487b7100000000000000000000000000000000000000000000000000000000600052603260045260246000fd5b60007fffffffffffffffffffffffffffffffffffffffffffffffffffffffffffffffff82036149fa576149fa614809565b5060010190565b85815260606020808301829052908201859052600090869060808401835b88811015614a4d578335614a3281614575565b6001600160a01b031682529282019290820190600101614a1f565b5084810360408601528581527f07ffffffffffffffffffffffffffffffffffffffffffffffffffffffffffffff861115614a8657600080fd5b8560051b92508287838301376000920101908152979650505050505050565b600060208284031215614ab757600080fd5b81516fffffffffffffffffffffffffffffffff8116811461306157600080fd5b60007effffffffffffffffffffffffffffffffffffffffffffffffffffffffffffff808316818103614b0b57614b0b614809565b6001019392505050565b60008060408385031215614b2857600080fd5b505080516020909101519092909150565b600082614b4857614b4861488c565b500690565b6000808212827f7fffffffffffffffffffffffffffffffffffffffffffffffffffffffffffffff03841381151615614b8757614b87614809565b827f8000000000000000000000000000000000000000000000000000000000000000038412811615614bbb57614bbb614809565b50500190565b60007f7fffffffffffffffffffffffffffffffffffffffffffffffffffffffffffffff600084136000841385830485118282161615614c0257614c02614809565b7f80000000000000000000000000000000000000000000000000000000000000006000871286820588128184161615614c3d57614c3d614809565b60008712925087820587128484161615614c5957614c59614809565b87850587128184161615614c6f57614c6f614809565b505050929093029392505050565b600082614c8c57614c8c61488c565b7fffffffffffffffffffffffffffffffffffffffffffffffffffffffffffffffff83147f800000000000000000000000000000000000000000000000000000000000000083141615614ce057614ce0614809565b500590565b6000808312837f800000000000000000000000000000000000000000000000000000000000000001831281151615614d1f57614d1f614809565b837f7fffffffffffffffffffffffffffffffffffffffffffffffffffffffffffffff018313811615614d5357614d53614809565b5050039056fea26469706673582212207c872dbf54bfe64350e39d0829b5353cf6e8dedc14dbc58956d16268cf392c6364736f6c634300080d0033",
    "linkReferences": {}
  },
  "methodIdentifiers": {
    "ISSUANCE_FEE_CAP()": "f2d63d0e",
    "SETTLEMENT_WINDOW()": "3deb6cae",
    "SPONSOR_WINDOW()": "0fe0554d",
    "adapterAddresses(uint256)": "7c917038",
    "adapterCounter()": "c5a067e3",
    "adapterMeta(address)": "0cbe8db1",
    "addAdapter(address)": "60d54d41",
    "backfillScale(address,uint256,uint256,address[],uint256[])": "d10c16a9",
    "collect(address,address,uint256,uint256,address)": "a131ad74",
    "combine(address,uint256,uint256)": "ba89bebd",
    "cup()": "3ad10beb",
    "guarded()": "72f7a030",
    "initSeries(address,uint256,address)": "3e3972ee",
    "isTrusted(address)": "96d64879",
    "issue(address,uint256,uint256)": "dfe5ef48",
    "lscales(address,uint256,address)": "2f9cd854",
    "mscale(address,uint256)": "95197d30",
    "paused()": "5c975abb",
    "periphery()": "77aace1a",
    "permissionless()": "a1256f9f",
    "pt(address,uint256)": "d10eb4b9",
    "redeem(address,uint256,uint256)": "2b83cccd",
    "series(address,uint256)": "0891d30a",
    "setAdapter(address,bool)": "332f6465",
    "setGuard(address,uint256)": "5fa0cc0a",
    "setGuarded(bool)": "c9eb4f98",
    "setIsTrusted(address,bool)": "1393916a",
    "setPaused(bool)": "16c38b3c",
    "setPeriphery(address)": "aeb22934",
    "setPermissionless(bool)": "75708a59",
    "settleSeries(address,uint256)": "a4141638",
    "tokenHandler()": "1b3d6e87",
    "yt(address,uint256)": "574e7795"
  },
  "id": 6
}