{
  "abi": [
    {
      "inputs": [
        {
          "internalType": "address",
          "name": "_fuseDirectory",
          "type": "address"
        },
        {
          "internalType": "address",
          "name": "_comptrollerImpl",
          "type": "address"
        },
        {
          "internalType": "address",
          "name": "_cERC20Impl",
          "type": "address"
        },
        {
          "internalType": "address",
          "name": "_divider",
          "type": "address"
        },
        {
          "internalType": "address",
          "name": "_oracleImpl",
          "type": "address"
        }
      ],
      "stateMutability": "nonpayable",
      "type": "constructor"
    },
    {
      "inputs": [],
      "name": "DuplicateSeries",
      "type": "error"
    },
    {
      "inputs": [],
      "name": "FailedAddLpMarket",
      "type": "error"
    },
    {
      "inputs": [],
      "name": "FailedAddTargetMarket",
      "type": "error"
    },
    {
      "inputs": [],
      "name": "FailedBecomeAdmin",
      "type": "error"
    },
    {
      "inputs": [],
      "name": "FailedToAddPTMarket",
      "type": "error"
    },
    {
      "inputs": [],
      "name": "InvalidParam",
      "type": "error"
    },
    {
      "inputs": [],
      "name": "OracleNotReady",
      "type": "error"
    },
    {
      "inputs": [],
      "name": "PTParamsNotSet",
      "type": "error"
    },
    {
      "inputs": [],
      "name": "PoolNotDeployed",
      "type": "error"
    },
    {
      "inputs": [],
      "name": "PoolParamsNotSet",
      "type": "error"
    },
    {
      "inputs": [],
      "name": "SeriesDoesNotExist",
      "type": "error"
    },
    {
      "inputs": [],
      "name": "SeriesNotQueued",
      "type": "error"
    },
    {
      "inputs": [],
      "name": "TargetNotInFuse",
      "type": "error"
    },
    {
      "inputs": [],
      "name": "TargetParamsNotSet",
      "type": "error"
    },
    {
      "anonymous": false,
      "inputs": [
        {
          "indexed": true,
          "internalType": "bytes32",
          "name": "what",
          "type": "bytes32"
        },
        {
          "components": [
            {
              "internalType": "address",
              "name": "irModel",
              "type": "address"
            },
            {
              "internalType": "uint256",
              "name": "reserveFactor",
              "type": "uint256"
            },
            {
              "internalType": "uint256",
              "name": "collateralFactor",
              "type": "uint256"
            }
          ],
          "indexed": false,
          "internalType": "struct PoolManager.AssetParams",
          "name": "data",
          "type": "tuple"
        }
      ],
      "name": "ParamsSet",
      "type": "event"
    },
    {
      "anonymous": false,
      "inputs": [
        {
          "indexed": false,
          "internalType": "string",
          "name": "name",
          "type": "string"
        },
        {
          "indexed": false,
          "internalType": "address",
          "name": "comptroller",
          "type": "address"
        },
        {
          "indexed": false,
          "internalType": "uint256",
          "name": "poolIndex",
          "type": "uint256"
        },
        {
          "indexed": false,
          "internalType": "uint256",
          "name": "closeFactor",
          "type": "uint256"
        },
        {
          "indexed": false,
          "internalType": "uint256",
          "name": "liqIncentive",
          "type": "uint256"
        }
      ],
      "name": "PoolDeployed",
      "type": "event"
    },
    {
      "anonymous": false,
      "inputs": [
        {
          "indexed": true,
          "internalType": "address",
          "name": "pt",
          "type": "address"
        },
        {
          "indexed": true,
          "internalType": "address",
          "name": "lpToken",
          "type": "address"
        }
      ],
      "name": "SeriesAdded",
      "type": "event"
    },
    {
      "anonymous": false,
      "inputs": [
        {
          "indexed": true,
          "internalType": "address",
          "name": "adapter",
          "type": "address"
        },
        {
          "indexed": true,
          "internalType": "uint256",
          "name": "maturity",
          "type": "uint256"
        },
        {
          "indexed": true,
          "internalType": "address",
          "name": "pool",
          "type": "address"
        }
      ],
      "name": "SeriesQueued",
      "type": "event"
    },
    {
      "anonymous": false,
      "inputs": [
        {
          "indexed": true,
          "internalType": "address",
          "name": "target",
          "type": "address"
        },
        {
          "indexed": true,
          "internalType": "address",
          "name": "cTarget",
          "type": "address"
        }
      ],
      "name": "TargetAdded",
      "type": "event"
    },
    {
      "anonymous": false,
      "inputs": [
        {
          "indexed": true,
          "internalType": "address",
          "name": "user",
          "type": "address"
        },
        {
          "indexed": false,
          "internalType": "bool",
          "name": "trusted",
          "type": "bool"
        }
      ],
      "name": "UserTrustUpdated",
      "type": "event"
    },
    {
      "inputs": [
        {
          "internalType": "address",
          "name": "adapter",
          "type": "address"
        },
        {
          "internalType": "uint256",
          "name": "maturity",
          "type": "uint256"
        }
      ],
      "name": "addSeries",
      "outputs": [
        {
          "internalType": "address",
          "name": "cPT",
          "type": "address"
        },
        {
          "internalType": "address",
          "name": "cLPToken",
          "type": "address"
        }
      ],
      "stateMutability": "nonpayable",
      "type": "function"
    },
    {
      "inputs": [
        {
          "internalType": "address",
          "name": "target",
          "type": "address"
        },
        {
          "internalType": "address",
          "name": "adapter",
          "type": "address"
        }
      ],
      "name": "addTarget",
      "outputs": [
        {
          "internalType": "address",
          "name": "cTarget",
          "type": "address"
        }
      ],
      "stateMutability": "nonpayable",
      "type": "function"
    },
    {
      "inputs": [],
      "name": "cERC20Impl",
      "outputs": [
        {
          "internalType": "address",
          "name": "",
          "type": "address"
        }
      ],
      "stateMutability": "view",
      "type": "function"
    },
    {
      "inputs": [],
      "name": "comptroller",
      "outputs": [
        {
          "internalType": "address",
          "name": "",
          "type": "address"
        }
      ],
      "stateMutability": "view",
      "type": "function"
    },
    {
      "inputs": [],
      "name": "comptrollerImpl",
      "outputs": [
        {
          "internalType": "address",
          "name": "",
          "type": "address"
        }
      ],
      "stateMutability": "view",
      "type": "function"
    },
    {
      "inputs": [
        {
          "internalType": "string",
          "name": "name",
          "type": "string"
        },
        {
          "internalType": "uint256",
          "name": "closeFactor",
          "type": "uint256"
        },
        {
          "internalType": "uint256",
          "name": "liqIncentive",
          "type": "uint256"
        },
        {
          "internalType": "address",
          "name": "fallbackOracle",
          "type": "address"
        }
      ],
      "name": "deployPool",
      "outputs": [
        {
          "internalType": "uint256",
          "name": "_poolIndex",
          "type": "uint256"
        },
        {
          "internalType": "address",
          "name": "_comptroller",
          "type": "address"
        }
      ],
      "stateMutability": "nonpayable",
      "type": "function"
    },
    {
      "inputs": [],
      "name": "divider",
      "outputs": [
        {
          "internalType": "address",
          "name": "",
          "type": "address"
        }
      ],
      "stateMutability": "view",
      "type": "function"
    },
    {
      "inputs": [
        {
          "internalType": "address",
          "name": "to",
          "type": "address"
        },
        {
          "internalType": "uint256",
          "name": "value",
          "type": "uint256"
        },
        {
          "internalType": "bytes",
          "name": "data",
          "type": "bytes"
        },
        {
          "internalType": "uint256",
          "name": "txGas",
          "type": "uint256"
        }
      ],
      "name": "execute",
      "outputs": [
        {
          "internalType": "bool",
          "name": "success",
          "type": "bool"
        }
      ],
      "stateMutability": "nonpayable",
      "type": "function"
    },
    {
      "inputs": [],
      "name": "fuseDirectory",
      "outputs": [
        {
          "internalType": "address",
          "name": "",
          "type": "address"
        }
      ],
      "stateMutability": "view",
      "type": "function"
    },
    {
      "inputs": [
        {
          "internalType": "address",
          "name": "",
          "type": "address"
        }
      ],
      "name": "isTrusted",
      "outputs": [
        {
          "internalType": "bool",
          "name": "",
          "type": "bool"
        }
      ],
      "stateMutability": "view",
      "type": "function"
    },
    {
      "inputs": [],
      "name": "lpOracle",
      "outputs": [
        {
          "internalType": "address",
          "name": "",
          "type": "address"
        }
      ],
      "stateMutability": "view",
      "type": "function"
    },
    {
      "inputs": [],
      "name": "lpTokenParams",
      "outputs": [
        {
          "internalType": "address",
          "name": "irModel",
          "type": "address"
        },
        {
          "internalType": "uint256",
          "name": "reserveFactor",
          "type": "uint256"
        },
        {
          "internalType": "uint256",
          "name": "collateralFactor",
          "type": "uint256"
        }
      ],
      "stateMutability": "view",
      "type": "function"
    },
    {
      "inputs": [],
      "name": "masterOracle",
      "outputs": [
        {
          "internalType": "address",
          "name": "",
          "type": "address"
        }
      ],
      "stateMutability": "view",
      "type": "function"
    },
    {
      "inputs": [],
      "name": "oracleImpl",
      "outputs": [
        {
          "internalType": "address",
          "name": "",
          "type": "address"
        }
      ],
      "stateMutability": "view",
      "type": "function"
    },
    {
      "inputs": [],
      "name": "ptOracle",
      "outputs": [
        {
          "internalType": "address",
          "name": "",
          "type": "address"
        }
      ],
      "stateMutability": "view",
      "type": "function"
    },
    {
      "inputs": [],
      "name": "ptParams",
      "outputs": [
        {
          "internalType": "address",
          "name": "irModel",
          "type": "address"
        },
        {
          "internalType": "uint256",
          "name": "reserveFactor",
          "type": "uint256"
        },
        {
          "internalType": "uint256",
          "name": "collateralFactor",
          "type": "uint256"
        }
      ],
      "stateMutability": "view",
      "type": "function"
    },
    {
      "inputs": [
        {
          "internalType": "address",
          "name": "adapter",
          "type": "address"
        },
        {
          "internalType": "uint256",
          "name": "maturity",
          "type": "uint256"
        },
        {
          "internalType": "address",
          "name": "pool",
          "type": "address"
        }
      ],
      "name": "queueSeries",
      "outputs": [],
      "stateMutability": "nonpayable",
      "type": "function"
    },
    {
      "inputs": [
        {
          "internalType": "address",
          "name": "",
          "type": "address"
        },
        {
          "internalType": "uint256",
          "name": "",
          "type": "uint256"
        }
      ],
      "name": "sSeries",
      "outputs": [
        {
          "internalType": "enum PoolManager.SeriesStatus",
          "name": "status",
          "type": "uint8"
        },
        {
          "internalType": "address",
          "name": "pool",
          "type": "address"
        }
      ],
      "stateMutability": "view",
      "type": "function"
    },
    {
      "inputs": [
        {
          "internalType": "address",
          "name": "user",
          "type": "address"
        },
        {
          "internalType": "bool",
          "name": "trusted",
          "type": "bool"
        }
      ],
      "name": "setIsTrusted",
      "outputs": [],
      "stateMutability": "nonpayable",
      "type": "function"
    },
    {
      "inputs": [
        {
          "internalType": "bytes32",
          "name": "what",
          "type": "bytes32"
        },
        {
          "components": [
            {
              "internalType": "address",
              "name": "irModel",
              "type": "address"
            },
            {
              "internalType": "uint256",
              "name": "reserveFactor",
              "type": "uint256"
            },
            {
              "internalType": "uint256",
              "name": "collateralFactor",
              "type": "uint256"
            }
          ],
          "internalType": "struct PoolManager.AssetParams",
          "name": "data",
          "type": "tuple"
        }
      ],
      "name": "setParams",
      "outputs": [],
      "stateMutability": "nonpayable",
      "type": "function"
    },
    {
      "inputs": [],
      "name": "targetOracle",
      "outputs": [
        {
          "internalType": "address",
          "name": "",
          "type": "address"
        }
      ],
      "stateMutability": "view",
      "type": "function"
    },
    {
      "inputs": [],
      "name": "targetParams",
      "outputs": [
        {
          "internalType": "address",
          "name": "irModel",
          "type": "address"
        },
        {
          "internalType": "uint256",
          "name": "reserveFactor",
          "type": "uint256"
        },
        {
          "internalType": "uint256",
          "name": "collateralFactor",
          "type": "uint256"
        }
      ],
      "stateMutability": "view",
      "type": "function"
    },
    {
      "inputs": [],
      "name": "underlyingOracle",
      "outputs": [
        {
          "internalType": "address",
          "name": "",
          "type": "address"
        }
      ],
      "stateMutability": "view",
      "type": "function"
    }
  ],
  "bytecode": {
    "object": "0x6101a06040523480156200001257600080fd5b5060405162005359380380620053598339810160408190526200003591620001f2565b3360008181526020818152604091829020805460ff19166001908117909155915191825282917fe95aec380cae16330d146d5499ef7db6f3657e477104a733e771bc09e500d986910160405180910390a2506001600160a01b0380861660c05284811660805283811660a05282811660e052811661010052604051620000bb906200019d565b604051809103906000f080158015620000d8573d6000803e3d6000fd5b506001600160a01b031661012052604051620000f490620001ab565b604051809103906000f08015801562000111573d6000803e3d6000fd5b506001600160a01b0316610140526040516200012d90620001b9565b604051809103906000f0801580156200014a573d6000803e3d6000fd5b506001600160a01b0316610160526040516200016690620001c7565b604051809103906000f08015801562000183573d6000803e3d6000fd5b506001600160a01b03166101805250620002629350505050565b6106ef806200302d83390190565b610ea1806200371c83390190565b61076980620045bd83390190565b6106338062004d2683390190565b80516001600160a01b0381168114620001ed57600080fd5b919050565b600080600080600060a086880312156200020b57600080fd5b6200021686620001d5565b94506200022660208701620001d5565b93506200023660408701620001d5565b92506200024660608701620001d5565b91506200025660808701620001d5565b90509295509295909350565b60805160a05160c05160e0516101005161012051610140516101605161018051612cf16200033c60003960008181610202015281816109c60152610a460152600081816101db0152611b0201526000818161019701528181611aae0152611b8201526000818161049d015281816109720152610ae201526000818161032601526113fd01526000818161028b01528181610f66015261183d0152600081816102d9015261153401526000818161025101528181610ccc01528181611d6c0152611f880152600081816102b201526115680152612cf16000f3fe608060405234801561001057600080fd5b506004361061018d5760003560e01c80635fe3b567116100e3578063cd387def1161008c578063e53e268411610066578063e53e268414610498578063eaada382146104bf578063f191f72d146104d257600080fd5b8063cd387def146103f1578063d8deea6914610431578063e1b08b2f1461047d57600080fd5b806371987b15116100bd57806371987b151461037857806374420f4c146103ab57806396d64879146103ce57600080fd5b80635fe3b5671461030e57806366e671fa146103215780636f2cec031461034857600080fd5b80631e75fda81161014557806338d170d01161011f57806338d170d0146102ad5780634fe9a165146102d45780635e883823146102fb57600080fd5b80631e75fda81461024c5780631ec64fef14610273578063378efa371461028657600080fd5b806312c46e611161017657806312c46e61146101fd5780631393916a146102245780631e4134721461023957600080fd5b806305d7b9a214610192578063062b032f146101d6575b600080fd5b6101b97f000000000000000000000000000000000000000000000000000000000000000081565b6040516001600160a01b0390911681526020015b60405180910390f35b6101b97f000000000000000000000000000000000000000000000000000000000000000081565b6101b97f000000000000000000000000000000000000000000000000000000000000000081565b610237610232366004612466565b6104ed565b005b61023761024736600461249f565b6105e7565b6101b97f000000000000000000000000000000000000000000000000000000000000000081565b6101b96102813660046124d7565b610766565b6101b97f000000000000000000000000000000000000000000000000000000000000000081565b6101b97f000000000000000000000000000000000000000000000000000000000000000081565b6101b97f000000000000000000000000000000000000000000000000000000000000000081565b610237610309366004612505565b610eab565b6001546101b9906001600160a01b031681565b6101b97f000000000000000000000000000000000000000000000000000000000000000081565b61035b610356366004612547565b61137d565b604080519283526001600160a01b039091166020830152016101cd565b61038b6103863660046125de565b611703565b604080516001600160a01b039384168152929091166020830152016101cd565b6103be6103b9366004612692565b6122da565b60405190151581526020016101cd565b6103be6103dc366004612736565b60006020819052908152604090205460ff1681565b600954600a54600b5461040c926001600160a01b0316919083565b604080516001600160a01b0390941684526020840192909252908201526060016101cd565b61046f61043f3660046125de565b600c60209081526000928352604080842090915290825290205460ff81169061010090046001600160a01b031682565b6040516101cd929190612789565b60035460045460055461040c926001600160a01b0316919083565b6101b97f000000000000000000000000000000000000000000000000000000000000000081565b6002546101b9906001600160a01b031681565b60065460075460085461040c926001600160a01b0316919083565b3360009081526020819052604090205460ff1661056b576040517f08c379a000000000000000000000000000000000000000000000000000000000815260206004820152600960248201527f554e54525553544544000000000000000000000000000000000000000000000060448201526064015b60405180910390fd5b6001600160a01b0382166000818152602081815260409182902080547fffffffffffffffffffffffffffffffffffffffffffffffffffffffffffffff001685151590811790915591519182527fe95aec380cae16330d146d5499ef7db6f3657e477104a733e771bc09e500d98691015b60405180910390a25050565b3360009081526020819052604090205460ff16610660576040517f08c379a000000000000000000000000000000000000000000000000000000000815260206004820152600960248201527f554e5452555354454400000000000000000000000000000000000000000000006044820152606401610562565b817f50545f504152414d5300000000000000000000000000000000000000000000000361069c5780600661069482826127dc565b905050610736565b817f4c505f544f4b454e5f504152414d530000000000000000000000000000000000036106d05780600961069482826127dc565b817f5441524745545f504152414d5300000000000000000000000000000000000000036107045780600361069482826127dc565b6040517fd252903400000000000000000000000000000000000000000000000000000000815260040160405180910390fd5b817f19343ac82232ade4f61d24859ca30233e9760fe231cc39a90ddf5bd49acb517e826040516105db9190612831565b3360009081526020819052604081205460ff166107df576040517f08c379a000000000000000000000000000000000000000000000000000000000815260206004820152600960248201527f554e5452555354454400000000000000000000000000000000000000000000006044820152606401610562565b6001546001600160a01b0316610821576040517f3945869100000000000000000000000000000000000000000000000000000000815260040160405180910390fd5b6003546001600160a01b0316610863576040517f6bf00ef400000000000000000000000000000000000000000000000000000000815260040160405180910390fd5b6000826001600160a01b0316636f307dc36040518163ffffffff1660e01b8152600401602060405180830381865afa1580156108a3573d6000803e3d6000fd5b505050506040513d601f19601f820116820180604052508101906108c79190612867565b6040805160028082526060820183529293506000929091602083019080368337019050509050848160008151811061090157610901612884565b60200260200101906001600160a01b031690816001600160a01b031681525050818160018151811061093557610935612884565b6001600160a01b039290921660209283029190910182015260408051600280825260608201835260009391929091830190803683370190505090507f0000000000000000000000000000000000000000000000000000000000000000816000815181106109a4576109a4612884565b60200260200101906001600160a01b031690816001600160a01b0316815250507f0000000000000000000000000000000000000000000000000000000000000000816001815181106109f8576109f8612884565b6001600160a01b0392831660209182029290920101526040517f11b04cfa000000000000000000000000000000000000000000000000000000008152848216600482015286821660248201527f0000000000000000000000000000000000000000000000000000000000000000909116906311b04cfa90604401600060405180830381600087803b158015610a8c57600080fd5b505af1158015610aa0573d6000803e3d6000fd5b50506040517f3ecf06bd0000000000000000000000000000000000000000000000000000000081526001600160a01b03898116600483015288811660248301527f0000000000000000000000000000000000000000000000000000000000000000169250633ecf06bd9150604401600060405180830381600087803b158015610b2857600080fd5b505af1158015610b3c573d6000803e3d6000fd5b50506002546040517f9c9192c60000000000000000000000000000000000000000000000000000000081526001600160a01b039091169250639c9192c69150610b8b90859085906004016128f7565b600060405180830381600087803b158015610ba557600080fd5b505af1158015610bb9573d6000803e3d6000fd5b5050600154600354604080517f06fdde030000000000000000000000000000000000000000000000000000000081529051600095508b94506001600160a01b0393841693928316928516916306fdde0391600480830192899291908290030181865afa158015610c2d573d6000803e3d6000fd5b505050506040513d6000823e601f3d908101601f19168201604052610c559190810190612955565b8a6001600160a01b03166395d89b416040518163ffffffff1660e01b8152600401600060405180830381865afa158015610c93573d6000803e3d6000fd5b505050506040513d6000823e601f3d908101601f19168201604052610cbb9190810190612955565b600454604051610cf79695949392917f0000000000000000000000000000000000000000000000000000000000000000916000906020016129ef565b60408051601f19818403018152908290526001546005547faba35b980000000000000000000000000000000000000000000000000000000084529193506000926001600160a01b039091169163aba35b9891610d5a918591879190600401612a6a565b6020604051808303816000875af1158015610d79573d6000803e3d6000fd5b505050506040513d601f19601f82011682018060405250810190610d9d9190612a95565b90508015610dd7576040517f53c72d3d00000000000000000000000000000000000000000000000000000000815260040160405180910390fd5b6001546040517f31ff47fa0000000000000000000000000000000000000000000000000000000081526001600160a01b038a81166004830152909116906331ff47fa90602401602060405180830381865afa158015610e3a573d6000803e3d6000fd5b505050506040513d601f19601f82011682018060405250810190610e5e9190612867565b9550856001600160a01b0316886001600160a01b03167f3ba6ba3fcb7369ef738bc90958eec7a66fb09fe03af0a3f5c4c2863c6b36d2ad60405160405180910390a3505050505092915050565b3360009081526020819052604090205460ff16610f24576040517f08c379a000000000000000000000000000000000000000000000000000000000815260206004820152600960248201527f554e5452555354454400000000000000000000000000000000000000000000006044820152606401610562565b6040517fd10eb4b90000000000000000000000000000000000000000000000000000000081526001600160a01b038481166004830152602482018490526000917f00000000000000000000000000000000000000000000000000000000000000009091169063d10eb4b990604401602060405180830381865afa158015610faf573d6000803e3d6000fd5b505050506040513d601f19601f82011682018060405250810190610fd39190612867565b6001600160a01b031603611013576040517f1760174300000000000000000000000000000000000000000000000000000000815260040160405180910390fd5b6001600160a01b0383166000908152600c6020908152604080832085845290915281205460ff16600281111561104b5761104b61275a565b14611082576040517fd309d88400000000000000000000000000000000000000000000000000000000815260040160405180910390fd5b6000600160009054906101000a90046001600160a01b03166001600160a01b03166331ff47fa856001600160a01b031663d4b839926040518163ffffffff1660e01b8152600401602060405180830381865afa1580156110e6573d6000803e3d6000fd5b505050506040513d601f19601f8201168201806040525081019061110a9190612867565b6040517fffffffff0000000000000000000000000000000000000000000000000000000060e084901b1681526001600160a01b039091166004820152602401602060405180830381865afa158015611166573d6000803e3d6000fd5b505050506040513d601f19601f8201168201806040525081019061118a9190612867565b90506001600160a01b0381166111cc576040517f2f6924d100000000000000000000000000000000000000000000000000000000815260040160405180910390fd5b6001546040517f8e8f294b0000000000000000000000000000000000000000000000000000000081526001600160a01b0383811660048301526000921690638e8f294b906024016040805180830381865afa15801561122f573d6000803e3d6000fd5b505050506040513d601f19601f820116820180604052508101906112539190612aae565b5090508061128d576040517f2f6924d100000000000000000000000000000000000000000000000000000000815260040160405180910390fd5b6040805180820190915280600181526001600160a01b0380861660209283015287166000908152600c82526040808220888352909252208151815482907fffffffffffffffffffffffffffffffffffffffffffffffffffffffffffffff001660018360028111156113005761130061275a565b02179055506020919091015181547fffffffffffffffffffffff0000000000000000000000000000000000000000ff166101006001600160a01b039283160217909155604051848216918691908816907f02f6226cb15bc6c090b3bcd5d2443620fe13f5d3675a554b09b91cd344ac52bb90600090a45050505050565b33600090815260208190526040812054819060ff166113f8576040517f08c379a000000000000000000000000000000000000000000000000000000000815260206004820152600960248201527f554e5452555354454400000000000000000000000000000000000000000000006044820152606401610562565b6114477f00000000000000000000000000000000000000000000000000000000000000003060601b7fffffffffffffffffffffffffffffffffffffffff00000000000000000000000016612369565b600280547fffffffffffffffffffffffff0000000000000000000000000000000000000000166001600160a01b0392909216918217905560408051600080825260208201908152818301928390527f278aa1460000000000000000000000000000000000000000000000000000000090925263278aa146916114d191908730600160448501612adc565b600060405180830381600087803b1580156114eb57600080fd5b505af11580156114ff573d6000803e3d6000fd5b50506002546040517f5710c6d80000000000000000000000000000000000000000000000000000000081526001600160a01b037f000000000000000000000000000000000000000000000000000000000000000081169450635710c6d89350611599928c928c927f0000000000000000000000000000000000000000000000000000000000000000926000928e928e921690600401612b56565b60408051808303816000875af11580156115b7573d6000803e3d6000fd5b505050506040513d601f19601f820116820180604052508101906115db9190612ba5565b80925081935050506000816001600160a01b031663e9c714f26040518163ffffffff1660e01b81526004016020604051808303816000875af1158015611625573d6000803e3d6000fd5b505050506040513d601f19601f820116820180604052508101906116499190612a95565b90508015611683576040517f9782db4a00000000000000000000000000000000000000000000000000000000815260040160405180910390fd5b600180547fffffffffffffffffffffffff0000000000000000000000000000000000000000166001600160a01b0384161790556040517f200a9e26954b1b18425cdd75101b3db8dae378a7e43369b4a5acf31252409f40906116f0908a908a90869088908c908c90612bca565b60405180910390a1509550959350505050565b60008060016001600160a01b0385166000908152600c6020908152604080832087845290915290205460ff1660028111156117405761174061275a565b14611777576040517f662e50ac00000000000000000000000000000000000000000000000000000000815260040160405180910390fd5b6006546001600160a01b03166117b9576040517f24df3c2300000000000000000000000000000000000000000000000000000000815260040160405180910390fd5b6009546001600160a01b03166117fb576040517f98d12d3e00000000000000000000000000000000000000000000000000000000815260040160405180910390fd5b6040517fd10eb4b90000000000000000000000000000000000000000000000000000000081526001600160a01b038581166004830152602482018590526000917f00000000000000000000000000000000000000000000000000000000000000009091169063d10eb4b990604401602060405180830381865afa158015611886573d6000803e3d6000fd5b505050506040513d601f19601f820116820180604052508101906118aa9190612867565b6001600160a01b038087166000908152600c6020908152604080832089845282528083205481517fb48b5b400000000000000000000000000000000000000000000000000000000081529151959650610100900490931693919284926360d1507c92600192859263b48b5b40926004808401939192918290030181865afa158015611939573d6000803e3d6000fd5b505050506040513d601f19601f8201168201806040525081019061195d9190612a95565b6119679190612c0c565b6040518263ffffffff1660e01b815260040161198591815260200190565b60e060405180830381865afa1580156119a2573d6000803e3d6000fd5b505050506040513d601f19601f820116820180604052508101906119c69190612c4a565b965050505050505080600003611a08576040517f6e155fc600000000000000000000000000000000000000000000000000000000815260040160405180910390fd5b6040805160028082526060820183526000926020830190803683370190505090508381600081518110611a3d57611a3d612884565b60200260200101906001600160a01b031690816001600160a01b0316815250508281600181518110611a7157611a71612884565b6001600160a01b039290921660209283029190910182015260408051600280825260608201835260009391929091830190803683370190505090507f000000000000000000000000000000000000000000000000000000000000000081600081518110611ae057611ae0612884565b60200260200101906001600160a01b031690816001600160a01b0316815250507f000000000000000000000000000000000000000000000000000000000000000081600181518110611b3457611b34612884565b6001600160a01b0392831660209182029290920101526040517f2b7f9ab5000000000000000000000000000000000000000000000000000000008152868216600482015285821660248201527f000000000000000000000000000000000000000000000000000000000000000090911690632b7f9ab590604401600060405180830381600087803b158015611bc857600080fd5b505af1158015611bdc573d6000803e3d6000fd5b50506002546040517f9c9192c60000000000000000000000000000000000000000000000000000000081526001600160a01b039091169250639c9192c69150611c2b90859085906004016128f7565b600060405180830381600087803b158015611c4557600080fd5b505af1158015611c59573d6000803e3d6000fd5b5050600154600654604080517f06fdde030000000000000000000000000000000000000000000000000000000081529051600095508a94506001600160a01b0393841693928316928516916306fdde0391600480830192899291908290030181865afa158015611ccd573d6000803e3d6000fd5b505050506040513d6000823e601f3d908101601f19168201604052611cf59190810190612955565b896001600160a01b03166395d89b416040518163ffffffff1660e01b8152600401600060405180830381865afa158015611d33573d6000803e3d6000fd5b505050506040513d6000823e601f3d908101601f19168201604052611d5b9190810190612955565b600754604051611d979695949392917f0000000000000000000000000000000000000000000000000000000000000000916000906020016129ef565b60408051601f19818403018152908290526001546008547faba35b980000000000000000000000000000000000000000000000000000000084529193506000926001600160a01b039091169163aba35b9891611dfa918591879190600401612a6a565b6020604051808303816000875af1158015611e19573d6000803e3d6000fd5b505050506040513d601f19601f82011682018060405250810190611e3d9190612a95565b90508015611e77576040517f4158dfcd00000000000000000000000000000000000000000000000000000000815260040160405180910390fd5b600154600954604080517f06fdde0300000000000000000000000000000000000000000000000000000000815290516000938a936001600160a01b039182169390821692918516916306fdde039160048082019289929091908290030181865afa158015611ee9573d6000803e3d6000fd5b505050506040513d6000823e601f3d908101601f19168201604052611f119190810190612955565b8a6001600160a01b03166395d89b416040518163ffffffff1660e01b8152600401600060405180830381865afa158015611f4f573d6000803e3d6000fd5b505050506040513d6000823e601f3d908101601f19168201604052611f779190810190612955565b600a54604051611fb39695949392917f0000000000000000000000000000000000000000000000000000000000000000916000906020016129ef565b60408051601f1981840301815290829052600154600b547faba35b980000000000000000000000000000000000000000000000000000000084529193506000926001600160a01b039091169163aba35b9891612016918591879190600401612a6a565b6020604051808303816000875af1158015612035573d6000803e3d6000fd5b505050506040513d601f19601f820116820180604052508101906120599190612a95565b90508015612093576040517f185bfbc000000000000000000000000000000000000000000000000000000000815260040160405180910390fd5b6001546040517f31ff47fa0000000000000000000000000000000000000000000000000000000081526001600160a01b038b81166004830152909116906331ff47fa90602401602060405180830381865afa1580156120f6573d6000803e3d6000fd5b505050506040513d601f19601f8201168201806040525081019061211a9190612867565b6001546040517f31ff47fa0000000000000000000000000000000000000000000000000000000081526001600160a01b038b81166004830152929d509116906331ff47fa90602401602060405180830381865afa15801561217f573d6000803e3d6000fd5b505050506040513d601f19601f820116820180604052508101906121a39190612867565b600180546040517f18c882a50000000000000000000000000000000000000000000000000000000081526001600160a01b0380851660048301526024820193909352929c5016906318c882a5906044016020604051808303816000875af1158015612212573d6000803e3d6000fd5b505050506040513d601f19601f820116820180604052508101906122369190612c9e565b506001600160a01b038d166000908152600c602090815260408083208f845290915290208054600291907fffffffffffffffffffffffffffffffffffffffffffffffffffffffffffffff00166001830217905550876001600160a01b0316896001600160a01b03167f8d522d548d59788ba6bc4204397b0769e9d1f34961a0a60bdade4c473f30e91460405160405180910390a35050505050505050509250929050565b3360009081526020819052604081205460ff16612353576040517f08c379a000000000000000000000000000000000000000000000000000000000815260206004820152600960248201527f554e5452555354454400000000000000000000000000000000000000000000006044820152606401610562565b600080845160208601878987f195945050505050565b60006040517f3d602d80600a3d3981f3363d3d373d3d3d363d7300000000000000000000000081528360601b60148201527f5af43d82803e903d91602b57fd5bf300000000000000000000000000000000006028820152826037826000f59150506001600160a01b03811661243a576040517f08c379a000000000000000000000000000000000000000000000000000000000815260206004820152601760248201527f455243313136373a2063726561746532206661696c65640000000000000000006044820152606401610562565b92915050565b6001600160a01b038116811461245557600080fd5b50565b801515811461245557600080fd5b6000806040838503121561247957600080fd5b823561248481612440565b9150602083013561249481612458565b809150509250929050565b60008082840360808112156124b357600080fd5b833592506060601f19820112156124c957600080fd5b506020830190509250929050565b600080604083850312156124ea57600080fd5b82356124f581612440565b9150602083013561249481612440565b60008060006060848603121561251a57600080fd5b833561252581612440565b925060208401359150604084013561253c81612440565b809150509250925092565b60008060008060006080868803121561255f57600080fd5b853567ffffffffffffffff8082111561257757600080fd5b818801915088601f83011261258b57600080fd5b81358181111561259a57600080fd5b8960208285010111156125ac57600080fd5b6020928301975095505086013592506040860135915060608601356125d081612440565b809150509295509295909350565b600080604083850312156125f157600080fd5b82356125fc81612440565b946020939093013593505050565b7f4e487b7100000000000000000000000000000000000000000000000000000000600052604160045260246000fd5b604051601f8201601f1916810167ffffffffffffffff811182821017156126625761266261260a565b604052919050565b600067ffffffffffffffff8211156126845761268461260a565b50601f01601f191660200190565b600080600080608085870312156126a857600080fd5b84356126b381612440565b935060208501359250604085013567ffffffffffffffff8111156126d657600080fd5b8501601f810187136126e757600080fd5b80356126fa6126f58261266a565b612639565b81815288602083850101111561270f57600080fd5b81602084016020830137600091810160200191909152949793965093946060013593505050565b60006020828403121561274857600080fd5b813561275381612440565b9392505050565b7f4e487b7100000000000000000000000000000000000000000000000000000000600052602160045260246000fd5b60408101600384106127c4577f4e487b7100000000000000000000000000000000000000000000000000000000600052602160045260246000fd5b9281526001600160a01b039190911660209091015290565b81356127e781612440565b6001600160a01b0381167fffffffffffffffffffffffff00000000000000000000000000000000000000008354161782555060208201356001820155604082013560028201555050565b60608101823561284081612440565b6001600160a01b038116835250602083013560208301526040830135604083015292915050565b60006020828403121561287957600080fd5b815161275381612440565b7f4e487b7100000000000000000000000000000000000000000000000000000000600052603260045260246000fd5b600081518084526020808501945080840160005b838110156128ec5781516001600160a01b0316875295820195908201906001016128c7565b509495945050505050565b60408152600061290a60408301856128b3565b828103602084015261291c81856128b3565b95945050505050565b60005b83811015612940578181015183820152602001612928565b8381111561294f576000848401525b50505050565b60006020828403121561296757600080fd5b815167ffffffffffffffff81111561297e57600080fd5b8201601f8101841361298f57600080fd5b805161299d6126f58261266a565b8181528560208385010111156129b257600080fd5b61291c826020830160208601612925565b600081518084526129db816020860160208601612925565b601f01601f19169290920160200192915050565b60006101206001600160a01b03808c168452808b166020850152808a166040850152816060850152612a238285018a6129c3565b91508382036080850152612a3782896129c3565b961660a0840152505080840360c08201526000845260e081019290925260ff166101009091015260200195945050505050565b8315158152606060208201526000612a8560608301856129c3565b9050826040830152949350505050565b600060208284031215612aa757600080fd5b5051919050565b60008060408385031215612ac157600080fd5b8251612acc81612458565b6020939093015192949293505050565b60a081526000612aef60a08301886128b3565b8281036020840152612b0181886128b3565b6001600160a01b039687166040850152949095166060830152509015156080909101529392505050565b818352818160208501375060006020828401015260006020601f19601f840116840101905092915050565b60c081526000612b6a60c08301898b612b2b565b90506001600160a01b038088166020840152861515604084015285606084015284608084015280841660a08401525098975050505050505050565b60008060408385031215612bb857600080fd5b82519150602083015161249481612440565b60a081526000612bde60a08301888a612b2b565b90506001600160a01b0386166020830152846040830152836060830152826080830152979650505050505050565b600082821015612c45577f4e487b7100000000000000000000000000000000000000000000000000000000600052601160045260246000fd5b500390565b600080600080600080600060e0888a031215612c6557600080fd5b5050855160208701516040880151606089015160808a015160a08b015160c0909b0151949c939b50919990985090965094509092509050565b600060208284031215612cb057600080fd5b81516127538161245856fea26469706673582212204c2a30c8c5f1e6044266ebfaf5b99a2e2db7272c90b414598950a361e437d66c64736f6c634300080d0033608060405234801561001057600080fd5b503360008181526020818152604091829020805460ff19166001908117909155915191825282917fe95aec380cae16330d146d5499ef7db6f3657e477104a733e771bc09e500d986910160405180910390a25061067d806100726000396000f3fe608060405234801561001057600080fd5b506004361061007d5760003560e01c806396d648791161005b57806396d64879146100c7578063aea91078146100ea578063e5711ffc1461010b578063fc57d4df1461016657600080fd5b80631393916a146100825780633ecf06bd1461009757806366331bba146100aa575b600080fd5b610095610090366004610588565b610179565b005b6100956100a53660046105c6565b61027f565b6100b2600181565b60405190151581526020015b60405180910390f35b6100b26100d53660046105f4565b60006020819052908152604090205460ff1681565b6100fd6100f83660046105f4565b61034b565b6040519081526020016100be565b6101416101193660046105f4565b60016020526000908152604090205473ffffffffffffffffffffffffffffffffffffffff1681565b60405173ffffffffffffffffffffffffffffffffffffffff90911681526020016100be565b6100fd6101743660046105f4565b61035c565b3360009081526020819052604090205460ff166101f7576040517f08c379a000000000000000000000000000000000000000000000000000000000815260206004820152600960248201527f554e54525553544544000000000000000000000000000000000000000000000060448201526064015b60405180910390fd5b73ffffffffffffffffffffffffffffffffffffffff82166000818152602081815260409182902080547fffffffffffffffffffffffffffffffffffffffffffffffffffffffffffffff001685151590811790915591519182527fe95aec380cae16330d146d5499ef7db6f3657e477104a733e771bc09e500d986910160405180910390a25050565b3360009081526020819052604090205460ff166102f8576040517f08c379a000000000000000000000000000000000000000000000000000000000815260206004820152600960248201527f554e54525553544544000000000000000000000000000000000000000000000060448201526064016101ee565b73ffffffffffffffffffffffffffffffffffffffff918216600090815260016020526040902080547fffffffffffffffffffffffff00000000000000000000000000000000000000001691909216179055565b6000610356826103e0565b92915050565b6000808273ffffffffffffffffffffffffffffffffffffffff16636f307dc36040518163ffffffff1660e01b8152600401602060405180830381865afa1580156103aa573d6000803e3d6000fd5b505050506040513d601f19601f820116820180604052508101906103ce9190610611565b90506103d9816103e0565b9392505050565b73ffffffffffffffffffffffffffffffffffffffff80821660009081526001602052604081205490911680610441576040517fa091855e00000000000000000000000000000000000000000000000000000000815260040160405180910390fd5b60008173ffffffffffffffffffffffffffffffffffffffff1663226778496040518163ffffffff1660e01b8152600401602060405180830381865afa15801561048e573d6000803e3d6000fd5b505050506040513d601f19601f820116820180604052508101906104b2919061062e565b905061052d8273ffffffffffffffffffffffffffffffffffffffff1663468f02d26040518163ffffffff1660e01b8152600401602060405180830381865afa158015610502573d6000803e3d6000fd5b505050506040513d601f19601f82011682018060405250810190610526919061062e565b8290610535565b949350505050565b60006103d98383670de0b6b3a7640000818302838104831484151760011661055c57600080fd5b0492915050565b73ffffffffffffffffffffffffffffffffffffffff8116811461058557600080fd5b50565b6000806040838503121561059b57600080fd5b82356105a681610563565b9150602083013580151581146105bb57600080fd5b809150509250929050565b600080604083850312156105d957600080fd5b82356105e481610563565b915060208301356105bb81610563565b60006020828403121561060657600080fd5b81356103d981610563565b60006020828403121561062357600080fd5b81516103d981610563565b60006020828403121561064057600080fd5b505191905056fea264697066735822122036ec024ccb870e85f55d647bf07a1ec8da7cb613318de9bb0a2f551cf336b40a64736f6c634300080d0033608060405234801561001057600080fd5b503360008181526020818152604091829020805460ff19166001908117909155915191825282917fe95aec380cae16330d146d5499ef7db6f3657e477104a733e771bc09e500d986910160405180910390a2506729a2241af62c0000600255614d58600355610e1d806100846000396000f3fe608060405234801561001057600080fd5b50600436106100c95760003560e01c806396d6487911610081578063b371e4ce1161005b578063b371e4ce146101d8578063f6207326146101e1578063fc57d4df146101ea57600080fd5b806396d6487914610139578063a4063dbc1461015c578063aea91078146101b757600080fd5b8063501f34ce116100b2578063501f34ce146100f65780635e657adf1461010957806366331bba1461011c57600080fd5b80631393916a146100ce5780632b7f9ab5146100e3575b600080fd5b6100e16100dc366004610abf565b6101fd565b005b6100e16100f1366004610afd565b610303565b6100e1610104366004610b2b565b6103cf565b6100e1610117366004610b2b565b61044d565b610124600181565b60405190151581526020015b60405180910390f35b610124610147366004610b44565b60006020819052908152604090205460ff1681565b61019261016a366004610b44565b60016020526000908152604090205473ffffffffffffffffffffffffffffffffffffffff1681565b60405173ffffffffffffffffffffffffffffffffffffffff9091168152602001610130565b6101ca6101c5366004610b44565b6104cb565b604051908152602001610130565b6101ca60025481565b6101ca60035481565b6101ca6101f8366004610b44565b6104dc565b3360009081526020819052604090205460ff1661027b576040517f08c379a000000000000000000000000000000000000000000000000000000000815260206004820152600960248201527f554e54525553544544000000000000000000000000000000000000000000000060448201526064015b60405180910390fd5b73ffffffffffffffffffffffffffffffffffffffff82166000818152602081815260409182902080547fffffffffffffffffffffffffffffffffffffffffffffffffffffffffffffff001685151590811790915591519182527fe95aec380cae16330d146d5499ef7db6f3657e477104a733e771bc09e500d986910160405180910390a25050565b3360009081526020819052604090205460ff1661037c576040517f08c379a000000000000000000000000000000000000000000000000000000000815260206004820152600960248201527f554e5452555354454400000000000000000000000000000000000000000000006044820152606401610272565b73ffffffffffffffffffffffffffffffffffffffff918216600090815260016020526040902080547fffffffffffffffffffffffff00000000000000000000000000000000000000001691909216179055565b3360009081526020819052604090205460ff16610448576040517f08c379a000000000000000000000000000000000000000000000000000000000815260206004820152600960248201527f554e5452555354454400000000000000000000000000000000000000000000006044820152606401610272565b600255565b3360009081526020819052604090205460ff166104c6576040517f08c379a000000000000000000000000000000000000000000000000000000000815260206004820152600960248201527f554e5452555354454400000000000000000000000000000000000000000000006044820152606401610272565b600355565b60006104d682610550565b92915050565b60006104d68273ffffffffffffffffffffffffffffffffffffffff16636f307dc36040518163ffffffff1660e01b8152600401602060405180830381865afa15801561052c573d6000803e3d6000fd5b505050506040513d601f19601f820116820180604052508101906105509190610b61565b73ffffffffffffffffffffffffffffffffffffffff808216600090815260016020526040812054909116806105b1576040517f3c67586300000000000000000000000000000000000000000000000000000000815260040160405180910390fd5b60008173ffffffffffffffffffffffffffffffffffffffff166360d1507c60018473ffffffffffffffffffffffffffffffffffffffff1663b48b5b406040518163ffffffff1660e01b8152600401602060405180830381865afa15801561061c573d6000803e3d6000fd5b505050506040513d601f19601f820116820180604052508101906106409190610b7e565b61064a9190610b97565b6040518263ffffffff1660e01b815260040161066891815260200190565b60e060405180830381865afa158015610685573d6000803e3d6000fd5b505050506040513d601f19601f820116820180604052508101906106a99190610bd5565b9650505050505050806000036106eb576040517f6e155fc600000000000000000000000000000000000000000000000000000000815260040160405180910390fd5b604080516001808252818301909252600091816020015b6107276040805160608101909152806000815260200160008152602001600081525090565b81526020019060019003908161070257905050604080516060810190915290915080600181526020016003548152602001610e108152508160008151811061077157610771610c58565b602002602001018190525060008373ffffffffffffffffffffffffffffffffffffffff16631dccd830836040518263ffffffff1660e01b81526004016107b79190610c87565b600060405180830381865afa1580156107d4573d6000803e3d6000fd5b505050506040513d6000823e601f3d9081017fffffffffffffffffffffffffffffffffffffffffffffffffffffffffffffffe016820160405261081a9190810190610d17565b905060008160008151811061083157610831610c58565b6020026020010151905060025481111561084a57506002545b60008573ffffffffffffffffffffffffffffffffffffffff166303eadcfc6040518163ffffffff1660e01b8152600401602060405180830381865afa158015610897573d6000803e3d6000fd5b505050506040513d601f19601f820116820180604052508101906108bb9190610b61565b73ffffffffffffffffffffffffffffffffffffffff1663d4b839926040518163ffffffff1660e01b8152600401602060405180830381865afa158015610905573d6000803e3d6000fd5b505050506040513d601f19601f820116820180604052508101906109299190610b61565b6040517faea9107800000000000000000000000000000000000000000000000000000000815273ffffffffffffffffffffffffffffffffffffffff82166004820152909150610a5390339063aea9107890602401602060405180830381865afa15801561099a573d6000803e3d6000fd5b505050506040513d601f19601f820116820180604052508101906109be9190610b7e565b6040517ff3f586e50000000000000000000000000000000000000000000000000000000081526004810185905273ffffffffffffffffffffffffffffffffffffffff89169063f3f586e590602401602060405180830381865afa158015610a29573d6000803e3d6000fd5b505050506040513d601f19601f82011682018060405250810190610a4d9190610b7e565b90610a5f565b98975050505050505050565b6000610a748383670de0b6b3a7640000610a7b565b9392505050565b828202811515841585830485141716610a9357600080fd5b0492915050565b73ffffffffffffffffffffffffffffffffffffffff81168114610abc57600080fd5b50565b60008060408385031215610ad257600080fd5b8235610add81610a9a565b915060208301358015158114610af257600080fd5b809150509250929050565b60008060408385031215610b1057600080fd5b8235610b1b81610a9a565b91506020830135610af281610a9a565b600060208284031215610b3d57600080fd5b5035919050565b600060208284031215610b5657600080fd5b8135610a7481610a9a565b600060208284031215610b7357600080fd5b8151610a7481610a9a565b600060208284031215610b9057600080fd5b5051919050565b600082821015610bd0577f4e487b7100000000000000000000000000000000000000000000000000000000600052601160045260246000fd5b500390565b600080600080600080600060e0888a031215610bf057600080fd5b5050855160208701516040880151606089015160808a015160a08b015160c0909b0151949c939b50919990985090965094509092509050565b7f4e487b7100000000000000000000000000000000000000000000000000000000600052604160045260246000fd5b7f4e487b7100000000000000000000000000000000000000000000000000000000600052603260045260246000fd5b60208082528251828201819052600091906040908185019086840185805b83811015610d09578251805160038110610ce6577f4e487b710000000000000000000000000000000000000000000000000000000084526021600452602484fd5b865280880151888701528601518686015260609094019391860191600101610ca5565b509298975050505050505050565b60006020808385031215610d2a57600080fd5b825167ffffffffffffffff80821115610d4257600080fd5b818501915085601f830112610d5657600080fd5b815181811115610d6857610d68610c29565b8060051b6040517fffffffffffffffffffffffffffffffffffffffffffffffffffffffffffffffe0603f83011681018181108582111715610dab57610dab610c29565b604052918252848201925083810185019188831115610dc957600080fd5b938501935b82851015610a5357845184529385019392850192610dce56fea2646970667358221220536c2c88f6e08bd7d8ec645a4ff6982349de25cdc53d56ced6238d9a06c5641164736f6c634300080d0033608060405234801561001057600080fd5b503360008181526020818152604091829020805460ff19166001908117909155915191825282917fe95aec380cae16330d146d5499ef7db6f3657e477104a733e771bc09e500d986910160405180910390a250614d586002556106f1806100786000396000f3fe608060405234801561001057600080fd5b50600436106100885760003560e01c8063a4063dbc1161005b578063a4063dbc146100f5578063aea9107814610150578063f620732614610171578063fc57d4df1461017a57600080fd5b80631393916a1461008d5780635e657adf146100a257806366331bba146100b557806396d64879146100d2575b600080fd5b6100a061009b366004610611565b61018d565b005b6100a06100b036600461064f565b610293565b6100bd600181565b60405190151581526020015b60405180910390f35b6100bd6100e0366004610668565b60006020819052908152604090205460ff1681565b61012b610103366004610668565b60016020526000908152604090205473ffffffffffffffffffffffffffffffffffffffff1681565b60405173ffffffffffffffffffffffffffffffffffffffff90911681526020016100c9565b61016361015e366004610668565b610311565b6040519081526020016100c9565b61016360025481565b610163610188366004610668565b610322565b3360009081526020819052604090205460ff1661020b576040517f08c379a000000000000000000000000000000000000000000000000000000000815260206004820152600960248201527f554e54525553544544000000000000000000000000000000000000000000000060448201526064015b60405180910390fd5b73ffffffffffffffffffffffffffffffffffffffff82166000818152602081815260409182902080547fffffffffffffffffffffffffffffffffffffffffffffffffffffffffffffff001685151590811790915591519182527fe95aec380cae16330d146d5499ef7db6f3657e477104a733e771bc09e500d986910160405180910390a25050565b3360009081526020819052604090205460ff1661030c576040517f08c379a000000000000000000000000000000000000000000000000000000000815260206004820152600960248201527f554e5452555354454400000000000000000000000000000000000000000000006044820152606401610202565b600255565b600061031c82610396565b92915050565b600061031c8273ffffffffffffffffffffffffffffffffffffffff16636f307dc36040518163ffffffff1660e01b8152600401602060405180830381865afa158015610372573d6000803e3d6000fd5b505050506040513d601f19601f820116820180604052508101906103969190610685565b60008082905060008173ffffffffffffffffffffffffffffffffffffffff166303eadcfc6040518163ffffffff1660e01b8152600401602060405180830381865afa1580156103e9573d6000803e3d6000fd5b505050506040513d601f19601f8201168201806040525081019061040d9190610685565b73ffffffffffffffffffffffffffffffffffffffff1663d4b839926040518163ffffffff1660e01b8152600401602060405180830381865afa158015610457573d6000803e3d6000fd5b505050506040513d601f19601f8201168201806040525081019061047b9190610685565b6040517faea9107800000000000000000000000000000000000000000000000000000000815273ffffffffffffffffffffffffffffffffffffffff821660048201529091506105a990339063aea9107890602401602060405180830381865afa1580156104ec573d6000803e3d6000fd5b505050506040513d601f19601f8201168201806040525081019061051091906106a2565b6002546040517fa503e628000000000000000000000000000000000000000000000000000000008152600481019190915273ffffffffffffffffffffffffffffffffffffffff85169063a503e62890602401602060405180830381865afa15801561057f573d6000803e3d6000fd5b505050506040513d601f19601f820116820180604052508101906105a391906106a2565b906105b1565b949350505050565b60006105c68383670de0b6b3a76400006105cd565b9392505050565b8282028115158415858304851417166105e557600080fd5b0492915050565b73ffffffffffffffffffffffffffffffffffffffff8116811461060e57600080fd5b50565b6000806040838503121561062457600080fd5b823561062f816105ec565b91506020830135801515811461064457600080fd5b809150509250929050565b60006020828403121561066157600080fd5b5035919050565b60006020828403121561067a57600080fd5b81356105c6816105ec565b60006020828403121561069757600080fd5b81516105c6816105ec565b6000602082840312156106b457600080fd5b505191905056fea2646970667358221220e3430518d7812bf5eff2977da3a7667b69c041c69ac5c08e4adcf64a544a52ff64736f6c634300080d0033608060405234801561001057600080fd5b503360008181526020818152604091829020805460ff19166001908117909155915191825282917fe95aec380cae16330d146d5499ef7db6f3657e477104a733e771bc09e500d986910160405180910390a2506105c1806100726000396000f3fe608060405234801561001057600080fd5b506004361061007d5760003560e01c806396d648791161005b57806396d64879146100c7578063aea91078146100ea578063e5711ffc1461010b578063fc57d4df1461016657600080fd5b806311b04cfa146100825780631393916a1461009757806366331bba146100aa575b600080fd5b6100956100903660046104cc565b610179565b005b6100956100a5366004610505565b61024a565b6100b2600181565b60405190151581526020015b60405180910390f35b6100b26100d5366004610538565b60006020819052908152604090205460ff1681565b6100fd6100f8366004610538565b61034b565b6040519081526020016100be565b610141610119366004610538565b60016020526000908152604090205473ffffffffffffffffffffffffffffffffffffffff1681565b60405173ffffffffffffffffffffffffffffffffffffffff90911681526020016100be565b6100fd610174366004610538565b61035c565b3360009081526020819052604090205460ff166101f7576040517f08c379a000000000000000000000000000000000000000000000000000000000815260206004820152600960248201527f554e54525553544544000000000000000000000000000000000000000000000060448201526064015b60405180910390fd5b73ffffffffffffffffffffffffffffffffffffffff918216600090815260016020526040902080547fffffffffffffffffffffffff00000000000000000000000000000000000000001691909216179055565b3360009081526020819052604090205460ff166102c3576040517f08c379a000000000000000000000000000000000000000000000000000000000815260206004820152600960248201527f554e54525553544544000000000000000000000000000000000000000000000060448201526064016101ee565b73ffffffffffffffffffffffffffffffffffffffff82166000818152602081815260409182902080547fffffffffffffffffffffffffffffffffffffffffffffffffffffffffffffff001685151590811790915591519182527fe95aec380cae16330d146d5499ef7db6f3657e477104a733e771bc09e500d986910160405180910390a25050565b6000610356826103d0565b92915050565b60006103568273ffffffffffffffffffffffffffffffffffffffff16636f307dc36040518163ffffffff1660e01b8152600401602060405180830381865afa1580156103ac573d6000803e3d6000fd5b505050506040513d601f19601f820116820180604052508101906103d09190610555565b73ffffffffffffffffffffffffffffffffffffffff80821660009081526001602052604081205490911680610431576040517fa091855e00000000000000000000000000000000000000000000000000000000815260040160405180910390fd5b8073ffffffffffffffffffffffffffffffffffffffff1663468f02d26040518163ffffffff1660e01b8152600401602060405180830381865afa15801561047c573d6000803e3d6000fd5b505050506040513d601f19601f820116820180604052508101906104a09190610572565b9392505050565b73ffffffffffffffffffffffffffffffffffffffff811681146104c957600080fd5b50565b600080604083850312156104df57600080fd5b82356104ea816104a7565b915060208301356104fa816104a7565b809150509250929050565b6000806040838503121561051857600080fd5b8235610523816104a7565b9150602083013580151581146104fa57600080fd5b60006020828403121561054a57600080fd5b81356104a0816104a7565b60006020828403121561056757600080fd5b81516104a0816104a7565b60006020828403121561058457600080fd5b505191905056fea264697066735822122065399b2d98e60b19dad1f747347a33de2037e2dd027ad11c53ddc1c8285d7ad764736f6c634300080d0033",
    "linkReferences": {}
  },
  "methodIdentifiers": {
    "addSeries(address,uint256)": "71987b15",
    "addTarget(address,address)": "1ec64fef",
    "cERC20Impl()": "1e75fda8",
    "comptroller()": "5fe3b567",
    "comptrollerImpl()": "38d170d0",
    "deployPool(string,uint256,uint256,address)": "6f2cec03",
    "divider()": "378efa37",
    "execute(address,uint256,bytes,uint256)": "74420f4c",
    "fuseDirectory()": "4fe9a165",
    "isTrusted(address)": "96d64879",
    "lpOracle()": "062b032f",
    "lpTokenParams()": "cd387def",
    "masterOracle()": "eaada382",
    "oracleImpl()": "66e671fa",
    "ptOracle()": "05d7b9a2",
    "ptParams()": "f191f72d",
    "queueSeries(address,uint256,address)": "5e883823",
    "sSeries(address,uint256)": "d8deea69",
    "setIsTrusted(address,bool)": "1393916a",
    "setParams(bytes32,(address,uint256,uint256))": "1e413472",
    "targetOracle()": "e53e2684",
    "targetParams()": "e1b08b2f",
    "underlyingOracle()": "12c46e61"
  },
  "id": 19
}