{
  "abi": [
    {
      "inputs": [],
      "stateMutability": "nonpayable",
      "type": "constructor"
    },
    {
      "anonymous": false,
      "inputs": [
        {
          "indexed": true,
          "internalType": "address",
          "name": "user",
          "type": "address"
        },
        {
          "indexed": false,
          "internalType": "bool",
          "name": "trusted",
          "type": "bool"
        }
      ],
      "name": "UserTrustUpdated",
      "type": "event"
    },
    {
      "inputs": [
        {
          "internalType": "contract CToken",
          "name": "cToken",
          "type": "address"
        }
      ],
      "name": "getUnderlyingPrice",
      "outputs": [
        {
          "internalType": "uint256",
          "name": "",
          "type": "uint256"
        }
      ],
      "stateMutability": "view",
      "type": "function"
    },
    {
      "inputs": [],
      "name": "isPriceOracle",
      "outputs": [
        {
          "internalType": "bool",
          "name": "",
          "type": "bool"
        }
      ],
      "stateMutability": "view",
      "type": "function"
    },
    {
      "inputs": [
        {
          "internalType": "address",
          "name": "",
          "type": "address"
        }
      ],
      "name": "isTrusted",
      "outputs": [
        {
          "internalType": "bool",
          "name": "",
          "type": "bool"
        }
      ],
      "stateMutability": "view",
      "type": "function"
    },
    {
      "inputs": [
        {
          "internalType": "address",
          "name": "",
          "type": "address"
        }
      ],
      "name": "pools",
      "outputs": [
        {
          "internalType": "address",
          "name": "",
          "type": "address"
        }
      ],
      "stateMutability": "view",
      "type": "function"
    },
    {
      "inputs": [
        {
          "internalType": "address",
          "name": "pt",
          "type": "address"
        }
      ],
      "name": "price",
      "outputs": [
        {
          "internalType": "uint256",
          "name": "",
          "type": "uint256"
        }
      ],
      "stateMutability": "view",
      "type": "function"
    },
    {
      "inputs": [
        {
          "internalType": "address",
          "name": "user",
          "type": "address"
        },
        {
          "internalType": "bool",
          "name": "trusted",
          "type": "bool"
        }
      ],
      "name": "setIsTrusted",
      "outputs": [],
      "stateMutability": "nonpayable",
      "type": "function"
    },
    {
      "inputs": [
        {
          "internalType": "uint256",
          "name": "_twapPeriod",
          "type": "uint256"
        }
      ],
      "name": "setTwapPeriod",
      "outputs": [],
      "stateMutability": "nonpayable",
      "type": "function"
    },
    {
      "inputs": [],
      "name": "twapPeriod",
      "outputs": [
        {
          "internalType": "uint256",
          "name": "",
          "type": "uint256"
        }
      ],
      "stateMutability": "view",
      "type": "function"
    }
  ],
  "bytecode": {
    "object": "0x608060405234801561001057600080fd5b503360008181526020818152604091829020805460ff19166001908117909155915191825282917fe95aec380cae16330d146d5499ef7db6f3657e477104a733e771bc09e500d986910160405180910390a250614d586002556106f1806100786000396000f3fe608060405234801561001057600080fd5b50600436106100885760003560e01c8063a4063dbc1161005b578063a4063dbc146100f5578063aea9107814610150578063f620732614610171578063fc57d4df1461017a57600080fd5b80631393916a1461008d5780635e657adf146100a257806366331bba146100b557806396d64879146100d2575b600080fd5b6100a061009b366004610611565b61018d565b005b6100a06100b036600461064f565b610293565b6100bd600181565b60405190151581526020015b60405180910390f35b6100bd6100e0366004610668565b60006020819052908152604090205460ff1681565b61012b610103366004610668565b60016020526000908152604090205473ffffffffffffffffffffffffffffffffffffffff1681565b60405173ffffffffffffffffffffffffffffffffffffffff90911681526020016100c9565b61016361015e366004610668565b610311565b6040519081526020016100c9565b61016360025481565b610163610188366004610668565b610322565b3360009081526020819052604090205460ff1661020b576040517f08c379a000000000000000000000000000000000000000000000000000000000815260206004820152600960248201527f554e54525553544544000000000000000000000000000000000000000000000060448201526064015b60405180910390fd5b73ffffffffffffffffffffffffffffffffffffffff82166000818152602081815260409182902080547fffffffffffffffffffffffffffffffffffffffffffffffffffffffffffffff001685151590811790915591519182527fe95aec380cae16330d146d5499ef7db6f3657e477104a733e771bc09e500d986910160405180910390a25050565b3360009081526020819052604090205460ff1661030c576040517f08c379a000000000000000000000000000000000000000000000000000000000815260206004820152600960248201527f554e5452555354454400000000000000000000000000000000000000000000006044820152606401610202565b600255565b600061031c82610396565b92915050565b600061031c8273ffffffffffffffffffffffffffffffffffffffff16636f307dc36040518163ffffffff1660e01b8152600401602060405180830381865afa158015610372573d6000803e3d6000fd5b505050506040513d601f19601f820116820180604052508101906103969190610685565b60008082905060008173ffffffffffffffffffffffffffffffffffffffff166303eadcfc6040518163ffffffff1660e01b8152600401602060405180830381865afa1580156103e9573d6000803e3d6000fd5b505050506040513d601f19601f8201168201806040525081019061040d9190610685565b73ffffffffffffffffffffffffffffffffffffffff1663d4b839926040518163ffffffff1660e01b8152600401602060405180830381865afa158015610457573d6000803e3d6000fd5b505050506040513d601f19601f8201168201806040525081019061047b9190610685565b6040517faea9107800000000000000000000000000000000000000000000000000000000815273ffffffffffffffffffffffffffffffffffffffff821660048201529091506105a990339063aea9107890602401602060405180830381865afa1580156104ec573d6000803e3d6000fd5b505050506040513d601f19601f8201168201806040525081019061051091906106a2565b6002546040517fa503e628000000000000000000000000000000000000000000000000000000008152600481019190915273ffffffffffffffffffffffffffffffffffffffff85169063a503e62890602401602060405180830381865afa15801561057f573d6000803e3d6000fd5b505050506040513d601f19601f820116820180604052508101906105a391906106a2565b906105b1565b949350505050565b60006105c68383670de0b6b3a76400006105cd565b9392505050565b8282028115158415858304851417166105e557600080fd5b0492915050565b73ffffffffffffffffffffffffffffffffffffffff8116811461060e57600080fd5b50565b6000806040838503121561062457600080fd5b823561062f816105ec565b91506020830135801515811461064457600080fd5b809150509250929050565b60006020828403121561066157600080fd5b5035919050565b60006020828403121561067a57600080fd5b81356105c6816105ec565b60006020828403121561069757600080fd5b81516105c6816105ec565b6000602082840312156106b457600080fd5b505191905056fea2646970667358221220c44225e2e68328e9bfc993b92089d633dafbf158fd93ab7a988e94926e88bb3a64736f6c634300080d0033",
    "linkReferences": {}
  },
  "methodIdentifiers": {
    "getUnderlyingPrice(address)": "fc57d4df",
    "isPriceOracle()": "66331bba",
    "isTrusted(address)": "96d64879",
    "pools(address)": "a4063dbc",
    "price(address)": "aea91078",
    "setIsTrusted(address,bool)": "1393916a",
    "setTwapPeriod(uint256)": "5e657adf",
    "twapPeriod()": "f6207326"
  },
  "id": 48
}