{
  "abi": [
    {
      "inputs": [
        {
          "internalType": "contract ERC20",
          "name": "_target",
          "type": "address"
        },
        {
          "internalType": "contract DividerLike",
          "name": "_divider",
          "type": "address"
        },
        {
          "internalType": "address",
          "name": "_periphery",
          "type": "address"
        },
        {
          "internalType": "address",
          "name": "_spaceFactory",
          "type": "address"
        },
        {
          "internalType": "address",
          "name": "_balancerVault",
          "type": "address"
        },
        {
          "internalType": "contract OwnedAdapterLike",
          "name": "_adapter",
          "type": "address"
        },
        {
          "internalType": "contract RollerUtils",
          "name": "_utils",
          "type": "address"
        },
        {
          "internalType": "address",
          "name": "_rewardRecipient",
          "type": "address"
        }
      ],
      "stateMutability": "nonpayable",
      "type": "constructor"
    },
    {
      "inputs": [],
      "name": "ActivePhaseOnly",
      "type": "error"
    },
    {
      "inputs": [],
      "name": "InsufficientLiquidity",
      "type": "error"
    },
    {
      "inputs": [],
      "name": "InvalidSettler",
      "type": "error"
    },
    {
      "inputs": [],
      "name": "OnlyAdapter",
      "type": "error"
    },
    {
      "inputs": [],
      "name": "RollWindowNotOpen",
      "type": "error"
    },
    {
      "inputs": [
        {
          "internalType": "bytes32",
          "name": "what",
          "type": "bytes32"
        }
      ],
      "name": "UnrecognizedParam",
      "type": "error"
    },
    {
      "anonymous": false,
      "inputs": [
        {
          "indexed": true,
          "internalType": "address",
          "name": "owner",
          "type": "address"
        },
        {
          "indexed": true,
          "internalType": "address",
          "name": "spender",
          "type": "address"
        },
        {
          "indexed": false,
          "internalType": "uint256",
          "name": "amount",
          "type": "uint256"
        }
      ],
      "name": "Approval",
      "type": "event"
    },
    {
      "anonymous": false,
      "inputs": [
        {
          "indexed": true,
          "internalType": "address",
          "name": "caller",
          "type": "address"
        },
        {
          "indexed": true,
          "internalType": "address",
          "name": "owner",
          "type": "address"
        },
        {
          "indexed": false,
          "internalType": "uint256",
          "name": "assets",
          "type": "uint256"
        },
        {
          "indexed": false,
          "internalType": "uint256",
          "name": "shares",
          "type": "uint256"
        }
      ],
      "name": "Deposit",
      "type": "event"
    },
    {
      "anonymous": false,
      "inputs": [
        {
          "indexed": true,
          "internalType": "address",
          "name": "caller",
          "type": "address"
        },
        {
          "indexed": true,
          "internalType": "address",
          "name": "receiver",
          "type": "address"
        },
        {
          "indexed": true,
          "internalType": "address",
          "name": "owner",
          "type": "address"
        },
        {
          "indexed": false,
          "internalType": "uint256",
          "name": "assets",
          "type": "uint256"
        },
        {
          "indexed": false,
          "internalType": "uint256",
          "name": "shares",
          "type": "uint256"
        },
        {
          "indexed": false,
          "internalType": "uint256",
          "name": "pts",
          "type": "uint256"
        },
        {
          "indexed": false,
          "internalType": "uint256",
          "name": "yts",
          "type": "uint256"
        }
      ],
      "name": "Ejected",
      "type": "event"
    },
    {
      "anonymous": false,
      "inputs": [
        {
          "indexed": false,
          "internalType": "bytes32",
          "name": "what",
          "type": "bytes32"
        },
        {
          "indexed": false,
          "internalType": "address",
          "name": "newData",
          "type": "address"
        }
      ],
      "name": "ParamChanged",
      "type": "event"
    },
    {
      "anonymous": false,
      "inputs": [
        {
          "indexed": false,
          "internalType": "bytes32",
          "name": "what",
          "type": "bytes32"
        },
        {
          "indexed": false,
          "internalType": "uint256",
          "name": "newData",
          "type": "uint256"
        }
      ],
      "name": "ParamChanged",
      "type": "event"
    },
    {
      "anonymous": false,
      "inputs": [
        {
          "indexed": false,
          "internalType": "uint256",
          "name": "nextMaturity",
          "type": "uint256"
        },
        {
          "indexed": false,
          "internalType": "uint256",
          "name": "initScale",
          "type": "uint256"
        },
        {
          "indexed": false,
          "internalType": "address",
          "name": "space",
          "type": "address"
        },
        {
          "indexed": false,
          "internalType": "address",
          "name": "roller",
          "type": "address"
        }
      ],
      "name": "Rolled",
      "type": "event"
    },
    {
      "anonymous": false,
      "inputs": [
        {
          "indexed": true,
          "internalType": "address",
          "name": "from",
          "type": "address"
        },
        {
          "indexed": true,
          "internalType": "address",
          "name": "to",
          "type": "address"
        },
        {
          "indexed": false,
          "internalType": "uint256",
          "name": "amount",
          "type": "uint256"
        }
      ],
      "name": "Transfer",
      "type": "event"
    },
    {
      "anonymous": false,
      "inputs": [
        {
          "indexed": true,
          "internalType": "address",
          "name": "caller",
          "type": "address"
        },
        {
          "indexed": true,
          "internalType": "address",
          "name": "receiver",
          "type": "address"
        },
        {
          "indexed": true,
          "internalType": "address",
          "name": "owner",
          "type": "address"
        },
        {
          "indexed": false,
          "internalType": "uint256",
          "name": "assets",
          "type": "uint256"
        },
        {
          "indexed": false,
          "internalType": "uint256",
          "name": "shares",
          "type": "uint256"
        }
      ],
      "name": "Withdraw",
      "type": "event"
    },
    {
      "inputs": [],
      "name": "DOMAIN_SEPARATOR",
      "outputs": [
        {
          "internalType": "bytes32",
          "name": "",
          "type": "bytes32"
        }
      ],
      "stateMutability": "view",
      "type": "function"
    },
    {
      "inputs": [
        {
          "internalType": "address",
          "name": "",
          "type": "address"
        },
        {
          "internalType": "address",
          "name": "",
          "type": "address"
        }
      ],
      "name": "allowance",
      "outputs": [
        {
          "internalType": "uint256",
          "name": "",
          "type": "uint256"
        }
      ],
      "stateMutability": "view",
      "type": "function"
    },
    {
      "inputs": [
        {
          "internalType": "address",
          "name": "spender",
          "type": "address"
        },
        {
          "internalType": "uint256",
          "name": "amount",
          "type": "uint256"
        }
      ],
      "name": "approve",
      "outputs": [
        {
          "internalType": "bool",
          "name": "",
          "type": "bool"
        }
      ],
      "stateMutability": "nonpayable",
      "type": "function"
    },
    {
      "inputs": [],
      "name": "asset",
      "outputs": [
        {
          "internalType": "contract ERC20",
          "name": "",
          "type": "address"
        }
      ],
      "stateMutability": "view",
      "type": "function"
    },
    {
      "inputs": [
        {
          "internalType": "address",
          "name": "",
          "type": "address"
        }
      ],
      "name": "balanceOf",
      "outputs": [
        {
          "internalType": "uint256",
          "name": "",
          "type": "uint256"
        }
      ],
      "stateMutability": "view",
      "type": "function"
    },
    {
      "inputs": [
        {
          "internalType": "contract ERC20",
          "name": "coin",
          "type": "address"
        }
      ],
      "name": "claimRewards",
      "outputs": [],
      "stateMutability": "nonpayable",
      "type": "function"
    },
    {
      "inputs": [
        {
          "internalType": "uint256",
          "name": "shares",
          "type": "uint256"
        }
      ],
      "name": "convertToAssets",
      "outputs": [
        {
          "internalType": "uint256",
          "name": "",
          "type": "uint256"
        }
      ],
      "stateMutability": "view",
      "type": "function"
    },
    {
      "inputs": [
        {
          "internalType": "uint256",
          "name": "assets",
          "type": "uint256"
        }
      ],
      "name": "convertToShares",
      "outputs": [
        {
          "internalType": "uint256",
          "name": "",
          "type": "uint256"
        }
      ],
      "stateMutability": "view",
      "type": "function"
    },
    {
      "inputs": [],
      "name": "cooldown",
      "outputs": [
        {
          "internalType": "uint256",
          "name": "",
          "type": "uint256"
        }
      ],
      "stateMutability": "view",
      "type": "function"
    },
    {
      "inputs": [],
      "name": "decimals",
      "outputs": [
        {
          "internalType": "uint8",
          "name": "",
          "type": "uint8"
        }
      ],
      "stateMutability": "view",
      "type": "function"
    },
    {
      "inputs": [
        {
          "internalType": "uint256",
          "name": "assets",
          "type": "uint256"
        },
        {
          "internalType": "address",
          "name": "receiver",
          "type": "address"
        }
      ],
      "name": "deposit",
      "outputs": [
        {
          "internalType": "uint256",
          "name": "shares",
          "type": "uint256"
        }
      ],
      "stateMutability": "nonpayable",
      "type": "function"
    },
    {
      "inputs": [
        {
          "internalType": "uint256",
          "name": "shares",
          "type": "uint256"
        },
        {
          "internalType": "address",
          "name": "receiver",
          "type": "address"
        },
        {
          "internalType": "address",
          "name": "owner",
          "type": "address"
        }
      ],
      "name": "eject",
      "outputs": [
        {
          "internalType": "uint256",
          "name": "assets",
          "type": "uint256"
        },
        {
          "internalType": "uint256",
          "name": "excessBal",
          "type": "uint256"
        },
        {
          "internalType": "bool",
          "name": "isExcessPTs",
          "type": "bool"
        }
      ],
      "stateMutability": "nonpayable",
      "type": "function"
    },
    {
      "inputs": [],
      "name": "lastSettle",
      "outputs": [
        {
          "internalType": "uint256",
          "name": "",
          "type": "uint256"
        }
      ],
      "stateMutability": "view",
      "type": "function"
    },
    {
      "inputs": [],
      "name": "maturity",
      "outputs": [
        {
          "internalType": "uint256",
          "name": "",
          "type": "uint256"
        }
      ],
      "stateMutability": "view",
      "type": "function"
    },
    {
      "inputs": [
        {
          "internalType": "address",
          "name": "",
          "type": "address"
        }
      ],
      "name": "maxDeposit",
      "outputs": [
        {
          "internalType": "uint256",
          "name": "",
          "type": "uint256"
        }
      ],
      "stateMutability": "view",
      "type": "function"
    },
    {
      "inputs": [
        {
          "internalType": "address",
          "name": "",
          "type": "address"
        }
      ],
      "name": "maxMint",
      "outputs": [
        {
          "internalType": "uint256",
          "name": "",
          "type": "uint256"
        }
      ],
      "stateMutability": "view",
      "type": "function"
    },
    {
      "inputs": [
        {
          "internalType": "address",
          "name": "owner",
          "type": "address"
        }
      ],
      "name": "maxRedeem",
      "outputs": [
        {
          "internalType": "uint256",
          "name": "",
          "type": "uint256"
        }
      ],
      "stateMutability": "view",
      "type": "function"
    },
    {
      "inputs": [
        {
          "internalType": "address",
          "name": "owner",
          "type": "address"
        }
      ],
      "name": "maxWithdraw",
      "outputs": [
        {
          "internalType": "uint256",
          "name": "",
          "type": "uint256"
        }
      ],
      "stateMutability": "view",
      "type": "function"
    },
    {
      "inputs": [
        {
          "internalType": "uint256",
          "name": "shares",
          "type": "uint256"
        },
        {
          "internalType": "address",
          "name": "receiver",
          "type": "address"
        }
      ],
      "name": "mint",
      "outputs": [
        {
          "internalType": "uint256",
          "name": "assets",
          "type": "uint256"
        }
      ],
      "stateMutability": "nonpayable",
      "type": "function"
    },
    {
      "inputs": [],
      "name": "name",
      "outputs": [
        {
          "internalType": "string",
          "name": "",
          "type": "string"
        }
      ],
      "stateMutability": "view",
      "type": "function"
    },
    {
      "inputs": [
        {
          "internalType": "address",
          "name": "",
          "type": "address"
        }
      ],
      "name": "nonces",
      "outputs": [
        {
          "internalType": "uint256",
          "name": "",
          "type": "uint256"
        }
      ],
      "stateMutability": "view",
      "type": "function"
    },
    {
      "inputs": [
        {
          "internalType": "contract ERC20",
          "name": "stake",
          "type": "address"
        },
        {
          "internalType": "uint256",
          "name": "stakeSize",
          "type": "uint256"
        }
      ],
      "name": "onSponsorWindowOpened",
      "outputs": [],
      "stateMutability": "nonpayable",
      "type": "function"
    },
    {
      "inputs": [
        {
          "internalType": "address",
          "name": "owner",
          "type": "address"
        },
        {
          "internalType": "address",
          "name": "spender",
          "type": "address"
        },
        {
          "internalType": "uint256",
          "name": "value",
          "type": "uint256"
        },
        {
          "internalType": "uint256",
          "name": "deadline",
          "type": "uint256"
        },
        {
          "internalType": "uint8",
          "name": "v",
          "type": "uint8"
        },
        {
          "internalType": "bytes32",
          "name": "r",
          "type": "bytes32"
        },
        {
          "internalType": "bytes32",
          "name": "s",
          "type": "bytes32"
        }
      ],
      "name": "permit",
      "outputs": [],
      "stateMutability": "nonpayable",
      "type": "function"
    },
    {
      "inputs": [
        {
          "internalType": "uint256",
          "name": "assets",
          "type": "uint256"
        }
      ],
      "name": "previewDeposit",
      "outputs": [
        {
          "internalType": "uint256",
          "name": "",
          "type": "uint256"
        }
      ],
      "stateMutability": "view",
      "type": "function"
    },
    {
      "inputs": [
        {
          "internalType": "uint256",
          "name": "shares",
          "type": "uint256"
        }
      ],
      "name": "previewMint",
      "outputs": [
        {
          "internalType": "uint256",
          "name": "",
          "type": "uint256"
        }
      ],
      "stateMutability": "view",
      "type": "function"
    },
    {
      "inputs": [
        {
          "internalType": "uint256",
          "name": "shares",
          "type": "uint256"
        }
      ],
      "name": "previewRedeem",
      "outputs": [
        {
          "internalType": "uint256",
          "name": "",
          "type": "uint256"
        }
      ],
      "stateMutability": "view",
      "type": "function"
    },
    {
      "inputs": [
        {
          "internalType": "uint256",
          "name": "assets",
          "type": "uint256"
        }
      ],
      "name": "previewWithdraw",
      "outputs": [
        {
          "internalType": "uint256",
          "name": "",
          "type": "uint256"
        }
      ],
      "stateMutability": "view",
      "type": "function"
    },
    {
      "inputs": [
        {
          "internalType": "uint256",
          "name": "shares",
          "type": "uint256"
        },
        {
          "internalType": "address",
          "name": "receiver",
          "type": "address"
        },
        {
          "internalType": "address",
          "name": "owner",
          "type": "address"
        }
      ],
      "name": "redeem",
      "outputs": [
        {
          "internalType": "uint256",
          "name": "assets",
          "type": "uint256"
        }
      ],
      "stateMutability": "nonpayable",
      "type": "function"
    },
    {
      "inputs": [],
      "name": "roll",
      "outputs": [],
      "stateMutability": "nonpayable",
      "type": "function"
    },
    {
      "inputs": [
        {
          "internalType": "bytes32",
          "name": "what",
          "type": "bytes32"
        },
        {
          "internalType": "uint256",
          "name": "data",
          "type": "uint256"
        }
      ],
      "name": "setParam",
      "outputs": [],
      "stateMutability": "nonpayable",
      "type": "function"
    },
    {
      "inputs": [
        {
          "internalType": "bytes32",
          "name": "what",
          "type": "bytes32"
        },
        {
          "internalType": "address",
          "name": "data",
          "type": "address"
        }
      ],
      "name": "setParam",
      "outputs": [],
      "stateMutability": "nonpayable",
      "type": "function"
    },
    {
      "inputs": [],
      "name": "settle",
      "outputs": [],
      "stateMutability": "nonpayable",
      "type": "function"
    },
    {
      "inputs": [],
      "name": "startCooldown",
      "outputs": [],
      "stateMutability": "nonpayable",
      "type": "function"
    },
    {
      "inputs": [],
      "name": "symbol",
      "outputs": [
        {
          "internalType": "string",
          "name": "",
          "type": "string"
        }
      ],
      "stateMutability": "view",
      "type": "function"
    },
    {
      "inputs": [],
      "name": "totalAssets",
      "outputs": [
        {
          "internalType": "uint256",
          "name": "",
          "type": "uint256"
        }
      ],
      "stateMutability": "view",
      "type": "function"
    },
    {
      "inputs": [],
      "name": "totalSupply",
      "outputs": [
        {
          "internalType": "uint256",
          "name": "",
          "type": "uint256"
        }
      ],
      "stateMutability": "view",
      "type": "function"
    },
    {
      "inputs": [
        {
          "internalType": "address",
          "name": "to",
          "type": "address"
        },
        {
          "internalType": "uint256",
          "name": "amount",
          "type": "uint256"
        }
      ],
      "name": "transfer",
      "outputs": [
        {
          "internalType": "bool",
          "name": "",
          "type": "bool"
        }
      ],
      "stateMutability": "nonpayable",
      "type": "function"
    },
    {
      "inputs": [
        {
          "internalType": "address",
          "name": "from",
          "type": "address"
        },
        {
          "internalType": "address",
          "name": "to",
          "type": "address"
        },
        {
          "internalType": "uint256",
          "name": "amount",
          "type": "uint256"
        }
      ],
      "name": "transferFrom",
      "outputs": [
        {
          "internalType": "bool",
          "name": "",
          "type": "bool"
        }
      ],
      "stateMutability": "nonpayable",
      "type": "function"
    },
    {
      "inputs": [
        {
          "internalType": "uint256",
          "name": "assets",
          "type": "uint256"
        },
        {
          "internalType": "address",
          "name": "receiver",
          "type": "address"
        },
        {
          "internalType": "address",
          "name": "owner",
          "type": "address"
        }
      ],
      "name": "withdraw",
      "outputs": [
        {
          "internalType": "uint256",
          "name": "shares",
          "type": "uint256"
        }
      ],
      "stateMutability": "nonpayable",
      "type": "function"
    }
  ],
  "bytecode": {
    "object": "0x61020060405263ffffffff6010556970896b8d763479c0000060125567283edea298a200006013556003601455620d2f006015553480156200004057600080fd5b5060405162006bc738038062006bc783398101604081905262000063916200064e565b87886001600160a01b03166306fdde036040518163ffffffff1660e01b8152600401600060405180830381865afa158015620000a3573d6000803e3d6000fd5b505050506040513d6000823e601f3d908101601f19168201604052620000cd919081019062000754565b604051602001620000df91906200080c565b604051602081830303815290604052896001600160a01b03166395d89b416040518163ffffffff1660e01b8152600401600060405180830381865afa1580156200012d573d6000803e3d6000fd5b505050506040513d6000823e601f3d908101601f1916820160405262000157919081019062000754565b60405160200162000169919062000844565b6040516020818303038152906040528181846001600160a01b031663313ce5676040518163ffffffff1660e01b8152600401602060405180830381865afa158015620001b9573d6000803e3d6000fd5b505050506040513d601f19601f82011682018060405250810190620001df91906200086e565b8251620001f49060009060208601906200058f565b5081516200020a9060019060208501906200058f565b5060ff81166080524660a052620002206200046b565b60c052505050506001600160a01b0391821660e0525087811661010052600680546001600160a01b0319908116898416179091556007805490911687831617905584811661012052620002859089168860001962000507602090811b62003c9417901c565b620002ac846000198a6001600160a01b03166200050760201b62003c94179092919060201c565b60006080516012620002bf9190620008b0565b620002cc90600a620009d5565b9050806001600660009054906101000a90046001600160a01b03166001600160a01b031663ce3a91286040518163ffffffff1660e01b8152600401602060405180830381865afa15801562000325573d6000803e3d6000fd5b505050506040513d601f19601f820116820180604052508101906200034b9190620009e6565b62000357919062000a00565b62000363919062000a1a565b6200037090600162000a3d565b6101805262000383816298967f62000a1a565b6200039090600162000a3d565b6101c052620003a781662386f26fc0ffff62000a1a565b620003b490600162000a3d565b6101a0526001600160a01b0384166101408190526040805163b8c15a9f60e01b8152905163b8c15a9f916004808201926020929091908290030181865afa15801562000404573d6000803e3d6000fd5b505050506040513d601f19601f820116820180604052508101906200042a9190620009e6565b610160525060088054336001600160a01b031991821617909155600980549091166001600160a01b03938416179055166101e0525062000b37945050505050565b60007f8b73c3c69bb8fe3d512ecc4cf759cc79239f7b179b0ffacaa9a75d522b39400f60006040516200049f919062000a94565b6040805191829003822060208301939093528101919091527fc89efdaa54c0f20c7adf612882df0950f5a951637e0307cdcb4c672f298b8bc660608201524660808201523060a082015260c00160405160208183030381529060405280519060200120905090565b600060405163095ea7b360e01b6000528360045282602452602060006044600080895af13d15601f3d1160016000511416171691506000606052806040525080620005895760405162461bcd60e51b815260206004820152600e60248201526d1054141493d59157d1905253115160921b604482015260640160405180910390fd5b50505050565b8280546200059d9062000a58565b90600052602060002090601f016020900481019282620005c157600085556200060c565b82601f10620005dc57805160ff19168380011785556200060c565b828001600101855582156200060c579182015b828111156200060c578251825591602001919060010190620005ef565b506200061a9291506200061e565b5090565b5b808211156200061a57600081556001016200061f565b6001600160a01b03811681146200064b57600080fd5b50565b600080600080600080600080610100898b0312156200066c57600080fd5b8851620006798162000635565b60208a01519098506200068c8162000635565b60408a01519097506200069f8162000635565b60608a0151909650620006b28162000635565b60808a0151909550620006c58162000635565b60a08a0151909450620006d88162000635565b60c08a0151909350620006eb8162000635565b60e08a0151909250620006fe8162000635565b809150509295985092959890939650565b634e487b7160e01b600052604160045260246000fd5b60005b838110156200074257818101518382015260200162000728565b83811115620005895750506000910152565b6000602082840312156200076757600080fd5b81516001600160401b03808211156200077f57600080fd5b818401915084601f8301126200079457600080fd5b815181811115620007a957620007a96200070f565b604051601f8201601f19908116603f01168101908382118183101715620007d457620007d46200070f565b81604052828152876020848701011115620007ee57600080fd5b6200080183602083016020880162000725565b979650505050505050565b600082516200082081846020870162000725565b711029b2b739b29020baba37902937b63632b960711b920191825250601201919050565b600082516200085881846020870162000725565b6316b9a0a960e11b920191825250600401919050565b6000602082840312156200088157600080fd5b815160ff811681146200089357600080fd5b9392505050565b634e487b7160e01b600052601160045260246000fd5b600060ff821660ff841680821015620008cd57620008cd6200089a565b90039392505050565b600181815b8085111562000917578160001904821115620008fb57620008fb6200089a565b808516156200090957918102915b93841c9390800290620008db565b509250929050565b6000826200093057506001620009cf565b816200093f57506000620009cf565b8160018114620009585760028114620009635762000983565b6001915050620009cf565b60ff8411156200097757620009776200089a565b50506001821b620009cf565b5060208310610133831016604e8410600b8410161715620009a8575081810a620009cf565b620009b48383620008d6565b8060001904821115620009cb57620009cb6200089a565b0290505b92915050565b60006200089360ff8416836200091f565b600060208284031215620009f957600080fd5b5051919050565b60008282101562000a155762000a156200089a565b500390565b60008262000a3857634e487b7160e01b600052601260045260246000fd5b500490565b6000821982111562000a535762000a536200089a565b500190565b600181811c9082168062000a6d57607f821691505b60208210810362000a8e57634e487b7160e01b600052602260045260246000fd5b50919050565b600080835481600182811c91508083168062000ab157607f831692505b6020808410820362000ad157634e487b7160e01b86526022600452602486fd5b81801562000ae8576001811462000afa5762000b29565b60ff1986168952848901965062000b29565b60008a81526020902060005b8681101562000b215781548b82015290850190830162000b06565b505084890196505b509498975050505050505050565b60805160a05160c05160e05161010051610120516101405161016051610180516101a0516101c0516101e051615e9962000d2e60003960006139ef015260008181610be0015281816113f60152611536015260008181610a3d01526125a40152600081816113160152818161144a0152614a52015260008181611e5b01526151ef0152600081816107cb01528181610d1f01528181610e7f015281816110ef015281816115d501528181611830015281816119c601528181611e8f0152818161266e01528181612d4401528181612e8e0152818161338601528181613b8b015281816148e901528181614c040152818161503a0152615112015260008181612fee01528181613d5a015281816144cc015281816146bd0152818161526b01526152f4015260008181610d52015281816115a80152818161180601528181613357015281816148ba0152818161507101526151490152600081816103a00152818161060a01528181610c7901528181610dc501528181610e5301528181610f06015281816112a40152818161168101528181611b3601528181611bd2015281816120170152818161218f015281816123b301528181612b47015281816131070152818161393101528181613f5e01528181614b7f0152614e2901526000611085015260006110550152600061035f0152615e996000f3fe608060405234801561001057600080fd5b50600436106102ad5760003560e01c806394bf804d1161017b578063c6e6f592116100d8578063dd62ed3e1161008c578063edd1b0be11610071578063edd1b0be146105ab578063ef5cfb8c146105be578063ef8b30f7146105d157600080fd5b8063dd62ed3e1461056d578063dfd4718f1461059857600080fd5b8063ce96cb77116100bd578063ce96cb7714610534578063d505accf14610547578063d905777e1461055a57600080fd5b8063c6e6f59214610519578063cd5e3c5d1461052c57600080fd5b8063b3d7f6b91161012f578063ba08765211610114578063ba087652146104d6578063c5c3d910146104e9578063c63d75b6146103da57600080fd5b8063b3d7f6b9146104b0578063b460af94146104c357600080fd5b806395fa99c71161016057806395fa99c7146104815780639f30490a1461048a578063a9059cbb1461049d57600080fd5b806394bf804d1461046657806395d89b411461047957600080fd5b8063313ce56711610229578063680ff458116101dd57806370a08231116101c257806370a082311461041d578063787a08a61461043d5780637ecebe001461044657600080fd5b8063680ff458146104025780636e553f651461040a57600080fd5b806338d52e0f1161020e57806338d52e0f1461039b578063402d267d146103da5780634cdad506146103ef57600080fd5b8063313ce5671461035a5780633644e5151461039357600080fd5b80630a28a4771161028057806318160ddd1161026557806318160ddd14610335578063204f83f91461033e57806323b872dd1461034757600080fd5b80630a28a4771461031857806311da60b41461032b57600080fd5b806301e1d114146102b257806306fdde03146102cd57806307a2d13a146102e2578063095ea7b3146102f5575b600080fd5b6102ba6105e4565b6040519081526020015b60405180910390f35b6102d56108f7565b6040516102c4919061541a565b6102ba6102f036600461542d565b610985565b61030861030336600461545e565b6109b2565b60405190151581526020016102c4565b6102ba61032636600461542d565b610a1f565b610333610c1d565b005b6102ba60025481565b6102ba60105481565b61030861035536600461548a565b610f5f565b6103817f000000000000000000000000000000000000000000000000000000000000000081565b60405160ff90911681526020016102c4565b6102ba611051565b6103c27f000000000000000000000000000000000000000000000000000000000000000081565b6040516001600160a01b0390911681526020016102c4565b6102ba6103e83660046154cb565b5060001990565b6102ba6103fd36600461542d565b6110a7565b610333611575565b6102ba6104183660046154e8565b611aad565b6102ba61042b3660046154cb565b60036020526000908152604090205481565b6102ba60155481565b6102ba6104543660046154cb565b60056020526000908152604090205481565b6102ba6104743660046154e8565b611bb8565b6102d5611c54565b6102ba60165481565b610333610498366004615518565b611c61565b6103086104ab36600461545e565b611d9c565b6102ba6104be36600461542d565b611e14565b6102ba6104d136600461553a565b611f30565b6102ba6104e436600461553a565b61203e565b6104fc6104f736600461553a565b6121b6565b6040805193845260208401929092521515908201526060016102c4565b6102ba61052736600461542d565b612536565b610333612556565b6102ba6105423660046154cb565b6126d1565b61033361055536600461557c565b6126f7565b6102ba6105683660046154cb565b612999565b6102ba61057b3660046155f3565b600460209081526000928352604080842090915290825290205481565b6103336105a636600461545e565b612d39565b6103336105b93660046154e8565b6137c1565b6103336105cc3660046154cb565b61392f565b6102ba6105df36600461542d565b613ae6565b60105460009063fffffffe1901610682576040516370a0823160e01b81523060048201527f00000000000000000000000000000000000000000000000000000000000000006001600160a01b0316906370a0823190602401602060405180830381865afa158015610659573d6000803e3d6000fd5b505050506040513d601f19601f8201168201806040525081019061067d9190615621565b905090565b600c546001600160a01b0316600080610699613d53565b9150915060008060006106b185856002546001613e42565b509250925092506000866001600160a01b031663f3f586e5670de0b6b3a764000061075c6106ea600f548a61411c90919063ffffffff16565b8b6001600160a01b0316638f1314b66040518163ffffffff1660e01b8152600401602060405180830381865afa158015610728573d6000803e3d6000fd5b505050506040513d601f19601f8201168201806040525081019061074c9190615621565b610756908c615669565b90614131565b6107669190615681565b6040518263ffffffff1660e01b815260040161078491815260200190565b602060405180830381865afa1580156107a1573d6000803e3d6000fd5b505050506040513d601f19601f820116820180604052508101906107c59190615621565b905060007f00000000000000000000000000000000000000000000000000000000000000006001600160a01b031663226778496040518163ffffffff1660e01b8152600401602060405180830381865afa158015610827573d6000803e3d6000fd5b505050506040513d601f19601f8201168201806040525081019061084b9190615621565b9050828410610893576108686108618486615681565b839061411c565b6108728483614131565b61087c9087615669565b6108869190615669565b9850505050505050505090565b60006108b5826108a3858261411c565b61075690670de0b6b3a7640000615681565b90506108cb6108c48686615681565b829061411c565b6108d58684614131565b6108df9088615669565b6108e99190615669565b995050505050505050505090565b6000805461090490615698565b80601f016020809104026020016040519081016040528092919081815260200182805461093090615698565b801561097d5780601f106109525761010080835404028352916020019161097d565b820191906000526020600020905b81548152906001019060200180831161096057829003601f168201915b505050505081565b60025460009080156109a9576109a461099c6105e4565b849083614142565b6109ab565b825b9392505050565b3360008181526004602090815260408083206001600160a01b038716808552925280832085905551919290917f8c5be1e5ebec7d5bd14f71427d1e84f3dd0314c0f7b2291e5b200ac8c7c3b92590610a0d9086815260200190565b60405180910390a35060015b92915050565b60105460009063fffffffe1901610a3957610a1982614161565b60007f0000000000000000000000000000000000000000000000000000000000000000600254610a699190615681565b90506000610a7f610a7a8584614181565b614198565b90506000610a8c85614198565b610a9b610a7a6103fd856141ca565b610aa591906156eb565b90506000670de0b6b3a7640000610ac4670d2f13f7789f00008561575f565b610ace919061581b565b90506000610adb85614198565b905060005b6014811015610bdd5781831315610af5578192505b6000610b0089614198565b610b0f610a7a6103fd876141ca565b610b1991906156eb565b905060008112158015610b3f5750610b3b610a7a8a66038d7ea4c6800061411c565b8113155b80610b4957508085145b15610b545750610bdd565b8284148015610b635750600081125b15610b9a576040517fbb55fd2700000000000000000000000000000000000000000000000000000000815260040160405180910390fd5b6000610ba686836156eb565b610bb088876156eb565b610bba908461575f565b610bc4919061581b565b610bce90866156eb565b94965090945050600101610ae0565b507f0000000000000000000000000000000000000000000000000000000000000000610c08836141ca565b610c129190615669565b979650505050505050565b600e546001600160a01b03163314610c61576040517f3a731e2900000000000000000000000000000000000000000000000000000000815260040160405180910390fd5b6040516370a0823160e01b81523060048201526000907f00000000000000000000000000000000000000000000000000000000000000006001600160a01b0316906370a0823190602401602060405180830381865afa158015610cc8573d6000803e3d6000fd5b505050506040513d601f19601f82011682018060405250810190610cec9190615621565b6010546040517fa41416380000000000000000000000000000000000000000000000000000000081526001600160a01b037f00000000000000000000000000000000000000000000000000000000000000008116600483015260248201929092529192507f0000000000000000000000000000000000000000000000000000000000000000169063a414163890604401600060405180830381600087803b158015610d9657600080fd5b505af1158015610daa573d6000803e3d6000fd5b50506040516370a0823160e01b8152306004820152600092507f00000000000000000000000000000000000000000000000000000000000000006001600160a01b031691506370a0823190602401602060405180830381865afa158015610e15573d6000803e3d6000fd5b505050506040513d601f19601f82011682018060405250810190610e399190615621565b9050610e7a33610e498484615681565b6001600160a01b037f00000000000000000000000000000000000000000000000000000000000000001691906141d9565b6000807f00000000000000000000000000000000000000000000000000000000000000006001600160a01b03166327b327d06040518163ffffffff1660e01b8152600401606060405180830381865afa158015610edb573d6000803e3d6000fd5b505050506040513d601f19601f82011682018060405250810190610eff919061588c565b92509250507f00000000000000000000000000000000000000000000000000000000000000006001600160a01b0316826001600160a01b031614610f5157610f516001600160a01b03831633836141d9565b610f59611575565b50505050565b6001600160a01b03831660009081526004602090815260408083203384529091528120546000198114610fbb57610f968382615681565b6001600160a01b03861660009081526004602090815260408083203384529091529020555b6001600160a01b03851660009081526003602052604081208054859290610fe3908490615681565b90915550506001600160a01b03808516600081815260036020526040908190208054870190555190918716907fddf252ad1be2c89b69c2b068fc378daa952ba7f163c4a11628f55a4df523b3ef9061103e9087815260200190565b60405180910390a3506001949350505050565b60007f000000000000000000000000000000000000000000000000000000000000000046146110825761067d614298565b507f000000000000000000000000000000000000000000000000000000000000000090565b60105460009063fffffffe19016110c157610a1982614332565b6000806110cc613d53565b915091506000806000806110e386868a6000613e42565b935093509350935060007f00000000000000000000000000000000000000000000000000000000000000006001600160a01b031663226778496040518163ffffffff1660e01b8152600401602060405180830381865afa15801561114b573d6000803e3d6000fd5b505050506040513d601f19601f8201168201806040525081019061116f9190615621565b905061117b8488615681565b96506111878587615681565b95506000600c60009054906101000a90046001600160a01b03166001600160a01b0316638f1314b66040518163ffffffff1660e01b8152600401602060405180830381865afa1580156111de573d6000803e3d6000fd5b505050506040513d601f19601f820116820180604052508101906112029190615621565b600b546040516370a0823160e01b8152306004820152919250611276916001600160a01b03909116906370a08231906024015b602060405180830381865afa158015611252573d6000803e3d6000fd5b505050506040513d601f19601f8201168201806040525081019061099c9190615621565b6112809086615669565b6040516370a0823160e01b81523060048201529095506112d3906001600160a01b037f000000000000000000000000000000000000000000000000000000000000000016906370a0823190602401611235565b6112dd9087615669565b95506112e98382615681565b90508385111561143657600061130089898461433d565b9050600061131086880383614181565b905060007f000000000000000000000000000000000000000000000000000000000000000082116113425760006113f2565b600c546040517f590aa985000000000000000000000000000000000000000000000000000000008152600160048201819052602482015260448101849052606481018d9052608481018c905260a4810186905260c481018790526001600160a01b039091169063590aa9859060e401602060405180830381865afa1580156113ce573d6000803e3d6000fd5b505050506040513d601f19601f820116820180604052508101906113f29190615621565b90507f0000000000000000000000000000000000000000000000000000000000000000816114208988614131565b8b0101039b505050505050505050505050919050565b60006114448686038a614181565b905060007f00000000000000000000000000000000000000000000000000000000000000008211611476576000611532565b600c546040517f590aa985000000000000000000000000000000000000000000000000000000008152600060048201819052602482015260448101849052606481018b9052608481018c905260a4810185905260c481018690526001600160a01b039091169063590aa9859060e401602060405180830381865afa158015611502573d6000803e3d6000fd5b505050506040513d601f19601f820116820180604052508101906115269190615621565b6115308386614131565b035b90507f0000000000000000000000000000000000000000000000000000000000000000816115608987614131565b8a0101039a5050505050505050505050919050565b6010546040517f95197d300000000000000000000000000000000000000000000000000000000081526001600160a01b037f000000000000000000000000000000000000000000000000000000000000000016916395197d3091611611917f0000000000000000000000000000000000000000000000000000000000000000916004016001600160a01b03929092168252602082015260400190565b602060405180830381865afa15801561162e573d6000803e3d6000fd5b505050506040513d601f19601f820116820180604052508101906116529190615621565b60000361165e57600080fd5b6040805160028082526060820183526000926020830190803683370190505090507f00000000000000000000000000000000000000000000000000000000000000008160115460016116b09190615681565b815181106116c0576116c06158fe565b6001600160a01b039283166020918202929092010152600b5460115483519190921691839181106116f3576116f36158fe565b6001600160a01b0392909216602092830291909101820152600d5460408051608081018252848152815160028082526060820184526117e39592938484019383019080368337019050508152600c546040516370a0823160e01b81523060048201526020909201916001600160a01b03909116906370a0823190602401602060405180830381865afa15801561178d573d6000803e3d6000fd5b505050506040513d601f19601f820116820180604052508101906117b19190615621565b6040516020016117c391815260200190565b60405160208183030381529060405281526020016000151581525061449c565b601054600b546040516370a0823160e01b81523060048201526001600160a01b037f0000000000000000000000000000000000000000000000000000000000000000811693632b83cccd937f000000000000000000000000000000000000000000000000000000000000000093919216906370a0823190602401602060405180830381865afa15801561187a573d6000803e3d6000fd5b505050506040513d601f19601f8201168201806040525081019061189e9190615621565b6040517fffffffff0000000000000000000000000000000000000000000000000000000060e086901b1681526001600160a01b03909316600484015260248301919091526044820152606401600060405180830381600087803b15801561190457600080fd5b505af1158015611918573d6000803e3d6000fd5b50505050600a60009054906101000a90046001600160a01b03166001600160a01b031663e52253816040518163ffffffff1660e01b8152600401600060405180830381600087803b15801561196c57600080fd5b505af1158015611980573d6000803e3d6000fd5b5050600954601354601054600c546040517fafb9eaef00000000000000000000000000000000000000000000000000000000815260048101939093526001600160a01b037f000000000000000000000000000000000000000000000000000000000000000081166024850152604484019290925281166064830152909116925063afb9eaef91506084016020604051808303816000875af1158015611a29573d6000803e3d6000fd5b505050506040513d601f19601f82011682018060405250810190611a4d9190615621565b6013555063ffffffff60108190554216601655600b80547fffffffffffffffffffffffff0000000000000000000000000000000000000000908116909155600a805482169055600c8054909116905560006011819055600d819055600f55565b6000611ab883613ae6565b905080600003611b29576040517f08c379a000000000000000000000000000000000000000000000000000000000815260206004820152600b60248201527f5a45524f5f53484152455300000000000000000000000000000000000000000060448201526064015b60405180910390fd5b611b5e6001600160a01b037f00000000000000000000000000000000000000000000000000000000000000001633308661453d565b611b688282614607565b60408051848152602081018390526001600160a01b0384169133917fdcbc1c05240f31ff3ad067ef1ee35ce4997762752e3a095284754544f4c709d7910160405180910390a3610a198382614673565b6000611bc383611e14565b9050611bfa6001600160a01b037f00000000000000000000000000000000000000000000000000000000000000001633308461453d565b611c048284614607565b60408051828152602081018590526001600160a01b0384169133917fdcbc1c05240f31ff3ad067ef1ee35ce4997762752e3a095284754544f4c709d7910160405180910390a3610a198184614673565b6001805461090490615698565b6008546001600160a01b03163314611c7857600080fd5b817f4d41585f5241544500000000000000000000000000000000000000000000000003611ca9576012819055611d5e565b817f5441524745545f4455524154494f4e000000000000000000000000000000000003611cda576014819055611d5e565b817f434f4f4c444f574e00000000000000000000000000000000000000000000000003611d29576016541580611d16575060105463ffffffff14155b611d1f57600080fd5b6015819055611d5e565b6040517f35802fa300000000000000000000000000000000000000000000000000000000815260048101839052602401611b20565b60408051838152602081018390527f891f9bcb4792409309cff2d2fe1731948faa5e57dd60a1c7888e961e7777606691015b60405180910390a15050565b33600090815260036020526040812080548391908390611dbd908490615681565b90915550506001600160a01b038316600081815260036020526040908190208054850190555133907fddf252ad1be2c89b69c2b068fc378daa952ba7f163c4a11628f55a4df523b3ef90610a0d9086815260200190565b60105460009063fffffffe1901611e2e57610a19826149ff565b600080611e39613d53565b91509150600080611e4d8484886001613e42565b505091509150611f1c611f157f0000000000000000000000000000000000000000000000000000000000000000670de0b6b3a7640000611e8d9190615681565b7f00000000000000000000000000000000000000000000000000000000000000006001600160a01b031663226778496040518163ffffffff1660e01b8152600401602060405180830381865afa158015611eeb573d6000803e3d6000fd5b505050506040513d601f19601f82011682018060405250810190611f0f9190615621565b9061411c565b8290614a1e565b611f269083615669565b9695505050505050565b6000611f3b84610a1f565b9050336001600160a01b03831614611fab576001600160a01b03821660009081526004602090815260408083203384529091529020546000198114611fa957611f848282615681565b6001600160a01b03841660009081526004602090815260408083203384529091529020555b505b611fb58482614a33565b611fbf8282614c88565b60408051858152602081018390526001600160a01b03808516929086169133917ffbde797d201c681b91056529119e0b02407c7bb96a4a2c75c01fc9667232c8db910160405180910390a46109ab6001600160a01b037f00000000000000000000000000000000000000000000000000000000000000001684866141d9565b6000336001600160a01b038316146120ae576001600160a01b038216600090815260046020908152604080832033845290915290205460001981146120ac576120878582615681565b6001600160a01b03841660009081526004602090815260408083203384529091529020555b505b6120b7846110a7565b905080600003612123576040517f08c379a000000000000000000000000000000000000000000000000000000000815260206004820152600b60248201527f5a45524f5f4153534554530000000000000000000000000000000000000000006044820152606401611b20565b61212d8185614a33565b6121378285614c88565b60408051828152602081018690526001600160a01b03808516929086169133917ffbde797d201c681b91056529119e0b02407c7bb96a4a2c75c01fc9667232c8db910160405180910390a46109ab6001600160a01b037f00000000000000000000000000000000000000000000000000000000000000001684836141d9565b600080600063ffffffff8016601054036121fc576040517fa3d496c500000000000000000000000000000000000000000000000000000000815260040160405180910390fd5b336001600160a01b0385161461226a576001600160a01b03841660009081526004602090815260408083203384529091529020546000198114612268576122438782615681565b6001600160a01b03861660009081526004602090815260408083203384529091529020555b505b61227386614cfc565b90925090506122828487614c88565b801561231e57600b546040517fa9059cbb0000000000000000000000000000000000000000000000000000000081526001600160a01b038781166004830152602482018590529091169063a9059cbb906044016020604051808303816000875af11580156122f4573d6000803e3d6000fd5b505050506040513d601f19601f82011682018060405250810190612318919061592d565b5061239e565b600a546040517fa9059cbb0000000000000000000000000000000000000000000000000000000081526001600160a01b038781166004830152602482018590529091169063a9059cbb90604401600060405180830381600087803b15801561238557600080fd5b505af1158015612399573d6000803e3d6000fd5b505050505b6040516370a0823160e01b81523060048201527f00000000000000000000000000000000000000000000000000000000000000006001600160a01b03169063a9059cbb90879083906370a0823190602401602060405180830381865afa15801561240c573d6000803e3d6000fd5b505050506040513d601f19601f820116820180604052508101906124309190615621565b6040517fffffffff0000000000000000000000000000000000000000000000000000000060e085901b1681526001600160a01b0390921660048301526024820181905295506044016020604051808303816000875af1158015612497573d6000803e3d6000fd5b505050506040513d601f19601f820116820180604052508101906124bb919061592d565b506001600160a01b03808516908616337f8fdfb10c262f1ccaa0936a422af82535bd50d466e2354ed2b98841f244cbfbc9868a866124fa5760006124fc565b875b87612507578861250a565b60005b60408051948552602085019390935291830152606082015260800160405180910390a493509350939050565b60025460009080156109a9576109a48161254e6105e4565b859190614142565b60105463ffffffff14612595576040517f69dc023f00000000000000000000000000000000000000000000000000000000815260040160405180910390fd5b6016546000036125d0576125ca7f00000000000000000000000000000000000000000000000000000000000000006000611aad565b50612619565b426015546016546125e19190615669565b1115612619576040517f69dc023f00000000000000000000000000000000000000000000000000000000815260040160405180910390fd5b600e80547fffffffffffffffffffffffff00000000000000000000000000000000000000001633179055604080517f2c5786b800000000000000000000000000000000000000000000000000000000815290517f00000000000000000000000000000000000000000000000000000000000000006001600160a01b031691632c5786b891600480830192600092919082900301818387803b1580156126bd57600080fd5b505af1158015610f59573d6000803e3d6000fd5b60105460009063fffffffe19016126eb57610a19826151b8565b610a196103fd83612999565b42841015612761576040517f08c379a000000000000000000000000000000000000000000000000000000000815260206004820152601760248201527f5045524d49545f444541444c494e455f455850495245440000000000000000006044820152606401611b20565b6000600161276d611051565b6001600160a01b038a811660008181526005602090815260409182902080546001810190915582517f6e71edae12b1b97f4d1f60370fef10105fa2faae0126114a169c64845d6126c98184015280840194909452938d166060840152608083018c905260a083019390935260c08083018b90528151808403909101815260e0830190915280519201919091207f19010000000000000000000000000000000000000000000000000000000000006101008301526101028201929092526101228101919091526101420160408051601f198184030181528282528051602091820120600084529083018083525260ff871690820152606081018590526080810184905260a0016020604051602081039080840390855afa158015612894573d6000803e3d6000fd5b5050604051601f1901519150506001600160a01b038116158015906128ca5750876001600160a01b0316816001600160a01b0316145b612930576040517f08c379a000000000000000000000000000000000000000000000000000000000815260206004820152600e60248201527f494e56414c49445f5349474e45520000000000000000000000000000000000006044820152606401611b20565b6001600160a01b0390811660009081526004602090815260408083208a8516808552908352928190208990555188815291928a16917f8c5be1e5ebec7d5bd14f71427d1e84f3dd0314c0f7b2291e5b200ac8c7c3b925910160405180910390a350505050505050565b60105460009063fffffffe19016129c8576001600160a01b038216600090815260036020526040902054610a19565b6001600160a01b03821660009081526003602052604081205490806129eb613d53565b91509150600080600080612a028686896000613e42565b93509350935093508286612a169190615681565b9550612a228486615681565b94506000600c60009054906101000a90046001600160a01b03166001600160a01b0316638f1314b66040518163ffffffff1660e01b8152600401602060405180830381865afa158015612a79573d6000803e3d6000fd5b505050506040513d601f19601f82011682018060405250810190612a9d9190615621565b600b546040516370a0823160e01b8152306004820152919250612b19916001600160a01b03909116906370a08231906024015b602060405180830381865afa158015612aed573d6000803e3d6000fd5b505050506040513d601f19601f82011682018060405250810190612b119190615621565b839083614142565b612b239085615669565b6040516370a0823160e01b8152306004820152909450612b76906001600160a01b037f000000000000000000000000000000000000000000000000000000000000000016906370a0823190602401612ad0565b612b809086615669565b9450612b8c8282615681565b9050828411600081612ba757612ba28686615681565b612bb1565b612bb18587615681565b90508115612c85576000612bc68a8a8661433d565b9050818110612be05750989b9a5050505050505050505050565b6000612bec8387614131565b600254600c546040516370a0823160e01b8152306004820152929350612c73926001600160a01b03909116906370a0823190602401602060405180830381865afa158015612c3e573d6000803e3d6000fd5b505050506040513d601f19601f82011682018060405250810190612c629190615621565b612c6c8585614131565b9190614142565b9e9d5050505050505050505050505050565b808910612c9c5750979a9950505050505050505050565b6000612ca88286614131565b600254600c546040516370a0823160e01b8152306004820152929350612d28926001600160a01b03909116906370a0823190602401602060405180830381865afa158015612cfa573d6000803e3d6000fd5b505050506040513d601f19601f82011682018060405250810190612d1e9190615621565b612c6c8d85614131565b9d9c50505050505050505050505050565b336001600160a01b037f00000000000000000000000000000000000000000000000000000000000000001614612d9b576040517f467122e800000000000000000000000000000000000000000000000000000000815260040160405180910390fd5b600e54612db6906001600160a01b038481169116308461453d565b600654612dd0906001600160a01b03848116911683613c94565b6009546014546040517f5c25b08300000000000000000000000000000000000000000000000000000000815260048101919091526000916001600160a01b031690635c25b08390602401602060405180830381865afa158015612e37573d6000803e3d6000fd5b505050506040513d601f19601f82011682018060405250810190612e5b9190615621565b6006546040517f1fc3e7330000000000000000000000000000000000000000000000000000000081526001600160a01b037f000000000000000000000000000000000000000000000000000000000000000081166004830152602482018490526001604483015292935060009283921690631fc3e7339060640160408051808303816000875af1158015612ef3573d6000803e3d6000fd5b505050506040513d601f19601f82011682018060405250810190612f17919061594f565b6009546006546040517f457e79fe0000000000000000000000000000000000000000000000000000000081526001600160a01b0391821660048201523360248201526044810188905293955091935060009283928392839291169063457e79fe906064016080604051808303816000875af1158015612f9a573d6000803e3d6000fd5b505050506040513d601f19601f82011682018060405250810190612fbe919061597e565b6040517f095ea7b30000000000000000000000000000000000000000000000000000000081526001600160a01b037f000000000000000000000000000000000000000000000000000000000000000081166004830152600019602483015294985092965090945092509087169063095ea7b3906044016020604051808303816000875af1158015613053573d6000803e3d6000fd5b505050506040513d601f19601f82011682018060405250810190613077919061592d565b506006546040517f095ea7b30000000000000000000000000000000000000000000000000000000081526001600160a01b03918216600482015260001960248201529086169063095ea7b390604401600060405180830381600087803b1580156130e057600080fd5b505af11580156130f4573d6000803e3d6000fd5b50506040805160028082526060820183527f00000000000000000000000000000000000000000000000000000000000000009450600093509091602083019080368337019050509050818161314a866001615681565b8151811061315a5761315a6158fe565b60200260200101906001600160a01b031690816001600160a01b0316815250508781858151811061318d5761318d6158fe565b6001600160a01b0392831660209182029290920101526040516370a0823160e01b81523060048201526000918416906370a0823190602401602060405180830381865afa1580156131e2573d6000803e3d6000fd5b505050506040513d601f19601f820116820180604052508101906132069190615621565b9050600080886001600160a01b031663f6b025ba662386f26fc10000601354106132325760135461323b565b662386f26fc100005b8e600087613249818d61411c565b8f6001600160a01b0316636970a9246040518163ffffffff1660e01b8152600401602060405180830381865afa158015613287573d6000803e3d6000fd5b505050506040513d601f19601f820116820180604052508101906132ab9190615621565b6040517fffffffff0000000000000000000000000000000000000000000000000000000060e089901b1681526004810196909652602486019490945260448501929092526064840152608483015260a482015260c4016040805180830381865afa15801561331d573d6000803e3d6000fd5b505050506040513d601f19601f8201168201806040525081019061334191906159bd565b9150915060006133538383868a6151da565b90507f00000000000000000000000000000000000000000000000000000000000000006001600160a01b031663dfe5ef487f00000000000000000000000000000000000000000000000000000000000000008f846040518463ffffffff1660e01b81526004016133e1939291906001600160a01b039390931683526020830191909152604082015260600190565b6020604051808303816000875af1158015613400573d6000803e3d6000fd5b505050506040513d601f19601f820116820180604052508101906134249190615621565b506040805160028082526060820183526000926020830190803683370190505090506134508286615681565b8161345c8b6001615681565b8151811061346c5761346c6158fe565b6020026020010181815250506134c78a60405180608001604052808981526020018481526020018460006040516020016134a7929190615a1c565b60405160208183030381529060405281526020016000151581525061523b565b6040805160c081019091528a815261357b9060208101600081526020018f6001600160a01b03168152602001888c60016135019190615681565b81518110613511576135116158fe565b60200260200101516001600160a01b03168152602001613561848d60016135389190615681565b81518110613548576135486158fe565b602002602001015189896141429092919063ffffffff16565b8152604080516020818101909252600081529101526152a6565b6040516370a0823160e01b81523060048201526001600160a01b038e16906370a0823190602401602060405180830381865afa1580156135bf573d6000803e3d6000fd5b505050506040513d601f19601f820116820180604052508101906135e39190615621565b818a815181106135f5576135f56158fe565b60209081029190910101526040516370a0823160e01b81523060048201526001600160a01b038816906370a0823190602401602060405180830381865afa158015613644573d6000803e3d6000fd5b505050506040513d601f19601f820116820180604052508101906136689190615621565b816136748b6001615681565b81518110613684576136846158fe565b6020026020010181815250506136bf8a60405180608001604052808981526020018481526020018460006040516020016134a7929190615a1c565b8a600c60006101000a8154816001600160a01b0302191690836001600160a01b0316021790555089600d819055508c600b60006101000a8154816001600160a01b0302191690836001600160a01b031602179055508b600a60006101000a8154816001600160a01b0302191690836001600160a01b0316021790555087600f819055508d601081905550886011819055507fb5a6a15c68a4ea4c68e5f0a092ebb1fb66348d576f36915719c20098c8d554c18e898d336040516137a7949392919093845260208401929092526001600160a01b03908116604084015216606082015260800190565b60405180910390a150505050505050505050505050505050565b6008546001600160a01b031633146137d857600080fd5b817f53504143455f464143544f5259000000000000000000000000000000000000000361383757600780547fffffffffffffffffffffffff0000000000000000000000000000000000000000166001600160a01b0383161790556138f1565b817f50455249504845525900000000000000000000000000000000000000000000000361389657600680547fffffffffffffffffffffffff0000000000000000000000000000000000000000166001600160a01b0383161790556138f1565b817f4f574e455200000000000000000000000000000000000000000000000000000003611d2957600880547fffffffffffffffffffffffff0000000000000000000000000000000000000000166001600160a01b0383161790555b604080518381526001600160a01b03831660208201527fa732c61ad32bf32bfbf84fe12f5118319c3e0ec6afbacae92623da0b037f112b9101611d90565b7f00000000000000000000000000000000000000000000000000000000000000006001600160a01b0316816001600160a01b03160361396d57600080fd5b60105463ffffffff146139c957600a546001600160a01b038281169116148015906139a65750600b546001600160a01b03828116911614155b80156139c05750600c546001600160a01b03828116911614155b6139c957600080fd5b6040516370a0823160e01b81523060048201526001600160a01b0382169063a9059cbb907f00000000000000000000000000000000000000000000000000000000000000009083906370a0823190602401602060405180830381865afa158015613a37573d6000803e3d6000fd5b505050506040513d601f19601f82011682018060405250810190613a5b9190615621565b6040517fffffffff0000000000000000000000000000000000000000000000000000000060e085901b1681526001600160a01b03909216600483015260248201526044016020604051808303816000875af1158015613abe573d6000803e3d6000fd5b505050506040513d601f19601f82011682018060405250810190613ae2919061592d565b5050565b60105460009063fffffffe1901613b0057610a198261537f565b600c546001600160a01b0316600080613b17613d53565b915091506000613c1a846001600160a01b0316638f1314b66040518163ffffffff1660e01b8152600401602060405180830381865afa158015613b5e573d6000803e3d6000fd5b505050506040513d601f19601f82011682018060405250810190613b829190615621565b83613c1086868b7f00000000000000000000000000000000000000000000000000000000000000006001600160a01b031663226778496040518163ffffffff1660e01b8152600401602060405180830381865afa158015613be7573d6000803e3d6000fd5b505050506040513d601f19601f82011682018060405250810190613c0b9190615621565b6151da565b612c6c908a615681565b6002546040516370a0823160e01b8152306004820152919250611f26916001600160a01b038716906370a0823190602401602060405180830381865afa158015613c68573d6000803e3d6000fd5b505050506040513d601f19601f82011682018060405250810190613c8c9190615621565b839190614142565b60006040517f095ea7b3000000000000000000000000000000000000000000000000000000006000528360045282602452602060006044600080895af13d15601f3d1160016000511416171691506000606052806040525080610f59576040517f08c379a000000000000000000000000000000000000000000000000000000000815260206004820152600e60248201527f415050524f56455f4641494c45440000000000000000000000000000000000006044820152606401611b20565b60008060007f00000000000000000000000000000000000000000000000000000000000000006001600160a01b031663f94d4668600d546040518263ffffffff1660e01b8152600401613da891815260200190565b600060405180830381865afa158015613dc5573d6000803e3d6000fd5b505050506040513d6000823e601f3d908101601f19168201604052613ded9190810190615b01565b5091505060006011549050818181518110613e0a57613e0a6158fe565b602002602001015182826001613e209190615681565b81518110613e3057613e306158fe565b60200260200101519350935050509091565b600254600c546040516370a0823160e01b81523060048201526000928392839283929183916001600160a01b03909116906370a0823190602401602060405180830381865afa158015613e99573d6000803e3d6000fd5b505050506040513d601f19601f82011682018060405250810190613ebd9190615621565b90506000600c60009054906101000a90046001600160a01b03166001600160a01b0316638f1314b66040518163ffffffff1660e01b8152600401602060405180830381865afa158015613f14573d6000803e3d6000fd5b505050506040513d601f19601f82011682018060405250810190613f389190615621565b9050613fee88613f49576000613fd1565b6040516370a0823160e01b81523060048201527f00000000000000000000000000000000000000000000000000000000000000006001600160a01b0316906370a0823190602401602060405180830381865afa158015613fad573d6000803e3d6000fd5b505050506040513d601f19601f82011682018060405250810190613fd19190615621565b613fdc848d8561538a565b613fe69190615669565b8a908561538a565b61408689613ffd576000614069565b600b546040516370a0823160e01b81523060048201526001600160a01b03909116906370a0823190602401602060405180830381865afa158015614045573d6000803e3d6000fd5b505050506040513d601f19601f820116820180604052508101906140699190615621565b614074858f8661538a565b61407e9190615669565b8b908661538a565b600a546040516370a0823160e01b81523060048201526140fc916001600160a01b0316906370a0823190602401602060405180830381865afa1580156140d0573d6000803e3d6000fd5b505050506040513d601f19601f820116820180604052508101906140f49190615621565b8c908761538a565b6141078c868861538a565b929e919d509b50909950975050505050505050565b60006109ab8383670de0b6b3a7640000614142565b60006109ab83670de0b6b3a7640000845b82820281151584158583048514171661415a57600080fd5b0492915050565b60025460009080156109a9576109a4816141796105e4565b85919061538a565b60008183111561419157816109ab565b5090919050565b60007f800000000000000000000000000000000000000000000000000000000000000082106141c657600080fd5b5090565b6000808212156141c657600080fd5b60006040517fa9059cbb000000000000000000000000000000000000000000000000000000006000528360045282602452602060006044600080895af13d15601f3d1160016000511416171691506000606052806040525080610f59576040517f08c379a000000000000000000000000000000000000000000000000000000000815260206004820152600f60248201527f5452414e534645525f4641494c454400000000000000000000000000000000006044820152606401611b20565b60007f8b73c3c69bb8fe3d512ecc4cf759cc79239f7b179b0ffacaa9a75d522b39400f60006040516142ca9190615bcf565b6040805191829003822060208301939093528101919091527fc89efdaa54c0f20c7adf612882df0950f5a951637e0307cdcb4c672f298b8bc660608201524660808201523060a082015260c00160405160208183030381529060405280519060200120905090565b6000610a1982610985565b600c54601254601054604080517f6970a924000000000000000000000000000000000000000000000000000000008152905160009485946001600160a01b039091169363f6b025ba93919290918a918a918a918891636970a9249160048083019260209291908290030181865afa1580156143bc573d6000803e3d6000fd5b505050506040513d601f19601f820116820180604052508101906143e09190615621565b6040517fffffffff0000000000000000000000000000000000000000000000000000000060e089901b1681526004810196909652602486019490945260448501929092526064840152608483015260a482015260c4016040805180830381865afa158015614452573d6000803e3d6000fd5b505050506040513d601f19601f8201168201806040525081019061447691906159bd565b509050808510156144905761448b8582615681565b614493565b60005b95945050505050565b6040517f8bdb39130000000000000000000000000000000000000000000000000000000081526001600160a01b037f00000000000000000000000000000000000000000000000000000000000000001690638bdb391390614507908590309081908790600401615d38565b600060405180830381600087803b15801561452157600080fd5b505af1158015614535573d6000803e3d6000fd5b505050505050565b60006040517f23b872dd000000000000000000000000000000000000000000000000000000006000528460045283602452826044526020600060646000808a5af13d15601f3d1160016000511416171691506000606052806040525080614600576040517f08c379a000000000000000000000000000000000000000000000000000000000815260206004820152601460248201527f5452414e534645525f46524f4d5f4641494c45440000000000000000000000006044820152606401611b20565b5050505050565b80600260008282546146199190615669565b90915550506001600160a01b0382166000818152600360209081526040808320805486019055518481527fddf252ad1be2c89b69c2b068fc378daa952ba7f163c4a11628f55a4df523b3ef91015b60405180910390a35050565b60105463ffffffff14613ae257600254600d546011546040517ff94d46680000000000000000000000000000000000000000000000000000000081526004810183905260009081907f00000000000000000000000000000000000000000000000000000000000000006001600160a01b03169063f94d466890602401600060405180830381865afa15801561470c573d6000803e3d6000fd5b505050506040513d6000823e601f3d908101601f191682016040526147349190810190615b01565b50909250905060006147468787615681565b156147d057600c546040516370a0823160e01b81523060048201526147cb916001600160a01b0316906370a0823190602401602060405180830381865afa158015614795573d6000803e3d6000fd5b505050506040513d601f19601f820116820180604052508101906147b99190615621565b6147c38989615681565b89919061538a565b6147d2565b865b9050600061487c836147e5876001615681565b815181106147f5576147f56158fe565b6020026020010151600c60009054906101000a90046001600160a01b03166001600160a01b0316638f1314b66040518163ffffffff1660e01b8152600401602060405180830381865afa158015614850573d6000803e3d6000fd5b505050506040513d601f19601f820116820180604052508101906148749190615621565b84919061538a565b9050808361488b876001615681565b8151811061489b5761489b6158fe565b602090810291909101015260006148b2828b615681565b11156149c5577f00000000000000000000000000000000000000000000000000000000000000006001600160a01b031663dfe5ef487f0000000000000000000000000000000000000000000000000000000000000000601054848d6149179190615681565b6040517fffffffff0000000000000000000000000000000000000000000000000000000060e086901b1681526001600160a01b039093166004840152602483019190915260448201526064016020604051808303816000875af1158015614982573d6000803e3d6000fd5b505050506040513d601f19601f820116820180604052508101906149a69190615621565b8386815181106149b8576149b86158fe565b6020026020010181815250505b6149f48660405180608001604052808781526020018681526020018660006040516020016134a7929190615a1c565b505050505050505050565b60025460009080156109a9576109a4614a166105e4565b84908361538a565b60006109ab83670de0b6b3a76400008461538a565b60105463ffffffff14613ae257600080614a4c83614cfc565b915091507f0000000000000000000000000000000000000000000000000000000000000000821015614a7e5750505050565b8015614bce57600080614a8f613d53565b915091506000614b168383600c60009054906101000a90046001600160a01b03166001600160a01b0316638f1314b66040518163ffffffff1660e01b8152600401602060405180830381865afa158015614aed573d6000803e3d6000fd5b505050506040513d601f19601f82011682018060405250810190614b119190615621565b61433d565b905080851115614b52576040517fbb55fd2700000000000000000000000000000000000000000000000000000000815260040160405180910390fd5b6040805160c081018252600d54815260006020808301829052600b546001600160a01b03908116848601527f0000000000000000000000000000000000000000000000000000000000000000166060840152608083018990528351908101909352825260a0810191909152614bc6906152a6565b505050610f59565b6006546010546040517fb16bdcfe0000000000000000000000000000000000000000000000000000000081526001600160a01b037f00000000000000000000000000000000000000000000000000000000000000008116600483015260248201929092526044810185905291169063b16bdcfe906064016020604051808303816000875af1158015614c64573d6000803e3d6000fd5b505050506040513d601f19601f820116820180604052508101906146009190615621565b6001600160a01b03821660009081526003602052604081208054839290614cb0908490615681565b90915550506002805482900390556040518181526000906001600160a01b038416907fddf252ad1be2c89b69c2b068fc378daa952ba7f163c4a11628f55a4df523b3ef90602001614667565b600254600c546040516370a0823160e01b8152306004820152600092839290918391614d80916001600160a01b03909116906370a0823190602401602060405180830381865afa158015614d54573d6000803e3d6000fd5b505050506040513d601f19601f82011682018060405250810190614d789190615621565b869084614142565b600b546040516370a0823160e01b81523060048201529192506000916001600160a01b03909116906370a0823190602401602060405180830381865afa158015614dce573d6000803e3d6000fd5b505050506040513d601f19601f82011682018060405250810190614df29190615621565b90506000614e01878386614142565b60408051600280825260608201835292935060009290916020830190803683370190505090507f0000000000000000000000000000000000000000000000000000000000000000816011546001614e589190615681565b81518110614e6857614e686158fe565b6001600160a01b039283166020918202929092010152600b546011548351919092169183918110614e9b57614e9b6158fe565b6001600160a01b0392909216602092830291909101820152600d546040805160808101825284815281516002808252606082018452614efd9592938484019383019080368337019050508152602001876040516020016117c391815260200190565b600a546040516370a0823160e01b8152306004820152600091614f78916001600160a01b03909116906370a0823190602401602060405180830381865afa158015614f4c573d6000803e3d6000fd5b505050506040513d601f19601f82011682018060405250810190614f709190615621565b8a9088614142565b600b546040516370a0823160e01b815230600482015291925085916001600160a01b03909116906370a0823190602401602060405180830381865afa158015614fc5573d6000803e3d6000fd5b505050506040513d601f19601f82011682018060405250810190614fe99190615621565b614ff39190615681565b614ffd9084615669565b9250808311156150df576010546040517fba89bebd0000000000000000000000000000000000000000000000000000000081526001600160a01b037f0000000000000000000000000000000000000000000000000000000000000000811660048301526024820192909252604481018390527f00000000000000000000000000000000000000000000000000000000000000009091169063ba89bebd90606401600060405180830381600087803b1580156150b757600080fd5b505af11580156150cb573d6000803e3d6000fd5b505050920398600198509650505050505050565b6010546040517fba89bebd0000000000000000000000000000000000000000000000000000000081526001600160a01b037f0000000000000000000000000000000000000000000000000000000000000000811660048301526024820192909252604481018590527f00000000000000000000000000000000000000000000000000000000000000009091169063ba89bebd90606401600060405180830381600087803b15801561518f57600080fd5b505af11580156151a3573d6000803e3d6000fd5b50505092900398600098509650505050505050565b6001600160a01b038116600090815260036020526040812054610a1990610985565b60006144936152348661522387611f0f61521c7f0000000000000000000000000000000000000000000000000000000000000000670de0b6b3a7640000615681565b889061411c565b61522d9190615669565b8790614a1e565b84906153b8565b6040517fb95cac280000000000000000000000000000000000000000000000000000000081526001600160a01b037f0000000000000000000000000000000000000000000000000000000000000000169063b95cac2890614507908590309081908790600401615d38565b6040805160808101825230808252600060208301819052828401919091526060820181905291517f52bbbe2900000000000000000000000000000000000000000000000000000000815290917f00000000000000000000000000000000000000000000000000000000000000006001600160a01b0316916352bbbe2991615337918691869160001990600401615d6a565b6020604051808303816000875af1158015615356573d6000803e3d6000fd5b505050506040513d601f19601f8201168201806040525081019061537a9190615621565b505050565b6000610a1982612536565b8282028115158415858304851417166153a257600080fd5b6001826001830304018115150290509392505050565b60006109ab8383670de0b6b3a764000061538a565b6000815180845260005b818110156153f3576020818501810151868301820152016153d7565b81811115615405576000602083870101525b50601f01601f19169290920160200192915050565b6020815260006109ab60208301846153cd565b60006020828403121561543f57600080fd5b5035919050565b6001600160a01b038116811461545b57600080fd5b50565b6000806040838503121561547157600080fd5b823561547c81615446565b946020939093013593505050565b60008060006060848603121561549f57600080fd5b83356154aa81615446565b925060208401356154ba81615446565b929592945050506040919091013590565b6000602082840312156154dd57600080fd5b81356109ab81615446565b600080604083850312156154fb57600080fd5b82359150602083013561550d81615446565b809150509250929050565b6000806040838503121561552b57600080fd5b50508035926020909101359150565b60008060006060848603121561554f57600080fd5b83359250602084013561556181615446565b9150604084013561557181615446565b809150509250925092565b600080600080600080600060e0888a03121561559757600080fd5b87356155a281615446565b965060208801356155b281615446565b95506040880135945060608801359350608088013560ff811681146155d657600080fd5b9699959850939692959460a0840135945060c09093013592915050565b6000806040838503121561560657600080fd5b823561561181615446565b9150602083013561550d81615446565b60006020828403121561563357600080fd5b5051919050565b7f4e487b7100000000000000000000000000000000000000000000000000000000600052601160045260246000fd5b6000821982111561567c5761567c61563a565b500190565b6000828210156156935761569361563a565b500390565b600181811c908216806156ac57607f821691505b6020821081036156e5577f4e487b7100000000000000000000000000000000000000000000000000000000600052602260045260246000fd5b50919050565b6000808312837f8000000000000000000000000000000000000000000000000000000000000000018312811516156157255761572561563a565b837f7fffffffffffffffffffffffffffffffffffffffffffffffffffffffffffffff0183138116156157595761575961563a565b50500390565b60007f7fffffffffffffffffffffffffffffffffffffffffffffffffffffffffffffff6000841360008413858304851182821616156157a0576157a061563a565b7f800000000000000000000000000000000000000000000000000000000000000060008712868205881281841616156157db576157db61563a565b600087129250878205871284841616156157f7576157f761563a565b8785058712818416161561580d5761580d61563a565b505050929093029392505050565b600082615851577f4e487b7100000000000000000000000000000000000000000000000000000000600052601260045260246000fd5b60001983147f8000000000000000000000000000000000000000000000000000000000000000831416156158875761588761563a565b500590565b6000806000606084860312156158a157600080fd5b83516158ac81615446565b60208501519093506158bd81615446565b80925050604084015190509250925092565b7f4e487b7100000000000000000000000000000000000000000000000000000000600052604160045260246000fd5b7f4e487b7100000000000000000000000000000000000000000000000000000000600052603260045260246000fd5b60006020828403121561593f57600080fd5b815180151581146109ab57600080fd5b6000806040838503121561596257600080fd5b825161596d81615446565b602084015190925061550d81615446565b6000806000806080858703121561599457600080fd5b845161599f81615446565b60208601516040870151606090970151919890975090945092505050565b600080604083850312156159d057600080fd5b505080516020909101519092909150565b600081518084526020808501945080840160005b83811015615a11578151875295820195908201906001016159f5565b509495945050505050565b604081526000615a2f60408301856159e1565b905060ff831660208301529392505050565b604051601f8201601f1916810167ffffffffffffffff81118282101715615a6a57615a6a6158cf565b604052919050565b600067ffffffffffffffff821115615a8c57615a8c6158cf565b5060051b60200190565b600082601f830112615aa757600080fd5b81516020615abc615ab783615a72565b615a41565b82815260059290921b84018101918181019086841115615adb57600080fd5b8286015b84811015615af65780518352918301918301615adf565b509695505050505050565b600080600060608486031215615b1657600080fd5b835167ffffffffffffffff80821115615b2e57600080fd5b818601915086601f830112615b4257600080fd5b81516020615b52615ab783615a72565b82815260059290921b8401810191818101908a841115615b7157600080fd5b948201945b83861015615b98578551615b8981615446565b82529482019490820190615b76565b91890151919750909350505080821115615bb157600080fd5b50615bbe86828701615a96565b925050604084015190509250925092565b600080835481600182811c915080831680615beb57607f831692505b60208084108203615c23577f4e487b710000000000000000000000000000000000000000000000000000000086526022600452602486fd5b818015615c375760018114615c6657615c93565b7fffffffffffffffffffffffffffffffffffffffffffffffffffffffffffffff00861689528489019650615c93565b60008a81526020902060005b86811015615c8b5781548b820152908501908301615c72565b505084890196505b509498975050505050505050565b8051608080845281519084018190526000916020919082019060a0860190845b81811015615ce65783516001600160a01b031683529284019291840191600101615cc1565b505082850151915085810383870152615cff81836159e1565b9250505060408301518482036040860152615d1a82826153cd565b9150506060830151615d30606086018215159052565b509392505050565b84815260006001600160a01b03808616602084015280851660408401525060806060830152611f266080830184615ca1565b60e08152845160e08201526000602086015160028110615db3577f4e487b7100000000000000000000000000000000000000000000000000000000600052602160045260246000fd5b61010083015260408601516001600160a01b03166101208301526060860151615de86101408401826001600160a01b03169052565b50608086015161016083015260a086015160c0610180840152615e0f6101a08401826153cd565b915050615e5160208301866001600160a01b03808251168352602082015115156020840152806040830151166040840152506060810151151560608301525050565b60a082019390935260c001529291505056fea264697066735822122082481acb3e197a635a284e124cdb2d349957ccf3ee8187ac66108c105ca9c42d64736f6c634300080d0033",
    "linkReferences": {}
  },
  "methodIdentifiers": {
    "DOMAIN_SEPARATOR()": "3644e515",
    "allowance(address,address)": "dd62ed3e",
    "approve(address,uint256)": "095ea7b3",
    "asset()": "38d52e0f",
    "balanceOf(address)": "70a08231",
    "claimRewards(address)": "ef5cfb8c",
    "convertToAssets(uint256)": "07a2d13a",
    "convertToShares(uint256)": "c6e6f592",
    "cooldown()": "787a08a6",
    "decimals()": "313ce567",
    "deposit(uint256,address)": "6e553f65",
    "eject(uint256,address,address)": "c5c3d910",
    "lastSettle()": "95fa99c7",
    "maturity()": "204f83f9",
    "maxDeposit(address)": "402d267d",
    "maxMint(address)": "c63d75b6",
    "maxRedeem(address)": "d905777e",
    "maxWithdraw(address)": "ce96cb77",
    "mint(uint256,address)": "94bf804d",
    "name()": "06fdde03",
    "nonces(address)": "7ecebe00",
    "onSponsorWindowOpened(address,uint256)": "dfd4718f",
    "permit(address,address,uint256,uint256,uint8,bytes32,bytes32)": "d505accf",
    "previewDeposit(uint256)": "ef8b30f7",
    "previewMint(uint256)": "b3d7f6b9",
    "previewRedeem(uint256)": "4cdad506",
    "previewWithdraw(uint256)": "0a28a477",
    "redeem(uint256,address,address)": "ba087652",
    "roll()": "cd5e3c5d",
    "setParam(bytes32,address)": "edd1b0be",
    "setParam(bytes32,uint256)": "9f30490a",
    "settle()": "11da60b4",
    "startCooldown()": "680ff458",
    "symbol()": "95d89b41",
    "totalAssets()": "01e1d114",
    "totalSupply()": "18160ddd",
    "transfer(address,uint256)": "a9059cbb",
    "transferFrom(address,address,uint256)": "23b872dd",
    "withdraw(uint256,address,address)": "b460af94"
  },
  "id": 79
}