{
  "abi": [
    {
      "inputs": [
        {
          "internalType": "address",
          "name": "_divider",
          "type": "address"
        },
        {
          "internalType": "address",
          "name": "_target",
          "type": "address"
        },
        {
          "internalType": "address",
          "name": "_underlying",
          "type": "address"
        },
        {
          "components": [
            {
              "internalType": "address",
              "name": "oracle",
              "type": "address"
            },
            {
              "internalType": "address",
              "name": "stake",
              "type": "address"
            },
            {
              "internalType": "uint256",
              "name": "stakeSize",
              "type": "uint256"
            },
            {
              "internalType": "uint256",
              "name": "minm",
              "type": "uint256"
            },
            {
              "internalType": "uint256",
              "name": "maxm",
              "type": "uint256"
            },
            {
              "internalType": "uint64",
              "name": "tilt",
              "type": "uint64"
            },
            {
              "internalType": "uint48",
              "name": "level",
              "type": "uint48"
            },
            {
              "internalType": "uint16",
              "name": "mode",
              "type": "uint16"
            }
          ],
          "internalType": "struct BaseAdapter.AdapterParams",
          "name": "_adapterParams",
          "type": "tuple"
        }
      ],
      "stateMutability": "nonpayable",
      "type": "constructor"
    },
    {
      "inputs": [],
      "name": "FlashCallbackFailed",
      "type": "error"
    },
    {
      "inputs": [],
      "name": "OnlyPeriphery",
      "type": "error"
    },
    {
      "inputs": [],
      "name": "TokenNotSupported",
      "type": "error"
    },
    {
      "anonymous": false,
      "inputs": [
        {
          "indexed": true,
          "internalType": "address",
          "name": "user",
          "type": "address"
        },
        {
          "indexed": false,
          "internalType": "bool",
          "name": "trusted",
          "type": "bool"
        }
      ],
      "name": "UserTrustUpdated",
      "type": "event"
    },
    {
      "inputs": [],
      "name": "CALLBACK_SUCCESS",
      "outputs": [
        {
          "internalType": "bytes32",
          "name": "",
          "type": "bytes32"
        }
      ],
      "stateMutability": "view",
      "type": "function"
    },
    {
      "inputs": [],
      "name": "adapterParams",
      "outputs": [
        {
          "internalType": "address",
          "name": "oracle",
          "type": "address"
        },
        {
          "internalType": "address",
          "name": "stake",
          "type": "address"
        },
        {
          "internalType": "uint256",
          "name": "stakeSize",
          "type": "uint256"
        },
        {
          "internalType": "uint256",
          "name": "minm",
          "type": "uint256"
        },
        {
          "internalType": "uint256",
          "name": "maxm",
          "type": "uint256"
        },
        {
          "internalType": "uint64",
          "name": "tilt",
          "type": "uint64"
        },
        {
          "internalType": "uint48",
          "name": "level",
          "type": "uint48"
        },
        {
          "internalType": "uint16",
          "name": "mode",
          "type": "uint16"
        }
      ],
      "stateMutability": "view",
      "type": "function"
    },
    {
      "inputs": [],
      "name": "divider",
      "outputs": [
        {
          "internalType": "address",
          "name": "",
          "type": "address"
        }
      ],
      "stateMutability": "view",
      "type": "function"
    },
    {
      "inputs": [
        {
          "internalType": "address",
          "name": "token",
          "type": "address"
        },
        {
          "internalType": "uint256",
          "name": "",
          "type": "uint256"
        }
      ],
      "name": "flashFee",
      "outputs": [
        {
          "internalType": "uint256",
          "name": "",
          "type": "uint256"
        }
      ],
      "stateMutability": "view",
      "type": "function"
    },
    {
      "inputs": [
        {
          "internalType": "contract IERC3156FlashBorrower",
          "name": "receiver",
          "type": "address"
        },
        {
          "internalType": "address",
          "name": "",
          "type": "address"
        },
        {
          "internalType": "uint256",
          "name": "amount",
          "type": "uint256"
        },
        {
          "internalType": "bytes",
          "name": "data",
          "type": "bytes"
        }
      ],
      "name": "flashLoan",
      "outputs": [
        {
          "internalType": "bool",
          "name": "",
          "type": "bool"
        }
      ],
      "stateMutability": "nonpayable",
      "type": "function"
    },
    {
      "inputs": [],
      "name": "getMaturityBounds",
      "outputs": [
        {
          "internalType": "uint256",
          "name": "",
          "type": "uint256"
        },
        {
          "internalType": "uint256",
          "name": "",
          "type": "uint256"
        }
      ],
      "stateMutability": "view",
      "type": "function"
    },
    {
      "inputs": [],
      "name": "getStakeAndTarget",
      "outputs": [
        {
          "internalType": "address",
          "name": "",
          "type": "address"
        },
        {
          "internalType": "address",
          "name": "",
          "type": "address"
        },
        {
          "internalType": "uint256",
          "name": "",
          "type": "uint256"
        }
      ],
      "stateMutability": "view",
      "type": "function"
    },
    {
      "inputs": [],
      "name": "getUnderlyingPrice",
      "outputs": [
        {
          "internalType": "uint256",
          "name": "",
          "type": "uint256"
        }
      ],
      "stateMutability": "view",
      "type": "function"
    },
    {
      "inputs": [],
      "name": "ifee",
      "outputs": [
        {
          "internalType": "uint128",
          "name": "",
          "type": "uint128"
        }
      ],
      "stateMutability": "view",
      "type": "function"
    },
    {
      "inputs": [
        {
          "internalType": "address",
          "name": "",
          "type": "address"
        }
      ],
      "name": "isTrusted",
      "outputs": [
        {
          "internalType": "bool",
          "name": "",
          "type": "bool"
        }
      ],
      "stateMutability": "view",
      "type": "function"
    },
    {
      "inputs": [],
      "name": "level",
      "outputs": [
        {
          "internalType": "uint256",
          "name": "",
          "type": "uint256"
        }
      ],
      "stateMutability": "view",
      "type": "function"
    },
    {
      "inputs": [
        {
          "internalType": "address",
          "name": "token",
          "type": "address"
        }
      ],
      "name": "maxFlashLoan",
      "outputs": [
        {
          "internalType": "uint256",
          "name": "",
          "type": "uint256"
        }
      ],
      "stateMutability": "view",
      "type": "function"
    },
    {
      "inputs": [],
      "name": "mode",
      "outputs": [
        {
          "internalType": "uint256",
          "name": "",
          "type": "uint256"
        }
      ],
      "stateMutability": "view",
      "type": "function"
    },
    {
      "inputs": [],
      "name": "name",
      "outputs": [
        {
          "internalType": "string",
          "name": "",
          "type": "string"
        }
      ],
      "stateMutability": "view",
      "type": "function"
    },
    {
      "inputs": [
        {
          "internalType": "address",
          "name": "",
          "type": "address"
        },
        {
          "internalType": "uint256",
          "name": "",
          "type": "uint256"
        },
        {
          "internalType": "bool",
          "name": "",
          "type": "bool"
        }
      ],
      "name": "notify",
      "outputs": [],
      "stateMutability": "nonpayable",
      "type": "function"
    },
    {
      "inputs": [
        {
          "internalType": "uint256",
          "name": "",
          "type": "uint256"
        },
        {
          "internalType": "uint256",
          "name": "",
          "type": "uint256"
        },
        {
          "internalType": "uint256",
          "name": "",
          "type": "uint256"
        },
        {
          "internalType": "uint256",
          "name": "",
          "type": "uint256"
        }
      ],
      "name": "onRedeem",
      "outputs": [],
      "stateMutability": "nonpayable",
      "type": "function"
    },
    {
      "inputs": [],
      "name": "openSponsorWindow",
      "outputs": [],
      "stateMutability": "nonpayable",
      "type": "function"
    },
    {
      "inputs": [],
      "name": "scale",
      "outputs": [
        {
          "internalType": "uint256",
          "name": "",
          "type": "uint256"
        }
      ],
      "stateMutability": "view",
      "type": "function"
    },
    {
      "inputs": [],
      "name": "scaleStored",
      "outputs": [
        {
          "internalType": "uint256",
          "name": "_scale",
          "type": "uint256"
        }
      ],
      "stateMutability": "view",
      "type": "function"
    },
    {
      "inputs": [
        {
          "internalType": "address",
          "name": "user",
          "type": "address"
        },
        {
          "internalType": "bool",
          "name": "trusted",
          "type": "bool"
        }
      ],
      "name": "setIsTrusted",
      "outputs": [],
      "stateMutability": "nonpayable",
      "type": "function"
    },
    {
      "inputs": [
        {
          "internalType": "uint256",
          "name": "_scale",
          "type": "uint256"
        }
      ],
      "name": "setScale",
      "outputs": [],
      "stateMutability": "nonpayable",
      "type": "function"
    },
    {
      "inputs": [],
      "name": "symbol",
      "outputs": [
        {
          "internalType": "string",
          "name": "",
          "type": "string"
        }
      ],
      "stateMutability": "view",
      "type": "function"
    },
    {
      "inputs": [],
      "name": "target",
      "outputs": [
        {
          "internalType": "address",
          "name": "",
          "type": "address"
        }
      ],
      "stateMutability": "view",
      "type": "function"
    },
    {
      "inputs": [],
      "name": "tilt",
      "outputs": [
        {
          "internalType": "uint256",
          "name": "",
          "type": "uint256"
        }
      ],
      "stateMutability": "view",
      "type": "function"
    },
    {
      "inputs": [],
      "name": "underlying",
      "outputs": [
        {
          "internalType": "address",
          "name": "",
          "type": "address"
        }
      ],
      "stateMutability": "view",
      "type": "function"
    },
    {
      "inputs": [
        {
          "internalType": "uint256",
          "name": "tBal",
          "type": "uint256"
        }
      ],
      "name": "unwrapTarget",
      "outputs": [
        {
          "internalType": "uint256",
          "name": "amountOut",
          "type": "uint256"
        }
      ],
      "stateMutability": "nonpayable",
      "type": "function"
    },
    {
      "inputs": [
        {
          "internalType": "uint256",
          "name": "uBal",
          "type": "uint256"
        }
      ],
      "name": "wrapUnderlying",
      "outputs": [
        {
          "internalType": "uint256",
          "name": "amountOut",
          "type": "uint256"
        }
      ],
      "stateMutability": "nonpayable",
      "type": "function"
    }
  ],
  "bytecode": {
    "object": "0x610100604052670f43fc2c04ee00006009556001600a553480156200002357600080fd5b506040516200221f3803806200221f8339810160408190526200004691620004d7565b6001600160a01b03808516608090815281851660a081815283861660c090815266044364c5bb000060e08181528751600080549189166001600160a01b031992831617815560208a01516001805491909a1692169190911790975560408089015160025560608901516003559588015160049081559388015160058054948a0151928a015161ffff16600160701b0261ffff60701b1965ffffffffffff90941668010000000000000000026001600160701b03199096166001600160401b039093169290921794909417919091161790915583516306fdde0360e01b8152935133958a958a958a958a9491936306fdde0393808301939192908290030181865afa15801562000159573d6000803e3d6000fd5b505050506040513d6000823e601f3d908101601f19168201604052620001839190810190620005ff565b604051602001620001959190620006b7565b60405160208183030381529060405260069080519060200190620001bb929190620003a8565b50836001600160a01b03166395d89b416040518163ffffffff1660e01b8152600401600060405180830381865afa158015620001fb573d6000803e3d6000fd5b505050506040513d6000823e601f3d908101601f19168201604052620002259190810190620005ff565b604051602001620002379190620006e5565b604051602081830303815290604052600790805190602001906200025d929190620003a8565b5062000287608051600019866001600160a01b03166200032060201b6200120c179092919060201c565b620002b460805160001983602001516001600160a01b03166200032060201b6200120c179092919060201c565b505050506001600160a01b038216600081815260086020908152604091829020805460ff1916600190811790915591519182529192507fe95aec380cae16330d146d5499ef7db6f3657e477104a733e771bc09e500d986910160405180910390a250505050506200074f565b600060405163095ea7b360e01b6000528360045282602452602060006044600080895af13d15601f3d1160016000511416171691506000606052806040525080620003a25760405162461bcd60e51b815260206004820152600e60248201526d1054141493d59157d1905253115160921b604482015260640160405180910390fd5b50505050565b828054620003b69062000713565b90600052602060002090601f016020900481019282620003da576000855562000425565b82601f10620003f557805160ff191683800117855562000425565b8280016001018555821562000425579182015b828111156200042557825182559160200191906001019062000408565b506200043392915062000437565b5090565b5b8082111562000433576000815560010162000438565b80516001600160a01b03811681146200046657600080fd5b919050565b634e487b7160e01b600052604160045260246000fd5b60405161010081016001600160401b0381118282101715620004a757620004a76200046b565b60405290565b805165ffffffffffff811681146200046657600080fd5b805161ffff811681146200046657600080fd5b600080600080848603610160811215620004f057600080fd5b620004fb866200044e565b94506200050b602087016200044e565b93506200051b604087016200044e565b925061010080605f19830112156200053257600080fd5b6200053c62000481565b91506200054c606088016200044e565b82526200055c608088016200044e565b602083015260a0870151604083015260c0870151606083015260e087015160808301528601516001600160401b03811681146200059857600080fd5b60a0820152620005ac6101208701620004ad565b60c0820152620005c06101408701620004c4565b60e0820152939692955090935050565b60005b83811015620005ed578181015183820152602001620005d3565b83811115620003a25750506000910152565b6000602082840312156200061257600080fd5b81516001600160401b03808211156200062a57600080fd5b818401915084601f8301126200063f57600080fd5b8151818111156200065457620006546200046b565b604051601f8201601f19908116603f011681019083821181831017156200067f576200067f6200046b565b816040528281528760208487010111156200069957600080fd5b620006ac836020830160208801620005d0565b979650505050505050565b60008251620006cb818460208701620005d0565b671020b230b83a32b960c11b920191825250600801919050565b60008251620006f9818460208701620005d0565b6716b0b230b83a32b960c11b920191825250600801919050565b600181811c908216806200072857607f821691505b6020821081036200074957634e487b7160e01b600052602260045260246000fd5b50919050565b60805160a05160c05160e051611a50620007cf60003960006104fe015260008181610456015281816108670152610b5c01526000818161030f015281816105580152818161084201528181610b3701528181610f0301528181610f790152818161106101526111800152600081816103700152610e0f0152611a506000f3fe608060405234801561001057600080fd5b50600436106101b95760003560e01c80635cffe9de116100f957806396d6487911610097578063c39a3b2911610071578063c39a3b2914610541578063d4b8399214610553578063d9d98ce41461057a578063f51e181a1461058d57600080fd5b806396d64879146104c3578063b484972a146104e6578063b8c15a9f146104f957600080fd5b80636f307dc3116100d35780636f307dc3146104515780636fd5ae15146104785780638237e5381461049457806395d89b41146104bb57600080fd5b80635cffe9de146103fe578063613255ab1461042157806364c56e3c1461043457600080fd5b8063295a5212116101665780633edc3519116101405780633edc3519146103b7578063468f02d2146103ca5780634aae9fed146103d857806351c39ea1146103eb57600080fd5b8063295a5212146103455780632c5786b814610363578063378efa371461036b57600080fd5b806314282f581161019757806314282f58146102c857806322677849146102dc57806327b327d0146102ee57600080fd5b806306fdde03146101be578063083118d5146101dc5780631393916a146102b3575b600080fd5b6101c6610596565b6040516101d39190611454565b60405180910390f35b60005460015460025460035460045460055461024a9573ffffffffffffffffffffffffffffffffffffffff90811695169392919067ffffffffffffffff81169068010000000000000000810465ffffffffffff16906e010000000000000000000000000000900461ffff1688565b6040805173ffffffffffffffffffffffffffffffffffffffff998a168152989097166020890152958701949094526060860192909252608085015267ffffffffffffffff1660a084015265ffffffffffff1660c083015261ffff1660e0820152610100016101d3565b6102c66102c13660046114fa565b610624565b005b6102c66102d6366004611533565b50505050565b6009545b6040519081526020016101d3565b6001546002546040805173ffffffffffffffffffffffffffffffffffffffff7f00000000000000000000000000000000000000000000000000000000000000008116825290931660208401528201526060016101d3565b6005546e010000000000000000000000000000900461ffff166102e0565b6102c661072c565b6103927f000000000000000000000000000000000000000000000000000000000000000081565b60405173ffffffffffffffffffffffffffffffffffffffff90911681526020016101d3565b6102c66103c5366004611565565b600955565b670de0b6b3a76400006102e0565b6102e06103e6366004611565565b61083d565b6102e06103f9366004611565565b610b32565b61041161040c36600461157e565b610df4565b60405190151581526020016101d3565b6102e061042f36600461161d565b611096565b61043c61112d565b604080519283526020830191909152016101d3565b6103927f000000000000000000000000000000000000000000000000000000000000000081565b60055468010000000000000000900465ffffffffffff166102e0565b6102e07f439148f0bbc682ca079e46d6e2c2f0c1e3b820f1a291b069d8882abf8cf18dd981565b6101c661116f565b6104116104d136600461161d565b60086020526000908152604090205460ff1681565b6102c66104f4366004611641565b505050565b6105207f000000000000000000000000000000000000000000000000000000000000000081565b6040516fffffffffffffffffffffffffffffffff90911681526020016101d3565b60055467ffffffffffffffff166102e0565b6103927f000000000000000000000000000000000000000000000000000000000000000081565b6102e0610588366004611683565b61117c565b6102e060095481565b600680546105a3906116af565b80601f01602080910402602001604051908101604052809291908181526020018280546105cf906116af565b801561061c5780601f106105f15761010080835404028352916020019161061c565b820191906000526020600020905b8154815290600101906020018083116105ff57829003601f168201915b505050505081565b3360009081526008602052604090205460ff166106a2576040517f08c379a000000000000000000000000000000000000000000000000000000000815260206004820152600960248201527f554e54525553544544000000000000000000000000000000000000000000000060448201526064015b60405180910390fd5b73ffffffffffffffffffffffffffffffffffffffff821660008181526008602090815260409182902080547fffffffffffffffffffffffffffffffffffffffffffffffffffffffffffffff001685151590811790915591519182527fe95aec380cae16330d146d5499ef7db6f3657e477104a733e771bc09e500d986910160405180910390a25050565b3360009081526008602052604090205460ff166107a5576040517f08c379a000000000000000000000000000000000000000000000000000000000815260206004820152600960248201527f554e5452555354454400000000000000000000000000000000000000000000006044820152606401610699565b6002600a81905560015490546040517fdfd4718f00000000000000000000000000000000000000000000000000000000815273ffffffffffffffffffffffffffffffffffffffff90921660048301526024820152339063dfd4718f90604401600060405180830381600087803b15801561081e57600080fd5b505af1158015610832573d6000803e3d6000fd5b50506001600a555050565b6000807f0000000000000000000000000000000000000000000000000000000000000000905060007f0000000000000000000000000000000000000000000000000000000000000000905060008273ffffffffffffffffffffffffffffffffffffffff1663313ce5676040518163ffffffff1660e01b8152600401602060405180830381865afa1580156108d5573d6000803e3d6000fd5b505050506040513d601f19601f820116820180604052508101906108f99190611702565b60ff16905060008273ffffffffffffffffffffffffffffffffffffffff1663313ce5676040518163ffffffff1660e01b8152600401602060405180830381865afa15801561094b573d6000803e3d6000fd5b505050506040513d601f19601f8201168201806040525081019061096f9190611702565b6040517f23b872dd0000000000000000000000000000000000000000000000000000000081523360048201523060248201526044810188905260ff91909116915073ffffffffffffffffffffffffffffffffffffffff8416906323b872dd906064016020604051808303816000875af11580156109f0573d6000803e3d6000fd5b505050506040513d601f19601f82011682018060405250810190610a149190611725565b50818110610a6057600a610a288383611771565b610a3291906118a8565b600954610a4788670de0b6b3a76400006118b7565b610a519190611923565b610a5b9190611923565b610a9f565b600a610a6c8284611771565b610a7691906118a8565b600954610a8b88670de0b6b3a76400006118b7565b610a959190611923565b610a9f91906118b7565b6040517f40c10f190000000000000000000000000000000000000000000000000000000081523360048201526024810182905290955073ffffffffffffffffffffffffffffffffffffffff8516906340c10f19906044015b600060405180830381600087803b158015610b1157600080fd5b505af1158015610b25573d6000803e3d6000fd5b5050505050505050919050565b6000807f0000000000000000000000000000000000000000000000000000000000000000905060007f0000000000000000000000000000000000000000000000000000000000000000905060008273ffffffffffffffffffffffffffffffffffffffff1663313ce5676040518163ffffffff1660e01b8152600401602060405180830381865afa158015610bca573d6000803e3d6000fd5b505050506040513d601f19601f82011682018060405250810190610bee9190611702565b60ff16905060008273ffffffffffffffffffffffffffffffffffffffff1663313ce5676040518163ffffffff1660e01b8152600401602060405180830381865afa158015610c40573d6000803e3d6000fd5b505050506040513d601f19601f82011682018060405250810190610c649190611702565b6040517f23b872dd0000000000000000000000000000000000000000000000000000000081523360048201523060248201526044810188905260ff91909116915073ffffffffffffffffffffffffffffffffffffffff8516906323b872dd906064016020604051808303816000875af1158015610ce5573d6000803e3d6000fd5b505050506040513d601f19601f82011682018060405250810190610d099190611725565b50818110610d5757600a610d1d8383611771565b610d2791906118a8565b670de0b6b3a764000060095488610d3e91906118b7565b610d489190611923565b610d5291906118b7565b610d98565b600a610d638284611771565b610d6d91906118a8565b670de0b6b3a764000060095488610d8491906118b7565b610d8e9190611923565b610d989190611923565b6040517f40c10f190000000000000000000000000000000000000000000000000000000081523360048201526024810182905290955073ffffffffffffffffffffffffffffffffffffffff8416906340c10f1990604401610af7565b60003373ffffffffffffffffffffffffffffffffffffffff167f000000000000000000000000000000000000000000000000000000000000000073ffffffffffffffffffffffffffffffffffffffff166377aace1a6040518163ffffffff1660e01b8152600401602060405180830381865afa158015610e78573d6000803e3d6000fd5b505050506040513d601f19601f82011682018060405250810190610e9c9190611937565b73ffffffffffffffffffffffffffffffffffffffff1614610ee9576040517ffb02114900000000000000000000000000000000000000000000000000000000815260040160405180910390fd5b610f2a73ffffffffffffffffffffffffffffffffffffffff7f00000000000000000000000000000000000000000000000000000000000000001687866112cb565b6040517f23e30c8b00000000000000000000000000000000000000000000000000000000815260009073ffffffffffffffffffffffffffffffffffffffff8816906323e30c8b90610fa99033907f0000000000000000000000000000000000000000000000000000000000000000908a9087908b908b90600401611954565b6020604051808303816000875af1158015610fc8573d6000803e3d6000fd5b505050506040513d601f19601f82011682018060405250810190610fec91906119da565b90507f439148f0bbc682ca079e46d6e2c2f0c1e3b820f1a291b069d8882abf8cf18dd98114611047576040517f207df21c00000000000000000000000000000000000000000000000000000000815260040160405180910390fd5b61108973ffffffffffffffffffffffffffffffffffffffff7f00000000000000000000000000000000000000000000000000000000000000001688308861138a565b5060019695505050505050565b6040517f70a0823100000000000000000000000000000000000000000000000000000000815230600482015260009073ffffffffffffffffffffffffffffffffffffffff8316906370a0823190602401602060405180830381865afa158015611103573d6000803e3d6000fd5b505050506040513d601f19601f8201168201806040525081019061112791906119da565b92915050565b600080600a5460021461114257600080611157565b6000611157600267ffffffffffffffff6119f3565b60ff9091169367ffffffffffffffff90911692509050565b600780546105a3906116af565b60007f000000000000000000000000000000000000000000000000000000000000000073ffffffffffffffffffffffffffffffffffffffff168373ffffffffffffffffffffffffffffffffffffffff1614611203576040517f3dd1b30500000000000000000000000000000000000000000000000000000000815260040160405180910390fd5b50600092915050565b60006040517f095ea7b3000000000000000000000000000000000000000000000000000000006000528360045282602452602060006044600080895af13d15601f3d11600160005114161716915060006060528060405250806102d6576040517f08c379a000000000000000000000000000000000000000000000000000000000815260206004820152600e60248201527f415050524f56455f4641494c45440000000000000000000000000000000000006044820152606401610699565b60006040517fa9059cbb000000000000000000000000000000000000000000000000000000006000528360045282602452602060006044600080895af13d15601f3d11600160005114161716915060006060528060405250806102d6576040517f08c379a000000000000000000000000000000000000000000000000000000000815260206004820152600f60248201527f5452414e534645525f4641494c454400000000000000000000000000000000006044820152606401610699565b60006040517f23b872dd000000000000000000000000000000000000000000000000000000006000528460045283602452826044526020600060646000808a5af13d15601f3d116001600051141617169150600060605280604052508061144d576040517f08c379a000000000000000000000000000000000000000000000000000000000815260206004820152601460248201527f5452414e534645525f46524f4d5f4641494c45440000000000000000000000006044820152606401610699565b5050505050565b600060208083528351808285015260005b8181101561148157858101830151858201604001528201611465565b81811115611493576000604083870101525b50601f017fffffffffffffffffffffffffffffffffffffffffffffffffffffffffffffffe016929092016040019392505050565b73ffffffffffffffffffffffffffffffffffffffff811681146114e957600080fd5b50565b80151581146114e957600080fd5b6000806040838503121561150d57600080fd5b8235611518816114c7565b91506020830135611528816114ec565b809150509250929050565b6000806000806080858703121561154957600080fd5b5050823594602084013594506040840135936060013592509050565b60006020828403121561157757600080fd5b5035919050565b60008060008060006080868803121561159657600080fd5b85356115a1816114c7565b945060208601356115b1816114c7565b935060408601359250606086013567ffffffffffffffff808211156115d557600080fd5b818801915088601f8301126115e957600080fd5b8135818111156115f857600080fd5b89602082850101111561160a57600080fd5b9699959850939650602001949392505050565b60006020828403121561162f57600080fd5b813561163a816114c7565b9392505050565b60008060006060848603121561165657600080fd5b8335611661816114c7565b9250602084013591506040840135611678816114ec565b809150509250925092565b6000806040838503121561169657600080fd5b82356116a1816114c7565b946020939093013593505050565b600181811c908216806116c357607f821691505b6020821081036116fc577f4e487b7100000000000000000000000000000000000000000000000000000000600052602260045260246000fd5b50919050565b60006020828403121561171457600080fd5b815160ff8116811461163a57600080fd5b60006020828403121561173757600080fd5b815161163a816114ec565b7f4e487b7100000000000000000000000000000000000000000000000000000000600052601160045260246000fd5b60008282101561178357611783611742565b500390565b600181815b808511156117e157817fffffffffffffffffffffffffffffffffffffffffffffffffffffffffffffffff048211156117c7576117c7611742565b808516156117d457918102915b93841c939080029061178d565b509250929050565b6000826117f857506001611127565b8161180557506000611127565b816001811461181b576002811461182557611841565b6001915050611127565b60ff84111561183657611836611742565b50506001821b611127565b5060208310610133831016604e8410600b8410161715611864575081810a611127565b61186e8383611788565b807fffffffffffffffffffffffffffffffffffffffffffffffffffffffffffffffff048211156118a0576118a0611742565b029392505050565b600061163a60ff8416836117e9565b6000817fffffffffffffffffffffffffffffffffffffffffffffffffffffffffffffffff04831182151516156118ef576118ef611742565b500290565b7f4e487b7100000000000000000000000000000000000000000000000000000000600052601260045260246000fd5b600082611932576119326118f4565b500490565b60006020828403121561194957600080fd5b815161163a816114c7565b600073ffffffffffffffffffffffffffffffffffffffff808916835280881660208401525085604083015284606083015260a060808301528260a0830152828460c0840137600060c0848401015260c07fffffffffffffffffffffffffffffffffffffffffffffffffffffffffffffffe0601f8501168301019050979650505050505050565b6000602082840312156119ec57600080fd5b5051919050565b600067ffffffffffffffff80841680611a0e57611a0e6118f4565b9216919091049291505056fea26469706673582212203cf6cfac70455451947441c61410c8d9393f14a011969f6e4edbc78e0f8886fc64736f6c634300080d0033",
    "linkReferences": {}
  },
  "methodIdentifiers": {
    "CALLBACK_SUCCESS()": "8237e538",
    "adapterParams()": "083118d5",
    "divider()": "378efa37",
    "flashFee(address,uint256)": "d9d98ce4",
    "flashLoan(address,address,uint256,bytes)": "5cffe9de",
    "getMaturityBounds()": "64c56e3c",
    "getStakeAndTarget()": "27b327d0",
    "getUnderlyingPrice()": "468f02d2",
    "ifee()": "b8c15a9f",
    "isTrusted(address)": "96d64879",
    "level()": "6fd5ae15",
    "maxFlashLoan(address)": "613255ab",
    "mode()": "295a5212",
    "name()": "06fdde03",
    "notify(address,uint256,bool)": "b484972a",
    "onRedeem(uint256,uint256,uint256,uint256)": "14282f58",
    "openSponsorWindow()": "2c5786b8",
    "scale()": "f51e181a",
    "scaleStored()": "22677849",
    "setIsTrusted(address,bool)": "1393916a",
    "setScale(uint256)": "3edc3519",
    "symbol()": "95d89b41",
    "target()": "d4b83992",
    "tilt()": "c39a3b29",
    "underlying()": "6f307dc3",
    "unwrapTarget(uint256)": "51c39ea1",
    "wrapUnderlying(uint256)": "4aae9fed"
  },
  "id": 90
}