{
  "abi": [
    {
      "inputs": [],
      "name": "MaxAssetError",
      "type": "error"
    },
    {
      "inputs": [],
      "name": "MaxSharesError",
      "type": "error"
    },
    {
      "inputs": [],
      "name": "MinAssetError",
      "type": "error"
    },
    {
      "inputs": [],
      "name": "MinAssetsOrExcessError",
      "type": "error"
    },
    {
      "inputs": [],
      "name": "MinSharesError",
      "type": "error"
    },
    {
      "inputs": [
        {
          "internalType": "contract ERC20",
          "name": "token",
          "type": "address"
        },
        {
          "internalType": "address",
          "name": "to",
          "type": "address"
        },
        {
          "internalType": "uint256",
          "name": "amount",
          "type": "uint256"
        }
      ],
      "name": "approve",
      "outputs": [],
      "stateMutability": "payable",
      "type": "function"
    },
    {
      "inputs": [
        {
          "internalType": "contract ERC4626",
          "name": "vault",
          "type": "address"
        },
        {
          "internalType": "uint256",
          "name": "assets",
          "type": "uint256"
        },
        {
          "internalType": "address",
          "name": "receiver",
          "type": "address"
        },
        {
          "internalType": "uint256",
          "name": "minSharesOut",
          "type": "uint256"
        }
      ],
      "name": "deposit",
      "outputs": [
        {
          "internalType": "uint256",
          "name": "shares",
          "type": "uint256"
        }
      ],
      "stateMutability": "nonpayable",
      "type": "function"
    },
    {
      "inputs": [
        {
          "internalType": "contract ERC4626",
          "name": "vault",
          "type": "address"
        },
        {
          "internalType": "uint256",
          "name": "shares",
          "type": "uint256"
        },
        {
          "internalType": "address",
          "name": "receiver",
          "type": "address"
        },
        {
          "internalType": "uint256",
          "name": "minAssetsOut",
          "type": "uint256"
        },
        {
          "internalType": "uint256",
          "name": "minExcessOut",
          "type": "uint256"
        }
      ],
      "name": "eject",
      "outputs": [
        {
          "internalType": "uint256",
          "name": "assets",
          "type": "uint256"
        },
        {
          "internalType": "uint256",
          "name": "excessBal",
          "type": "uint256"
        },
        {
          "internalType": "bool",
          "name": "isExcessPTs",
          "type": "bool"
        }
      ],
      "stateMutability": "nonpayable",
      "type": "function"
    },
    {
      "inputs": [
        {
          "internalType": "contract ERC4626",
          "name": "vault",
          "type": "address"
        },
        {
          "internalType": "uint256",
          "name": "shares",
          "type": "uint256"
        },
        {
          "internalType": "address",
          "name": "receiver",
          "type": "address"
        },
        {
          "internalType": "uint256",
          "name": "maxAmountIn",
          "type": "uint256"
        }
      ],
      "name": "mint",
      "outputs": [
        {
          "internalType": "uint256",
          "name": "assets",
          "type": "uint256"
        }
      ],
      "stateMutability": "nonpayable",
      "type": "function"
    },
    {
      "inputs": [
        {
          "internalType": "contract ERC4626",
          "name": "vault",
          "type": "address"
        },
        {
          "internalType": "uint256",
          "name": "shares",
          "type": "uint256"
        },
        {
          "internalType": "address",
          "name": "receiver",
          "type": "address"
        },
        {
          "internalType": "uint256",
          "name": "minAmountOut",
          "type": "uint256"
        }
      ],
      "name": "redeem",
      "outputs": [
        {
          "internalType": "uint256",
          "name": "assets",
          "type": "uint256"
        }
      ],
      "stateMutability": "nonpayable",
      "type": "function"
    },
    {
      "inputs": [
        {
          "internalType": "contract ERC4626",
          "name": "vault",
          "type": "address"
        },
        {
          "internalType": "uint256",
          "name": "assets",
          "type": "uint256"
        },
        {
          "internalType": "address",
          "name": "receiver",
          "type": "address"
        },
        {
          "internalType": "uint256",
          "name": "maxSharesOut",
          "type": "uint256"
        }
      ],
      "name": "withdraw",
      "outputs": [
        {
          "internalType": "uint256",
          "name": "shares",
          "type": "uint256"
        }
      ],
      "stateMutability": "nonpayable",
      "type": "function"
    }
  ],
  "bytecode": {
    "object": "0x608060405234801561001057600080fd5b50610a8e806100206000396000f3fe6080604052600436106100655760003560e01c806390d250741161004357806390d25074146100fa578063e1f21c671461011a578063f3f094a11461012f57600080fd5b80633c173a4f1461006a5780634b2084e31461009d578063678424c6146100bd575b600080fd5b34801561007657600080fd5b5061008a610085366004610902565b61014f565b6040519081526020015b60405180910390f35b3480156100a957600080fd5b5061008a6100b8366004610902565b61033e565b3480156100c957600080fd5b506100dd6100d836600461094a565b61041d565b604080519384526020840192909252151590820152606001610094565b34801561010657600080fd5b5061008a610115366004610902565b61051a565b61012d61012836600461099c565b610644565b005b34801561013b57600080fd5b5061008a61014a366004610902565b61066a565b600061025f33308773ffffffffffffffffffffffffffffffffffffffff1663b3d7f6b9886040518263ffffffff1660e01b815260040161019191815260200190565b602060405180830381865afa1580156101ae573d6000803e3d6000fd5b505050506040513d601f19601f820116820180604052508101906101d291906109dd565b8873ffffffffffffffffffffffffffffffffffffffff166338d52e0f6040518163ffffffff1660e01b8152600401602060405180830381865afa15801561021d573d6000803e3d6000fd5b505050506040513d601f19601f8201168201806040525081019061024191906109f6565b73ffffffffffffffffffffffffffffffffffffffff16929190610749565b6040517f94bf804d0000000000000000000000000000000000000000000000000000000081526004810185905273ffffffffffffffffffffffffffffffffffffffff84811660248301528391908716906394bf804d906044016020604051808303816000875af11580156102d7573d6000803e3d6000fd5b505050506040513d601f19601f820116820180604052508101906102fb91906109dd565b9150811115610336576040517f9e0fc5ff00000000000000000000000000000000000000000000000000000000815260040160405180910390fd5b949350505050565b6040517fb460af940000000000000000000000000000000000000000000000000000000081526004810184905273ffffffffffffffffffffffffffffffffffffffff8381166024830152336044830152600091839187169063b460af94906064016020604051808303816000875af11580156103be573d6000803e3d6000fd5b505050506040513d601f19601f820116820180604052508101906103e291906109dd565b9150811115610336576040517fac11961300000000000000000000000000000000000000000000000000000000815260040160405180910390fd5b6040517fc5c3d9100000000000000000000000000000000000000000000000000000000081526004810185905273ffffffffffffffffffffffffffffffffffffffff8481166024830152336044830152600091829182919089169063c5c3d910906064016060604051808303816000875af11580156104a0573d6000803e3d6000fd5b505050506040513d601f19601f820116820180604052508101906104c49190610a1a565b91945092509050848310806104d857508382105b1561050f576040517feb5d961400000000000000000000000000000000000000000000000000000000815260040160405180910390fd5b955095509592505050565b600061056d3330868873ffffffffffffffffffffffffffffffffffffffff166338d52e0f6040518163ffffffff1660e01b8152600401602060405180830381865afa15801561021d573d6000803e3d6000fd5b6040517f6e553f650000000000000000000000000000000000000000000000000000000081526004810185905273ffffffffffffffffffffffffffffffffffffffff8481166024830152839190871690636e553f65906044016020604051808303816000875af11580156105e5573d6000803e3d6000fd5b505050506040513d601f19601f8201168201806040525081019061060991906109dd565b9150811015610336576040517fa267cc6000000000000000000000000000000000000000000000000000000000815260040160405180910390fd5b61066573ffffffffffffffffffffffffffffffffffffffff84168383610818565b505050565b6040517fba0876520000000000000000000000000000000000000000000000000000000081526004810184905273ffffffffffffffffffffffffffffffffffffffff8381166024830152336044830152600091839187169063ba087652906064016020604051808303816000875af11580156106ea573d6000803e3d6000fd5b505050506040513d601f19601f8201168201806040525081019061070e91906109dd565b9150811015610336576040517f08f6e0aa00000000000000000000000000000000000000000000000000000000815260040160405180910390fd5b60006040517f23b872dd000000000000000000000000000000000000000000000000000000006000528460045283602452826044526020600060646000808a5af13d15601f3d1160016000511416171691506000606052806040525080610811576040517f08c379a000000000000000000000000000000000000000000000000000000000815260206004820152601460248201527f5452414e534645525f46524f4d5f4641494c454400000000000000000000000060448201526064015b60405180910390fd5b5050505050565b60006040517f095ea7b3000000000000000000000000000000000000000000000000000000006000528360045282602452602060006044600080895af13d15601f3d11600160005114161716915060006060528060405250806108d7576040517f08c379a000000000000000000000000000000000000000000000000000000000815260206004820152600e60248201527f415050524f56455f4641494c45440000000000000000000000000000000000006044820152606401610808565b50505050565b73ffffffffffffffffffffffffffffffffffffffff811681146108ff57600080fd5b50565b6000806000806080858703121561091857600080fd5b8435610923816108dd565b935060208501359250604085013561093a816108dd565b9396929550929360600135925050565b600080600080600060a0868803121561096257600080fd5b853561096d816108dd565b9450602086013593506040860135610984816108dd565b94979396509394606081013594506080013592915050565b6000806000606084860312156109b157600080fd5b83356109bc816108dd565b925060208401356109cc816108dd565b929592945050506040919091013590565b6000602082840312156109ef57600080fd5b5051919050565b600060208284031215610a0857600080fd5b8151610a13816108dd565b9392505050565b600080600060608486031215610a2f57600080fd5b835192506020840151915060408401518015158114610a4d57600080fd5b80915050925092509256fea26469706673582212209e8058c837e53c7c978252b5c6f5edd7660ed759ce6697fc324fc8a4be3a433564736f6c634300080d0033",
    "linkReferences": {}
  },
  "methodIdentifiers": {
    "approve(address,address,uint256)": "e1f21c67",
    "deposit(address,uint256,address,uint256)": "90d25074",
    "eject(address,uint256,address,uint256,uint256)": "678424c6",
    "mint(address,uint256,address,uint256)": "3c173a4f",
    "redeem(address,uint256,address,uint256)": "f3f094a1",
    "withdraw(address,uint256,address,uint256)": "4b2084e3"
  },
  "id": 82
}