{
  "abi": [
    {
      "inputs": [],
      "name": "BALANCER_VAULT",
      "outputs": [
        {
          "internalType": "address",
          "name": "",
          "type": "address"
        }
      ],
      "stateMutability": "view",
      "type": "function"
    },
    {
      "inputs": [],
      "name": "DIVIDER_1_2_0",
      "outputs": [
        {
          "internalType": "address",
          "name": "",
          "type": "address"
        }
      ],
      "stateMutability": "view",
      "type": "function"
    },
    {
      "inputs": [],
      "name": "PERIPHERY_1_3_0",
      "outputs": [
        {
          "internalType": "address",
          "name": "",
          "type": "address"
        }
      ],
      "stateMutability": "view",
      "type": "function"
    },
    {
      "inputs": [],
      "name": "SENSE_DEPLOYER",
      "outputs": [
        {
          "internalType": "address",
          "name": "",
          "type": "address"
        }
      ],
      "stateMutability": "view",
      "type": "function"
    },
    {
      "inputs": [],
      "name": "SENSE_MULTISIG",
      "outputs": [
        {
          "internalType": "address",
          "name": "",
          "type": "address"
        }
      ],
      "stateMutability": "view",
      "type": "function"
    },
    {
      "inputs": [],
      "name": "SPACE_FACTORY_1_3_0",
      "outputs": [
        {
          "internalType": "address",
          "name": "",
          "type": "address"
        }
      ],
      "stateMutability": "view",
      "type": "function"
    }
  ],
  "bytecode": {
    "object": "0x61018261003a600b82828239805160001a60731461002d57634e487b7160e01b600052600060045260246000fd5b30600052607381538281f3fe730000000000000000000000000000000000000000301460806040526004361061007c5760003560e01c8063499e6cea1161005a578063499e6cea146100fb5780637e593ba814610116578063bc1638461461013157600080fd5b80630efdd99e146100815780632f396166146100c557806343fc4cc1146100e0575b600080fd5b61009c7319f3bf5d7f8a58945da80eaa4131df2958f7aa4a81565b60405173ffffffffffffffffffffffffffffffffffffffff909116815260200160405180910390f35b61009c7393158100b4351935c9bc2de9a33357c4d54d94bb81565b61009c7309b10e45a912bcd4e80a8a3119f0cfccad1e1f1281565b61009c73f13519734649f7464e5be4aa91987a35594b2b1681565b61009c73876cad23753f033e5308cfcc66e7608645527a9e81565b61009c731ab16cb0cb0e5520e0c081530c679b2e846e4d378156fea26469706673582212200931ac75bf94454485488fbb5bfe9e514d99559bb37b34af4c4fc65eb901d29764736f6c634300080d0033",
    "linkReferences": {}
  },
  "methodIdentifiers": {
    "BALANCER_VAULT()": "bc163846",
    "DIVIDER_1_2_0()": "43fc4cc1",
    "PERIPHERY_1_3_0()": "7e593ba8",
    "SENSE_DEPLOYER()": "499e6cea",
    "SENSE_MULTISIG()": "0efdd99e",
    "SPACE_FACTORY_1_3_0()": "2f396166"
  },
  "id": 89
}