{
  "abi": [
    {
      "inputs": [
        {
          "internalType": "contract DividerLike",
          "name": "_divider",
          "type": "address"
        },
        {
          "internalType": "address",
          "name": "_balancerVault",
          "type": "address"
        },
        {
          "internalType": "address",
          "name": "_periphery",
          "type": "address"
        },
        {
          "internalType": "address",
          "name": "_rollerPeriphery",
          "type": "address"
        },
        {
          "internalType": "contract RollerUtils",
          "name": "_utils",
          "type": "address"
        },
        {
          "internalType": "bytes",
          "name": "_creationCode",
          "type": "bytes"
        }
      ],
      "stateMutability": "nonpayable",
      "type": "constructor"
    },
    {
      "anonymous": false,
      "inputs": [
        {
          "indexed": true,
          "internalType": "address",
          "name": "adapter",
          "type": "address"
        },
        {
          "indexed": false,
          "internalType": "address",
          "name": "autoRoller",
          "type": "address"
        }
      ],
      "name": "PeripheryChanged",
      "type": "event"
    },
    {
      "anonymous": false,
      "inputs": [
        {
          "indexed": true,
          "internalType": "address",
          "name": "adapter",
          "type": "address"
        },
        {
          "indexed": false,
          "internalType": "address",
          "name": "autoRoller",
          "type": "address"
        }
      ],
      "name": "RollerCreated",
      "type": "event"
    },
    {
      "anonymous": false,
      "inputs": [
        {
          "indexed": true,
          "internalType": "address",
          "name": "adapter",
          "type": "address"
        },
        {
          "indexed": false,
          "internalType": "address",
          "name": "autoRoller",
          "type": "address"
        }
      ],
      "name": "RollerPeripheryChanged",
      "type": "event"
    },
    {
      "anonymous": false,
      "inputs": [
        {
          "indexed": true,
          "internalType": "address",
          "name": "user",
          "type": "address"
        },
        {
          "indexed": false,
          "internalType": "bool",
          "name": "trusted",
          "type": "bool"
        }
      ],
      "name": "UserTrustUpdated",
      "type": "event"
    },
    {
      "anonymous": false,
      "inputs": [
        {
          "indexed": true,
          "internalType": "address",
          "name": "adapter",
          "type": "address"
        },
        {
          "indexed": false,
          "internalType": "address",
          "name": "autoRoller",
          "type": "address"
        }
      ],
      "name": "UtilsChanged",
      "type": "event"
    },
    {
      "inputs": [
        {
          "internalType": "contract OwnedAdapterLike",
          "name": "adapter",
          "type": "address"
        },
        {
          "internalType": "address",
          "name": "rewardRecipient",
          "type": "address"
        },
        {
          "internalType": "uint256",
          "name": "targetDuration",
          "type": "uint256"
        }
      ],
      "name": "create",
      "outputs": [
        {
          "internalType": "contract AutoRoller",
          "name": "autoRoller",
          "type": "address"
        }
      ],
      "stateMutability": "nonpayable",
      "type": "function"
    },
    {
      "inputs": [],
      "name": "getCreationCode",
      "outputs": [
        {
          "internalType": "bytes",
          "name": "",
          "type": "bytes"
        }
      ],
      "stateMutability": "view",
      "type": "function"
    },
    {
      "inputs": [],
      "name": "getCreationCodeContracts",
      "outputs": [
        {
          "internalType": "address",
          "name": "contractA",
          "type": "address"
        },
        {
          "internalType": "address",
          "name": "contractB",
          "type": "address"
        }
      ],
      "stateMutability": "view",
      "type": "function"
    },
    {
      "inputs": [
        {
          "internalType": "address",
          "name": "",
          "type": "address"
        }
      ],
      "name": "isTrusted",
      "outputs": [
        {
          "internalType": "bool",
          "name": "",
          "type": "bool"
        }
      ],
      "stateMutability": "view",
      "type": "function"
    },
    {
      "inputs": [],
      "name": "periphery",
      "outputs": [
        {
          "internalType": "contract PeripheryLike",
          "name": "",
          "type": "address"
        }
      ],
      "stateMutability": "view",
      "type": "function"
    },
    {
      "inputs": [],
      "name": "rollerPeriphery",
      "outputs": [
        {
          "internalType": "contract RollerPeripheryLike",
          "name": "",
          "type": "address"
        }
      ],
      "stateMutability": "view",
      "type": "function"
    },
    {
      "inputs": [
        {
          "internalType": "address",
          "name": "",
          "type": "address"
        },
        {
          "internalType": "uint256",
          "name": "",
          "type": "uint256"
        }
      ],
      "name": "rollers",
      "outputs": [
        {
          "internalType": "contract AutoRoller",
          "name": "",
          "type": "address"
        }
      ],
      "stateMutability": "view",
      "type": "function"
    },
    {
      "inputs": [
        {
          "internalType": "address",
          "name": "user",
          "type": "address"
        },
        {
          "internalType": "bool",
          "name": "trusted",
          "type": "bool"
        }
      ],
      "name": "setIsTrusted",
      "outputs": [],
      "stateMutability": "nonpayable",
      "type": "function"
    },
    {
      "inputs": [
        {
          "internalType": "address",
          "name": "newPeriphery",
          "type": "address"
        }
      ],
      "name": "setPeriphery",
      "outputs": [],
      "stateMutability": "nonpayable",
      "type": "function"
    },
    {
      "inputs": [
        {
          "internalType": "address",
          "name": "newRollerPeriphery",
          "type": "address"
        }
      ],
      "name": "setRollerPeriphery",
      "outputs": [],
      "stateMutability": "nonpayable",
      "type": "function"
    },
    {
      "inputs": [
        {
          "internalType": "address",
          "name": "newUtils",
          "type": "address"
        }
      ],
      "name": "setUtils",
      "outputs": [],
      "stateMutability": "nonpayable",
      "type": "function"
    },
    {
      "inputs": [],
      "name": "utils",
      "outputs": [
        {
          "internalType": "contract RollerUtils",
          "name": "",
          "type": "address"
        }
      ],
      "stateMutability": "view",
      "type": "function"
    }
  ],
  "bytecode": {
    "object": "0x6101406040523480156200001257600080fd5b5060405162001483380380620014838339810160408190526200003591620001d9565b3360008181526020818152604091829020805460ff19166001908117909155915191825283929182917fe95aec380cae16330d146d5499ef7db6f3657e477104a733e771bc09e500d986910160405180910390a250805160006200009b60028362000323565b60a081905290506000620000b0828462000346565b60e0819052828552905083620000d2816200015b602090811b62000c8917901c565b6001600160a01b03166080528285018051838252620000fd826200015b602090811b62000c8917901c565b6001600160a01b0390811660c0529590925252505096871661010052505092841661012052600180549285166001600160a01b031993841617905560028054918516918316919091179055600380549290931691161790556200036c565b80517f602038038060206000396000f3fefefefefefefefefefefefefefefefefefefe808352600091602081018484f090845291506001600160a01b038216620001a457600080fd5b50919050565b6001600160a01b0381168114620001c057600080fd5b50565b634e487b7160e01b600052604160045260246000fd5b60008060008060008060c08789031215620001f357600080fd5b86516200020081620001aa565b809650506020808801516200021581620001aa565b60408901519096506200022881620001aa565b60608901519095506200023b81620001aa565b60808901519094506200024e81620001aa565b60a08901519093506001600160401b03808211156200026c57600080fd5b818a0191508a601f8301126200028157600080fd5b815181811115620002965762000296620001c3565b604051601f8201601f19908116603f01168101908382118183101715620002c157620002c1620001c3565b816040528281528d86848701011115620002da57600080fd5b600093505b82841015620002fe5784840186015181850187015292850192620002df565b82841115620003105760008684830101525b8096505050505050509295509295509295565b6000826200034157634e487b7160e01b600052601260045260246000fd5b500490565b6000828210156200036757634e487b7160e01b600052601160045260246000fd5b500390565b60805160a05160c05160e05161010051610120516110b9620003ca6000396000610892015260006107cd01526000610d4b01526000818161017e0152610d2a01526000610d090152600081816101590152610ce801526110b96000f3fe608060405234801561001057600080fd5b50600436106100d25760003560e01c80635e1c8dff1161008157806396d648791161005b57806396d648791461022f578063aeb2293414610262578063ffe5725f1461027557600080fd5b80635e1c8dff146101e957806369953501146101fc57806377aace1a1461020f57600080fd5b8063174481fa116100b2578063174481fa1461013e57806341f8f339146101a95780635a29638d146101c957600080fd5b80629f38c6146100d7578062c194db146101145780631393916a14610129575b600080fd5b6100ea6100e5366004610eb8565b610288565b60405173ffffffffffffffffffffffffffffffffffffffff90911681526020015b60405180910390f35b61011c6102cd565b60405161010b9190610f4f565b61013c610137366004610f69565b6102ec565b005b6040805173ffffffffffffffffffffffffffffffffffffffff7f0000000000000000000000000000000000000000000000000000000000000000811682527f00000000000000000000000000000000000000000000000000000000000000001660208201520161010b565b6002546100ea9073ffffffffffffffffffffffffffffffffffffffff1681565b6003546100ea9073ffffffffffffffffffffffffffffffffffffffff1681565b61013c6101f7366004610fa7565b6103f2565b61013c61020a366004610fa7565b610503565b6001546100ea9073ffffffffffffffffffffffffffffffffffffffff1681565b61025261023d366004610fa7565b60006020819052908152604090205460ff1681565b604051901515815260200161010b565b61013c610270366004610fa7565b610614565b6100ea610283366004610fc4565b610725565b600460205281600052604060002081815481106102a457600080fd5b60009182526020909120015473ffffffffffffffffffffffffffffffffffffffff169150829050565b60606102e760405180602001604052806000815250610ce4565b905090565b3360009081526020819052604090205460ff1661036a576040517f08c379a000000000000000000000000000000000000000000000000000000000815260206004820152600960248201527f554e54525553544544000000000000000000000000000000000000000000000060448201526064015b60405180910390fd5b73ffffffffffffffffffffffffffffffffffffffff82166000818152602081815260409182902080547fffffffffffffffffffffffffffffffffffffffffffffffffffffffffffffff001685151590811790915591519182527fe95aec380cae16330d146d5499ef7db6f3657e477104a733e771bc09e500d986910160405180910390a25050565b3360009081526020819052604090205460ff1661046b576040517f08c379a000000000000000000000000000000000000000000000000000000000815260206004820152600960248201527f554e5452555354454400000000000000000000000000000000000000000000006044820152606401610361565b60025460405173ffffffffffffffffffffffffffffffffffffffff8381168252909116907f78c77f29d344706aae2e94699fe660d4279de80f0e5e837e9e4ecf9a81c1511c9060200160405180910390a2600280547fffffffffffffffffffffffff00000000000000000000000000000000000000001673ffffffffffffffffffffffffffffffffffffffff92909216919091179055565b3360009081526020819052604090205460ff1661057c576040517f08c379a000000000000000000000000000000000000000000000000000000000815260206004820152600960248201527f554e5452555354454400000000000000000000000000000000000000000000006044820152606401610361565b60035460405173ffffffffffffffffffffffffffffffffffffffff8381168252909116907ff94bf076e2bde5e66a9646461dc3302f81f1c396ff403e6e6987393253d1225d9060200160405180910390a2600380547fffffffffffffffffffffffff00000000000000000000000000000000000000001673ffffffffffffffffffffffffffffffffffffffff92909216919091179055565b3360009081526020819052604090205460ff1661068d576040517f08c379a000000000000000000000000000000000000000000000000000000000815260206004820152600960248201527f554e5452555354454400000000000000000000000000000000000000000000006044820152606401610361565b60015460405173ffffffffffffffffffffffffffffffffffffffff8381168252909116907f048e3f12102075493ebe1af4170104d8cb7aa917e553a0da4b0f608755900d909060200160405180910390a2600180547fffffffffffffffffffffffff00000000000000000000000000000000000000001673ffffffffffffffffffffffffffffffffffffffff92909216919091179055565b6000808473ffffffffffffffffffffffffffffffffffffffff1663d4b839926040518163ffffffff1660e01b8152600401602060405180830381865afa158015610773573d6000803e3d6000fd5b505050506040513d601f19601f820116820180604052508101906107979190611005565b600154604080517f857bee5f000000000000000000000000000000000000000000000000000000008152905192935060009284927f00000000000000000000000000000000000000000000000000000000000000009273ffffffffffffffffffffffffffffffffffffffff90911691829163857bee5f9160048083019260209291908290030181865afa158015610832573d6000803e3d6000fd5b505050506040513d601f19601f820116820180604052508101906108569190611005565b6003546040805173ffffffffffffffffffffffffffffffffffffffff9687166020820152948616908501529184166060840152831660808301527f0000000000000000000000000000000000000000000000000000000000000000831660a083015282891660c0830152821660e082015290861661010082015261012001604080517fffffffffffffffffffffffffffffffffffffffffffffffffffffffffffffffe081840301815282825273ffffffffffffffffffffffffffffffffffffffff8916600090815260046020908152928120549194509261093a9285929101611022565b60405160208183030381529060405280519060200120905061095c8282610dd0565b6040517f1393916a00000000000000000000000000000000000000000000000000000000815273ffffffffffffffffffffffffffffffffffffffff80831660048301526001602483015291955090881690631393916a90604401600060405180830381600087803b1580156109d057600080fd5b505af11580156109e4573d6000803e3d6000fd5b50506040517f9f30490a0000000000000000000000000000000000000000000000000000000081527f5441524745545f4455524154494f4e000000000000000000000000000000000060048201526024810188905273ffffffffffffffffffffffffffffffffffffffff87169250639f30490a9150604401600060405180830381600087803b158015610a7657600080fd5b505af1158015610a8a573d6000803e3d6000fd5b50506040517fedd1b0be0000000000000000000000000000000000000000000000000000000081527f4f574e4552000000000000000000000000000000000000000000000000000000600482015233602482015273ffffffffffffffffffffffffffffffffffffffff8716925063edd1b0be9150604401600060405180830381600087803b158015610b1b57600080fd5b505af1158015610b2f573d6000803e3d6000fd5b50506002546040517fe1f21c6700000000000000000000000000000000000000000000000000000000815273ffffffffffffffffffffffffffffffffffffffff878116600483015288811660248301527fffffffffffffffffffffffffffffffffffffffffffffffffffffffffffffffff6044830152909116925063e1f21c679150606401600060405180830381600087803b158015610bce57600080fd5b505af1158015610be2573d6000803e3d6000fd5b5050505073ffffffffffffffffffffffffffffffffffffffff878116600081815260046020908152604080832080546001810182559084529282902090920180547fffffffffffffffffffffffff0000000000000000000000000000000000000000169489169485179055905192835290917f4e97ce40cd8c01fd56afde7beff5ade3d5ce12b6120445922609ed01d1bc69d3910160405180910390a25050509392505050565b80517f602038038060206000396000f3fefefefefefefefefefefefefefefefefefefe808352600091602081018484f0908452915073ffffffffffffffffffffffffffffffffffffffff8216610cde57600080fd5b50919050565b60607f00000000000000000000000000000000000000000000000000000000000000007f00000000000000000000000000000000000000000000000000000000000000007f00000000000000000000000000000000000000000000000000000000000000007f00000000000000000000000000000000000000000000000000000000000000006000610d768285611044565b87519091506000610d878284611044565b9050604051975060208101880160405280885260208801866000828a3c846000888301883c5060208981019089850101610dc2818386610e19565b505050505050505050919050565b600080610ddc84610ce4565b90506000838251602084016000f5905073ffffffffffffffffffffffffffffffffffffffff8116610e11573d6000803e3d6000fd5b949350505050565b5b60208110610e575781518352602092830192909101907fffffffffffffffffffffffffffffffffffffffffffffffffffffffffffffffe001610e1a565b905182516020929092036101000a7fffffffffffffffffffffffffffffffffffffffffffffffffffffffffffffffff0180199091169116179052565b73ffffffffffffffffffffffffffffffffffffffff81168114610eb557600080fd5b50565b60008060408385031215610ecb57600080fd5b8235610ed681610e93565b946020939093013593505050565b6000815180845260005b81811015610f0a57602081850181015186830182015201610eee565b81811115610f1c576000602083870101525b50601f017fffffffffffffffffffffffffffffffffffffffffffffffffffffffffffffffe0169290920160200192915050565b602081526000610f626020830184610ee4565b9392505050565b60008060408385031215610f7c57600080fd5b8235610f8781610e93565b915060208301358015158114610f9c57600080fd5b809150509250929050565b600060208284031215610fb957600080fd5b8135610f6281610e93565b600080600060608486031215610fd957600080fd5b8335610fe481610e93565b92506020840135610ff481610e93565b929592945050506040919091013590565b60006020828403121561101757600080fd5b8151610f6281610e93565b6040815260006110356040830185610ee4565b90508260208301529392505050565b6000821982111561107e577f4e487b7100000000000000000000000000000000000000000000000000000000600052601160045260246000fd5b50019056fea264697066735822122052fc4c76b75d86629f0469f02b8df96c200791c30d0e47008320f03f6c148e3b64736f6c634300080d0033",
    "linkReferences": {}
  },
  "methodIdentifiers": {
    "create(address,address,uint256)": "ffe5725f",
    "getCreationCode()": "00c194db",
    "getCreationCodeContracts()": "174481fa",
    "isTrusted(address)": "96d64879",
    "periphery()": "77aace1a",
    "rollerPeriphery()": "41f8f339",
    "rollers(address,uint256)": "009f38c6",
    "setIsTrusted(address,bool)": "1393916a",
    "setPeriphery(address)": "aeb22934",
    "setRollerPeriphery(address)": "5e1c8dff",
    "setUtils(address)": "69953501",
    "utils()": "5a29638d"
  },
  "id": 80
}